:020000021000EC
:10C0000000400020D5C9010011CA010013CA010077
:10C010000000000000000000000000000000000020
:10C0200000000000000000000000000015CA010030
:10C03000000000000000000017CA010019CA01003A
:10C040001BCA01001BCA010051CC01001BCA010020
:10C050001BCA0100000000001BCA01001BCA01002E
:10C060001BCA01001BCA01001BCA01001BCA010038
:10C070001BCA01001BCA01001BCA01001BCA010028
:10C080001BCA010045DA01001BCA01001BCA0100DE
:10C090001BCA01001BCA01006DC201001BCA0100BE
:10C0A0001BCA01001BCA01000000000000000000C4
:10C0B0000000000000000000000000000000000080
:10C0C00010B5064C2378002B07D1054B002B02D06E
:10C0D000044800E000BF0123237010BDC8280020E1
:10C0E000000000001C66020008B5084B002B03D0BE
:10C0F0000748084900E000BF07480368002B00D14B
:10C1000008BD064B002BFBD09847F9E70000000064
:10C110001C660200CC280020C82800200000000077
:10C12000164B002B00D1144B9D46402292029A1AC6
:10C13000924600218B460F461348144A121A02F009
:10C1400021FA0F4B002B00D098470E4B002B00D04C
:10C1500098470020002104000D000D48002802D05F
:10C160000C4800E000BF02F04FF92000290000F069
:10C170003FFB01F04BFEC0460000080000400020DD
:10C1800000000000E5C70100C8280020502B002057
:10C190000000000000000000BFF34F8F034A044B73
:10C1A000DA60BFF34F8FC046FDE7C0460400FA05D2
:10C1B00000ED00E051DF704761DF7047F0B5264BBE
:10C1C00085B01B78002B45D0244B254E1D68346864
:10C1D0006A42554162425441EDB2E4B20193002DEE
:10C1E00036D103A8FFF7E6FF05280CD0002804D0BD
:10C1F000291C2A1CFFF7D0FF06E0019B03981B684F
:10C200000093984700E00125002C1ED1154B03A98F
:10C210001B8801240B80144B1B68181C0093FFF72C
:10C22000CBFF071E052F0BD0002805D000210A1CCC
:10C23000FFF7B2FF002403E00098336898473C1CE6
:10C24000002DCCD0002CCAD004E0002D02D1C6E7CE
:10C25000002CDBD005B0F0BDE4280020EC28002045
:10C26000F0280020E6280020E828002008B5074B29
:10C270001B68002B07D09847002806D000210A1C15
:10C28000FFF78AFF01E0FFF799FF08BDF4280020BF
:10C2900038B5041C1D1C00F081FDA561201C38BDB3
:10C2A00070471FB503AB5A70022400221C70009225
:10C2B0001A1C012300F0A6FD1FBD38B51D1C00236C
:10C2C000041C03804380043000F068FDE561201CFD
:10C2D00038BD7047F0B589B00593062307AC2370CD
:10C2E000031D0225061C039300230491171C65708F
:10C2F000F1690093221C2B1C039800F083FD092395
:10C3000023703B011F4300236770F1690093221CD7
:10C310002B1C039800F076FD0723049A2370393311
:10C320001343059A0398AA40134363700023F169ED
:10C330000093221C2B1C00F065FD09B0F0BDF0B588
:10C340000523041C002685B002AA071D03AD137047
:10C35000E1690096381C043B039600F053FD2A1C4B
:10C360000096381CE169042300F06DFD2B786A7893
:10C370001B0213432380AB78EA781B0213436380CC
:10C3800005B0F0BD10B5041C054B0360054B303003
:10C390000360054B436000F09BFE201C10BDC046AF
:10C3A000C85E0200E85E0200245F020008B4024B8F
:10C3B0009C46303808BC604785C3010008B4024B76
:10C3C0009C46343808BC604785C30100E12170B544
:10C3D000134D4902281C00F0FFFD124C0321201CC4
:10C3E0000C220123FFF776FF0F4B10481978104BF2
:10C3F0001A88FFF756FF201CFFF7A1FF208807F0DF
:10C4000021FB2E1C09F084F93036021C0B1C301C59
:10C41000084900F06FFE084B186800F037FFEAE7A4
:10C42000F82800206029002004280020442900204A
:10C43000062800208C5C02008029002010B5041C16
:10C44000FFF7A0FF201C00F008FA201C10BD08B464
:10C45000024B9C46303808BC6047C0463DC40100D2
:10C4600008B4024B9C46343808BC60473DC4010008
:10C4700038B5184D0023281C09210B2200F040FD7F
:10C48000154C281C221C154901F0B3FBFE20144B4F
:10C490008005196807F04CF8124B134D1860134BC8
:10C4A000281C1B7804210522FFF707FF221C281CEB
:10C4B0000F4901F09EFB0F4D0F4B281C1B780421E8
:10C4C0000522FFF7E5FE281C0C49221C01F091FB18
:10C4D00038BDC046F82800200028002085C3010090
:10C4E0000828002080290020602900200C28002036
:10C4F000D3C201004429002004280020A1C2010069
:10C5000038B50023C356041C0D1C013304D1064862
:10C510000649242200F00AFE6368002D01D0E2687B
:10C5200000E02269136038BD905C0200A85C020044
:10C5300000B599B06846132100F097FE06A81321B4
:10C5400000F093FE0CA8132100F08FFE12A8132117
:10C5500000F08BFE68460121FFF7D2FF06A80021FC
:10C56000FFF7CEFF0CA80021FFF7CAFF12A8012198
:10C57000FFF7C6FF962000F095FE68460021FFF702
:10C58000BFFF06A80121FFF7BBFF0CA80121FFF7A1
:10C59000B7FF12A80021FFF7B3FF962000F082FE3C
:10C5A000D8E7000070B5051C0C1CA0B000F0E0FD41
:10C5B000291C6846221C04F0E9FA051E03DC00F081
:10C5C00005FE20B070BD0A4B0A4E1B68002B04D13B
:10C5D000301C09210B2200F0B7FA00246B46301CF6
:10C5E000195D013400F074FBAC42F7D1E7E7C046B7
:10C5F000942A0020442B00200FB407B504A901C9D8
:10C600000191FFF7CFFF03B008BC04B01847704793
:10C61000704770B5041C03685B6A98472368201C48
:10C620001B690021012298472368061C421C04D183
:10C63000201C9B6A9847301C10E01B6900210222D5
:10C64000201C9847051C2368311C1B690022201CF4
:10C6500098472368201C9B6A9847281C70BD0000DF
:10C66000084B10B51B68002B0AD1074C0921201C70
:10C670000B2200F069FA9621201C890100F0D8FAFB
:10C6800010BDC046942A0020442B002008B5031C8E
:10C690000020022B0DDD0749033B9B005A585850E0
:10C6A000824204D01368101C5B68984701E00120A7
:10C6B000404208BD9029002070B50C1C151C0228B2
:10C6C00010DC0F4B1B68002B01D1FFF7C9FF661967
:10C6D000B44205D021780B4800F0FAFA0134F7E7AC
:10C6E000281C0BE00338084B8000C058002803D0FA
:10C6F00003681B68984701E00120404270BDC046B6
:10C70000942A0020442B00209029002010B50C1CF6
:10C7100002280BDC0C4B1B68002B01D1FFF7A0FF9C
:10C720000A4800F0C7FA207001200BE00338084BDC
:10C730008000C058002803D003689B68984701E038
:10C740000120404210BDC046942A0020442B002006
:10C750009029002008B5031C0120022B0BDD033BB0
:10C76000054A9B009858002803D00368DB68984767
:10C7700001E00120404208BD9029002008B5031CBB
:10C780000020022B0BDD033B05489B0018580028B6
:10C7900003D003681B69984701E00120404208BDAF
:10C7A0009029002008B5022804D880239B014B6003
:10C7B000002005E001F024FB092303600120404232
:10C7C00008BD08B5012001F021FB08B501F028FFE4
:10C7D00008BD08B501F07CFF08BD08B501F0DAFE20
:10C7E00008BD704708B5FFF7FCFF08BD70477047EC
:10C7F00008B5FFF7FCFFFFF7F9FFFFF7E7FD08BDFE
:10C800000C4910B50B681818EFF30882904205D355
:10C810000C220120084B40421A600AE0074A1268C5
:10C82000002A04D0064C2468A2189042F0D2086076
:10C83000181C10BD102800204C2B00208C29002033
:10C84000902A002008B5002801D0FFF771FEFEE70E
:10C8500008B5002103F09DF808BD08B5002801D0F7
:10C8600001F05EFE08BD0000031C04CB10B5041CE3
:10C87000002A00D1036022689A4204D00348044988
:10C88000542200F053FC206810BDC046785D0200C1
:10C890008C5D020038B50C4B0C4C08330360051C52
:10C8A000201CFFF7E1FF0023201C094A9958A942E8
:10C8B00001D1002199508022043352009342F4D1D7
:10C8C000FFF7D2FF281C38BDE05D0200842900205C
:10C8D00090290020F0B585B001913749051C03F07F
:10C8E00083F9041E02D1FFF7BBFE61E0281C334927
:10C8F00003F07AF9002803D1FFF7B2FE012457E0D4
:10C90000281C2F4903F070F9002803D1FFF7A8FE77
:10C9100002244DE02B4E0024301CFFF7A5FF301CF5
:10C92000294FA600F359002B05D00134402CF7D134
:10C93000FFF79AFF3AE001235B42F351FFF794FFC0
:10C940002B783A2B06D1281C204902AA03F0D6F8EE
:10C95000029826E002A8291C00F0C8F902A800F0FD
:10C9600011FA002801D1F05120E002A800F0F4F9FA
:10C97000002803D002A800F0F9F912E002A800F0A4
:10C98000E2F9051E01D1F05110E0036802A89F688A
:10C9900000F0CCF90E4A019B011C13401A1C281C04
:10C9A000B847094B03349851002801D1012464424F
:10C9B000201C05B0F0BDC046235D0200D55D02001D
:10C9C0002A5D02008429002090290020D15D020008
:10C9D000FFFFFEFF0848026803210A43026007497F
:10C9E000074A084B9B1A03DD043BC858D050FBDCB8
:10C9F000054880470548004724050040506602006E
:10CA000000280020C82800201DCA010021C1010003
:10CA1000FEE7FEE7FEE7FEE7FEE7FEE7334A10B576
:10CA20001378111C012B19D1314B1B681B0715D131
:10CA3000304BE0241A68F023101C184022420BD11E
:10CA40002D4A12681A4209D12C4A2D4B1A608022B5
:10CA50002C4B12021A6001E03028F1D00B68DBB2D7
:10CA6000012B0DD1224A1268120709D1F021214A67
:10CA700012680A40402A03D11F4A12680A422DD088
:10CA80008022A32301210020D205DB00D1501E4BC0
:10CA9000986091601D4A9968002925D1C831C04627
:10CAA000C046C046C046C046C046C046C046C04656
:10CAB000C046C046C046C046C04601390029EED136
:10CAC000013A002AE7D18021A320C905C0000A50FD
:10CAD00001328A609A68002AFCD005E0C1228021D8
:10CAE000D200C9058B50CBE710BDC046E00F00F067
:10CAF000E40F00F0E80F00F0EC0F00F0DFFF07C0DC
:10CB000004050040186C0040FC0000408813000041
:10CB1000012310B50A4ADC00A458A14207DA013B00
:10CB2000DB00D3185A680168064BCA5007E001338E
:10CB3000112BEFD180210268024B4905D15010BD65
:10CB4000145E020024050000F7B50F1C01212F4BD5
:10CB5000B9400360A023161C2D4ADB05051C98581C
:10CB60000843985080209C58400004439C50294C16
:10CB70001A59114319510121B1401A5902431A514E
:10CB80001A59281C8A431A511959234A0A409621D6
:10CB90001A518901FFF7BCFF002204202B681F49AE
:10CBA0005A506C395850181C0121FC309960019082
:10CBB0001960C26001201A4940425850019802622F
:10CBC00018481A500198006A0128FBD16A60A12216
:10CBD0000730D20098505F500A21083299501E51F8
:10CBE0007B1C03D0381C073900F0A0FB731C03D05A
:10CBF000301C032100F09AFB01220B4B291C1A6008
:10CC00000A48073201F0A1FCF7BDC04600200040F1
:10CC10000405000014050000FFFBFFFF6C05000089
:10CC20000C0500001C050000942A0020442B002065
:10CC300008B59623DB00994202DDFFF769FF04E0A7
:10CC40009E210268014BC902D15008BD2405000095
:10CC500008B5C1230D4A9B00D158090603D50C49DC
:10CC6000096A002908D1D3585B070DD5084B00216C
:10CC7000DB68002B01D107E00121064B1868002872
:10CC800002D0054B1B68984708BDC04600200040F5
:10CC9000FC200040982A00209C2A0020034B1960A9
:10CCA000436803499B005A507047C0469C2A0020A5
:10CCB000982A002003681A1CFC32D1680129FAD195
:10CCC0000021D160A322D2009858C0B27047000062
:10CCD00003681A1CFC32106A0128FAD10020106285
:10CCE000014AC9B2995070471C050000002310B5D5
:10CCF000036043600A78041C2F2A15D14A789A42AF
:10CD000012D0481C191C206023681A782F2A02D1DF
:10CD10000133236005E0002A03D001330131236091
:10CD2000F2E700F017FF6060201C10BD006870473C
:10CD300008B54368181E05D000F0B8FE013843421C
:10CD40005841C0B208BD10B5041CFFF7F1FF031E27
:10CD500000D06368181C10BD08B54368181E04D0C5
:10CD600000F0A4FE43425841C0B208BD10B5041CF7
:10CD7000FFF7F2FF031E03D06268131E00D0131FDB
:10CD8000181C10BD4068431E9841C0B270477047E0
:10CD900010B5041CFFF761FD201C10BDF8B5051C83
:10CDA000041C0F1C161C094B0021083308C5281C45
:10CDB000102201F0E7FB064B281C6361391C321C72
:10CDC00000F04CFB034B201C1C60F8BDA85E020069
:10CDD000A0860100A02A002038B50368041C1B6847
:10CDE0009847074D2B68A34204D0201D616900F0CD
:10CDF000EFFA2C602368201C5B68984738BDC0465A
:10CE0000A02A0020F0B5051C85B01C1C0AAB1E78BA
:10CE1000036803921B680F1C9847281CFFF7DCFF70
:10CE200001235E400096231C391C039A281D00F044
:10CE300003FC061C2B68281C5B689847A01B441E3B
:10CE4000A04105B0F0BDF0B5051C85B01C1C0AABB7
:10CE50001E78036803921B680F1C9847281CFFF775
:10CE6000BBFF01235E400096231C391C039A281D3A
:10CE700000F09EFB061C2B68281C5B689847A01BD3
:10CE8000441EA04105B0F0BD08B50248FFF7ECFC18
:10CE900008BDC046A42A002008B50248FFF7E4FCFC
:10CEA00008BDC046A42A00207047000008B4024B09
:10CEB0009C46303808BC6047A9CE0100704700008E
:10CEC00008B4024B9C46303808BC6047BDCE010018
:10CED00008B500F091F808BD08B4024B9C46303804
:10CEE00008BC6047D1CE010008B500F08AF808BD43
:10CEF00008B4024B9C46303808BC6047E9CE0100BC
:10CF000038B5041C1D1C00F02BF8201C291C3030E7
:10CF100000F0BCF8054B201C1A1C083222601A1CB9
:10CF2000643328322263636338BDC046C05E0200AA
:10CF300070477047704708B5090142189369002B84
:10CF400003D0111C50690C31984708BD08B50B6817
:10CF5000984708BD10B5041CFFF77FFC201C10BDCE
:10CF6000F7B50027041C194B0E1C0833151C01A92A
:10CF700003604760876004220C30019701F0E5FAF6
:10CF8000019B201C591E8B41114A5B421A4001A98A
:10CF9000A2611C300422019701F0D7FA019B0C4AD0
:10CFA000591E8B415B421A409623271D9B01381C5A
:10CFB000311CA262E3622A1CFFF7C6FD381C05493A
:10CFC000221CFFF76BFE201CFEBDC046305F020036
:10CFD0004DCF010037CF010038B5041C0D1C03688C
:10CFE0001B689847291C201DFFF722FE2368E56275
:10CFF0005B68201C984738BD08B50430FFF75AFE1F
:10D0000008BD10B50C1C0430FFF762FE201C10BDDB
:10D0100000207047F8B50F1C0368051C5B6A8C186C
:10D020003E1C9847A64209D001362B68721EDB6A67
:10D030001178281C9847431CF4D1341C2B68281CF9
:10D040009B6A9847E01BF8BDF8B50F1C0368051CE8
:10D050005B6A8C183E1C9847B44209D02B68281C88
:10D060001B6B9847431C02D030700136F4E7341C28
:10D070002B68281C9B6A9847E01BF8BD002070476E
:10D080000020704700207047002070471FB5041C27
:10D0900000F0E6FC0B4B01A81A1C4433636000232C
:10D0A0000832636122600849221C02F005FD07492D
:10D0B00001A801F0DFF86061FFF7CAFB201C04B093
:10D0C00010BDC046485F0200D15D0200945F0200BF
:10D0D000074B10B51A1C041C08324433026043602D
:10D0E000406900F001FF201C00F0CEFC201C10BDA8
:10D0F000485F02000EB477B5041C036807AD40CD4D
:10D100005B6A98476069019500F0AEFF311C019A97
:10D11000606901F03BFC051C2368201C9B6A984752
:10D12000281C7EBC08BC03B01847000070B5061C64
:10D130000D1C141C00F01CF8311C2A1C0348231C75
:10D14000FFF75AFAFFF7F4F970BDC046975F020087
:10D150000FB407B504A901C90191FFF723FA012013
:10D1600000F054FEEFF31083012098437047000055
:10D1700038B5FFF7F7FF01256840C5B272B60E4C0F
:10D180002368002B01D10D4B1D702368013304D19E
:10D190000B480C493222FFF7C9FF2368002B06D049
:10D1A000002D04D1084807493622FFF7BFFF236846
:10D1B0000133236038BDC046AC2A0020B02A0020CD
:10D1C000C85F0200EE5F02003360020010B50C4C35
:10D1D0002368002B13D0FFF7C5FF002804D00948AF
:10D1E00009494722FFF7A2FF2368013B2360236818
:10D1F000002B04D1054B1B78002B00D162B610BD6B
:10D20000AC2A002033600200EE5F0200B02A00204A
:10D2100038B50023C356041C0D1C013304D1064845
:10D2200006492422FFF782FF6368002D01D0E268DF
:10D2300000E02269136038BD905C0200A85C020027
:10D2400070B50D1C041C161C00F034F86B1C0BD0C0
:10D25000201C311CFFF7DCFF201C012100F048F8E6
:10D26000201C002100F03EF870BD08B50022FFF739
:10D27000E7FF08BD38B5041C00F054FB051C00F0A6
:10D2800051FB401BA042FAD338BD000008B5044949
:10D2900006F086FA06F0B6FBFFF7ECFF08BDC046C5
:10D2A0000024744908B5FA239B005843FFF7E2FFB6
:10D2B00008BD000001704B1C0AD001238B40436065
:10D2C000044BC360044B0361044B4361044B836014
:10D2D0007047C046080500500C050050100500506E
:10D2E0001405005008B5007840B200F01FF808BDE2
:10D2F00038B50023C356051C0C1C013304D1094862
:10D3000009492A22FFF712FF002C01D0012C07D176
:10D310000023A022EB56D205C133FF339B009C5063
:10D3200038BDC046905C02004760020038B5041C5E
:10D330000D1C431C04D10A480A491A22FFF7F6FEC5
:10D34000A023A400DB05E018E0230C21DB00C25879
:10D35000AD008A43C250C2581543C55038BDC046BF
:10D36000955C0200AE600200084B0068C150084B9B
:10D37000021CFC32116A002904D1013B002BF7D1B9
:10D38000012001E0002010627047C0461C0500002B
:10D39000A186010010B50368002A03D08022022074
:10D3A0009200985001221A62084A1C1CFC34E06862
:10D3B000002804D1013A002AF7D1012005E000201D
:10D3C000A322E060D2009B580B7010BDA186010023
:10D3D00010B50B4C02680B4BA14204DC0A4981607A
:10D3E000CC2149040AE0094CA14203DC08498160D0
:10D3F000802102E007498160CD21C904D15010BDD0
:10D400008FD0030024050000A08601007F1A0600CB
:10D4100090D00300801A060070B5041C101CA025D3
:10D42000C026C130FF30F600ED0580004651081CD3
:10D43000C130FF3080004651A1252068ED004251E7
:10D44000054A8150191C201CFFF7C2FFA0230521AB
:10D450002268DB00D15070BD0C050000F8B50F1C30
:10D460002849161C0B78051CDBB20A1C012B07D1BE
:10D470004C78F8B2844203D18878F1B2884215D052
:10D48000214908780B1C012807D14C78F8B2844256
:10D4900003D18878F1B2884214D01178002908D1DC
:10D4A0000123F9B213705170F1B291706B73174C84
:10D4B00010E01A78002A09D101321A70FAB25A70B3
:10D4C000F2B29A700223124C6B7303E01148FFF71B
:10D4D0003FFE0024201C00F051F9221C0023FC32E6
:10D4E0006E712F712C609362A022D200A3500A4A61
:10D4F000281CA3500133A350391C321C074BFFF7E3
:10D500008BFFF8BDB12A0020B52A00200030004072
:10D510000040004013610200FC0F0000A0860100E3
:10D52000026808B5031C101C0021FC308162A02099
:10D53000C00011500648115001311150042105223C
:10D5400059569A56181C9B68FFF766FF08BDC046DF
:10D55000FC0F0000036800211A1CFC3210B591601A
:10D5600001315961074B9168002904D1013B002B1F
:10D57000F9D1012004E000240473FFF7D1FF201C3F
:10D5800010BDC046A1860100036810B5191CFC310E
:10D590008A6A0020012A08D1044C1C5988625A6109
:10D5A0000238A40701D40120404210BDC404000089
:10D5B000F7B50192B1221F1C03684910D20099509F
:10D5C0008021012289005A50191C0024061CFC31BC
:10D5D000CC601A607D1E019BAC4213DA1919301C15
:10D5E0000022FFF7D7FE00280AD0301CFFF7CCFF3F
:10D5F000071C301CFFF794FF251C002F1ADA18E0D7
:10D600000134E7E75919301C0122FFF7C3FE002857
:10D6100003D0301CFFF784FF0CE0089B3D1C002B5F
:10D6200008D031680B1CFC339A68002AFAD000221B
:10D630009A603D1C281CFEBDF8B5171CB1221D1CAC
:10D640000368D200491099508022002492009C5017
:10D650000122061C9A60AC4211DA395D301CFFF7DA
:10D6600083FE002809D0301CFFF75AFF301CFFF75B
:10D670008BFF00280EDA041C0CE00134EBE7069B5C
:10D680002C1C002B06D0301CFFF764FF002801D0B3
:10D6900001246442201CF8BD82B00190C046C046FF
:10D6A000C046C046C046C046C046C046C046C0464A
:10D6B000C046C046C046C046019B013B0193002BBB
:10D6C000ECD102B070470000A023F0B5DB00C258D7
:10D6D00085B001920022A024C250E423E405DB00BF
:10D6E000E258051C0292234A0420E2500833E15814
:10D6F0000391E250A1238022DB00D200E25080227D
:10D700005200E250FFF7C8FFA223DB00E2585205A7
:10D7100007D50122E35813241B0A134202D001202B
:10D7200019E01324013C002C14D0A0268027124BB2
:10D73000F6057F00F7500420FFF7AEFFA123DB00C2
:10D74000F7500420FFF7A8FFA223DB00F3585B0586
:10D75000E8D5E4E7201CA023E4220299DB05D200EF
:10D760009950039908329950A023019ADB00EA509E
:10D7700005B0F0BD0D0600000C050000A023E4215B
:10D78000154ADB05C90010B55A5008315A50031C20
:10D790000022FC33DA601A62A12208230A21D20097
:10D7A00083500E4B041CC150CC210D4B4904C15079
:10D7B000A2210C4B3934FF34C9005C500A491D3C8E
:10D7C000FF3C5C5001219950A0230522DB00C25090
:10D7D000FFF77AFF10BDC0460C0600000C050000E4
:10D7E0002405000000F00140140500000A480B4920
:10D7F00082680B4B002A08D01A6801321A60002296
:10D800008260D222022092008850064A1B68885803
:10D81000190A1B0618437047FC1001400010014014
:10D82000C02A0020040500002F23C046C046C04681
:10D83000C046C046C046C046C046C046C046C046B8
:10D84000C046C046C046013B002BEED17047704732
:10D85000F8B5184B9A68002A0AD0174902200A68BE
:10D8600001320A6000229A60D22214499200885044
:10D870005B6C124C002B1BD000270E4B80255F6485
:10D88000D2236D029B00E5500D4B1B78BB420FD09D
:10D890000C4B1E68FFF7AAFF361ABE4208DC084B85
:10D8A0001F70C2239B00E5504033E55000F076F92D
:10D8B000F8BDC046FC100140C02A00200010014005
:10D8C000C52A0020BC2A002038B5124C2378002B32
:10D8D0001ED1A121C420104AC9005350C1390233BE
:10D8E000FF395350443953500C4980000D580C4BAC
:10D8F0002B40C0252D022B430B508023012591384E
:10D900009B02FF380B500B601560FFF78DFF2570F1
:10D9100038BDC046C42A00200010014000E100E0EC
:10D92000FF00FFFF08B5084B1B78002B01D1FFF764
:10D93000CBFFFFF75BFF054A002305F07BFD4904A1
:10D94000C00B084308BDC046C42A002040420F0057
:10D95000F8B5284B041C1B78002B01D1FFF7B4FF4E
:10D96000FFF744FF244A002305F064FD4B04C00B7D
:10D97000CF0B18430026221C0023802192197B41E3
:10D980000906884205D9002C03DB0020012112186A
:10D990004B41D9030023540CD003184A214380186B
:10D9A00059410023144A05F025FD154D041C2B7820
:10D9B000144E002B02D0336898421AD0FFF716FF9E
:10D9C000201A022802DCFFF711FF841CA821220282
:10D9D0000D4B120AC9005A502A783460002A08D127
:10D9E00001322A708022F9395202FF395A504439E3
:10D9F0005A50F8BDC42A002040420F003F420F0099
:10DA0000C52A0020BC2A002000100140074B1A78CC
:10DA1000002A09D08021C220054A49028000115005
:10DA20004030115000221A707047C046C52A0020AD
:10DA3000001001400022024B9A605A647047C046B1
:10DA4000FC10014005480168002901D0FFF7FFFEE6
:10DA500008B5FFF7FDFE08BDC046000044110140B7
:10DA6000074B10B50022041C08C000F021F8054B3C
:10DA7000201C1A1C3C3308322260636010BDC04673
:10DA8000E85D020028610200074B10B51A1C041C57
:10DA900008323C3302604360043000F02BF8201C55
:10DAA000FEF7F8FE201C10BD28610200007B7047C5
:10DAB0000D4B70B508330360041C00230B4D43600D
:10DAC000A1600273281C0E1CFEF7CEFE281C002E3F
:10DAD00004D0074B1A681C60626000E06660FEF7C5
:10DAE000C3FE201C70BDC04670610200CC2A00201D
:10DAF000C82A002038B5041C0E4B0F4D08330360B4
:10DB0000281CFEF7B1FEA368281C002B0DD00B4A81
:10DB10001368A34202D16368136006E05A68A24208
:10DB200001D0131CFAE762685A60FEF79DFE201CC4
:10DB300038BDC04670610200CC2A0020C82A0020EF
:10DB400010B5041CFFF7D6FF201CFEF786FE201C34
:10DB500010BD0000F8B50F4D071C281C0E1CFEF769
:10DB600083FE0D4B1C68002C0FD0A06800280AD043
:10DB7000391C321C02F049F8002804D1A06802F0D8
:10DB80003DF8B04201D06468EDE7281CFEF76CFE5A
:10DB9000201CF8BDCC2A0020C82A002008B5024865
:10DBA00000F004F808BDC0469461020038B503686F
:10DBB000041CDB68984763685A682368002A02D10E
:10DBC0009B68984714E05B681568984763682D1A4E
:10DBD000002D08DC5A68916859601B68002BEAD058
:10DBE00050689847E7E75A68216810680B699847BA
:10DBF00038BD08B5031C081C191C00F0F3F808BD5B
:10DC00000123244A1168194200D11360224A116885
:10DC1000194201D1012313600123204A11681942DE
:10DC200000D113601E4A1168194201D1012313600B
:10DC300001231C4A1168194200D113601A4A116865
:10DC4000194201D1012313600123184A11681942B6
:10DC500000D11360164A1168194201D101231360E3
:10DC60000123144A1168194200D11360124A116845
:10DC7000194201D1012313600123104A116819428E
:10DC800000D113600E4A1168194201D101231360BB
:10DC90007047C046082B0020042B0020002B0020DA
:10DCA000FC2A0020F82A0020F42A0020F02A002074
:10DCB000EC2A0020E82A0020E42A0020E02A0020A4
:10DCC000DC2A00200123244A1168194200D1136084
:10DCD000224A1168194201D1012313600123204A0D
:10DCE0001168194200D113601E4A1168194201D10E
:10DCF0000123136001231C4A1168194200D11360EB
:10DD00001A4A1168194201D1012313600123184AEC
:10DD10001168194200D11360164A1168194201D1E5
:10DD2000012313600123144A1168194200D11360C2
:10DD3000124A1168194201D1012313600123104ACC
:10DD40001168194200D113600E4A1168194201D1BD
:10DD5000012313607047C046382B0020342B00206D
:10DD6000302B00202C2B0020282B0020242B0020DF
:10DD7000202B00201C2B0020182B0020142B00200F
:10DD8000102B00200C2B00200A1C031C024330B572
:10DD90000220002A00D130BD80221206914216D006
:10DDA0000C4A04208C180C4A9442F4D90B4C0C19E0
:10DDB0009442F0D90A4A4900490803209142EAD91D
:10DDC000064A00209142E6D158425841E3E7002B31
:10DDD000E1D0EFE70000F0FFFFFFDF7F0000F07F02
:10DDE000FFFF0F00054B10B5041C181E05D0131CB7
:10DDF00002200A1C211C00E000BF10BD0000000032
:10DE0000014B18687047C04678280020084B10B5B1
:10DE1000041C002B02D0002100E000BF054B186855
:10DE2000836A002B00D09847201CFEF70BFDC046EC
:10DE3000000000000063020070B5051C0C1E01D13B
:10DE4000002049E0002804D08369002B01D100F0B4
:10DE500061F9224B9C4201D16C6808E0204B9C4246
:10DE600001D1AC6803E01F4B9C4200D1EC680C224E
:10DE7000A35E002BE4D0281C211C00F03FF8236B8C
:10DE8000061C002B06D0281C216A9847002801DABE
:10DE900001267642A3891B0603D5281C2169FEF7BB
:10DEA0009CFC616B002908D0231C4433994202D0AA
:10DEB000281CFEF792FC00236363A16C002904D0A8
:10DEC000281CFEF78AFC0023A36400F093F90023CA
:10DED000A38100F090F9301C70BDC046A062020022
:10DEE000C0620200E062020008B5034B011C186822
:10DEF000FFF7A2FF08BDC04678280020F7B58A8941
:10DF0000051C0C1C13075ED44B68002B02DC0B6C49
:10DF1000002B1ADDE76A002F17D000232E682B6034
:10DF200080235B011A4001D0626D15E0281C216A34
:10DF30000123B847021C431C0ED12B68002B0BD0C9
:10DF40001D2B01D0162B02D12E6000205EE0402157
:10DF5000A3890B43A38159E0A3895B0706D56368B6
:10DF6000D21A636B002B01D0236CD21A0023281C19
:10DF7000216AE76AB847A389421C06D12A68002AA9
:10DF800003D01D2A01D0162A19D10022626022690D
:10DF90002260DB0405D5431C02D12B68002B00D185
:10DFA0006065616B2E600029CFD0231C44339942F9
:10DFB00002D0281CFEF711FC0020606326E04022FE
:10DFC0001343A38122E00F69002FBED00B680F60BE
:10DFD000DB1B01930023920700D14B69A360019BD7
:10DFE000002BB2DD281C216A3A1C019BA66AB047AF
:10DFF000002806DC40220120A38940421343A3816C
:10E0000004E0019B3F181B1A0193E8E7FEBD0000E6
:10E0100038B50B69051C0C1C002B01D100201CE03D
:10E02000002804D08369002B01D100F073F80B4B5A
:10E030009C4201D16C6808E0094B9C4201D1AC685C
:10E0400003E0084B9C4200D1EC680C22A35E002B3D
:10E05000E4D0281C211CFFF751FF38BDA06202004C
:10E06000C0620200E062020008B5011E05D1054B46
:10E070000549186800F0A6F903E0044B1868FFF79B
:10E08000C7FF08BD0063020011E0010078280020EE
:10E0900008B5024900F096F908BDC04611E001003C
:10E0A000002310B5041C03604360836081814366D4
:10E0B000C281036143618361191C08225C3000F056
:10E0C00061FA054B24626362044BA362044BE36272
:10E0D000044B236310BDC0464DFB010079FB0100DA
:10E0E000B1FB0100DDFB010070B568254B1E5D43EF
:10E0F0000E1C291C7431FEF768FB041E08D0002199
:10E100002A1C016046600C30A060683200F03AFAC8
:10E11000201C70BD836913B5002B28D18364C364B0
:10E120000365134B134A1B6882620193984201D125
:10E1300001238361041C00F01FF86060201C00F0C4
:10E140001BF8A060201C00F017F80421E0600022FA
:10E150006068FFF7A5FFA06809210122FFF7A0FF73
:10E16000E06812210222FFF79BFF0123A36113BD88
:10E170000063020091E00100F8B51D4B061C1D680C
:10E18000AB69002B02D1281CFFF7C4FF4835AC68EF
:10E190006B68013B05D40C22A75E002F10D06834B9
:10E1A000F7E72B68002B06D1301C0421FFF79CFFFA
:10E1B0002860002801D02D68E9E70C23336016E0C1
:10E1C0000123201C5B42E3810233A3816766276041
:10E1D000A760676027616761A7615C30391C08220E
:10E1E00000F0D0F9201C6763A763A764E764F8BD5B
:10E1F0000063020070477047F7B50F1C111C01AA9D
:10E20000051C03F04BFC061E01D1002427E0281C4E
:10E21000FFF7B2FF041EF8D0DB23281C391C019A3B
:10E220005B0001F05DFB002806DA0025FFF7E2FF46
:10E23000A581FFF7E0FFE8E70A4BE08163620A4B44
:10E24000A681A362094B2462E362094B2363F305B1
:10E2500005D5281C211C0022022300F017F8201CE1
:10E26000FEBDC0464DFB010079FB0100B1FB010082
:10E27000DDFB010008B5031C0A1C03490868191CD2
:10E28000FFF7BAFF08BDC0467828002008B500F0A7
:10E2900001F808BDF7B5051C0C1C01921E1C0028D6
:10E2A00004D08369002B01D1FFF734FF414B9C421E
:10E2B00001D16C6808E0404B9C4201D1AC6803E09E
:10E2C0003E4B9C4200D1EC688422A389520013404B
:10E2D000934203D1281C211CFFF79AFEE36A0093A6
:10E2E000002B01D11D3331E0012E05D0022E31D09B
:10E2F0001623002E2AD12DE0281C211CFFF788FEB2
:10E300008023A2895B011A4001D0606D06E0331CB6
:10E31000281C216A009EB047431C18D0A3895A07C5
:10E3200007D56368C01A636B002B0AD0236CC01A30
:10E3300007E01B0705D52368002B02D022699B1A32
:10E34000C018019B00261B18019303E02B600127D6
:10E350007F422DE02369002B03D1281C211C00F0F3
:10E360007DF8281C211CFFF753FE071EEFD1331C3C
:10E37000281C216A019A009EB047431CE7D0616BBC
:10E38000002908D0231C4433994202D0281CFEF7F0
:10E3900024FA002363630021201C2369A2892360DF
:10E3A000074B61601340A3815C30082200F0EAF85B
:10E3B000381CFEBDA0620200C0620200E0620200E2
:10E3C000DFF7FFFFF7B5041C071C00260191483456
:10E3D000002C16D06368A5680093009B013B009356
:10E3E0000DD4AB89012B08D90E22AB5E013304D0CA
:10E3F000381C291C019B984706436835EDE72468C3
:10E40000E6E7301CFEBD00000E4B70B500251E1C5B
:10E410000D4CE41AA410A54204D0AB00F358984761
:10E420000135F8E707F026FC084B00251E1C084CB8
:10E43000E41AA410A54204D0AB00F3589847013564
:10E44000F8E770BDB4280020B4280020B4280020CC
:10E45000C4280020004870477C280020F0B58B8934
:10E4600091B09B0706D50B1C47330B600B61012352
:10E470004B6145E00C1C0E23C95E061C002904DA22
:10E480008023A5891D4010D10CE001AA03F03EFBBA
:10E490000028F5DBF023029D1B021D40194BED18EF
:10E4A0006B425D418027FF0001E000254027301CC2
:10E4B000391CFEF78AF900280CD1A3899A051FD4CC
:10E4C00002221343A381231C4733236023610123CA
:10E4D000636115E080220C4BB362A3892060134373
:10E4E000A38120616761002D0AD00E23E15E301CFC
:10E4F00003F036FE002803D00122A3891343A38131
:10E5000011B0F0BD00E0FFFF91E0010008B5034B42
:10E51000011C1868FEF759F908BDC046782800208C
:10E5200008B5034B011C1868FEF757F908BDC04633
:10E5300078280020C9B28218904204D003788B4218
:10E5400002D00130F8E700207047002310B5934255
:10E5500003D0CC5CC4540133F9E710BD10B581423F
:10E5600008D28B18984205D29B1A013A09D3995CBC
:10E570008154FAE70023934203D0CC5CC4540133A6
:10E58000F9E710BD031C8218934202D019700133C1
:10E59000FAE7704730B500293ED004390B68002BEC
:10E5A00000DAC9181D4A1368141C002B02D14B60F5
:10E5B000116031E099420DD208680A189A4203D1DD
:10E5C0001368C3180B6053684B60216024E08A42D3
:10E5D00003D8131C5A68002AF9D11D685C198C42B3
:10E5E0000BD10968691858181960904214D1106845
:10E5F0005268091819605A600EE08C4202D90C2347
:10E60000036009E008680C18944203D1146852684A
:10E61000001908604A60596030BDC046402B002098
:10E62000032370B5CC1C9C430834051C0C2C01D270
:10E630000C2405E0002C03DA0C2300202B6042E0C0
:10E640008C42F9D3204A1368101C191C002913D0DE
:10E650000A68121B0DD40B2A02D90A608B181FE01E
:10E660008B4202D15A6802601BE04A685A600B1C58
:10E6700017E00B1C4968E9E7144E3368002B03D1FF
:10E68000281C01F041F93060281C211C01F03CF9E4
:10E69000031C421CD0D00322C61C964386420AD1DA
:10E6A0001C60181C07210B301A1D8843821A0AD0DF
:10E6B0005142995007E0311A281C01F025F9431CFA
:10E6C000BAD0331CECE770BD402B00203C2B00205F
:10E6D000F8B5061C0C1C151C002904D1111CFEF7F2
:10E6E00074F8041C18E0002A03D1FEF776F82C1CFD
:10E6F00012E004F06CF9A8420ED2301C291CFEF77F
:10E7000064F8071E07D0211C2A1CFFF71EFF301CCF
:10E71000211CFEF762F83C1C201CF8BD936810B564
:10E72000013B9360002B05DA9469A34208DBCBB26E
:10E730000A2B05D01368581C10601970C8B201E08C
:10E7400002F032FA10BDF8B5061C0F1C141CD518C7
:10E75000AC4208D02178301C3A1CFFF7DFFF0134AF
:10E76000431CF5D100E00020F8BD0000F0B59FB0DB
:10E77000061C0F1C02920593002804D08369002B0D
:10E7800001D1FFF7C7FC794B9F4201D1776808E0C0
:10E79000774B9F4201D1B76803E0764B9F4200D18F
:10E7A000F768BB891B070AD53B69002B07D00023FC
:10E7B00006AD6B6120336B761033AB763DE0301CD9
:10E7C000391C02F05DFA0028F1D001204042CAE075
:10E7D000059A111D12680591002A7EDB0992013409
:10E7E00023782E2B00D189E0217863480322FFF79C
:10E7F000A1FE002808D0604B0134C01A402383409A
:10E80000181C2B68184328602178631C5B4806227B
:10E8100002932976FFF78EFE002800D191E0584B35
:10E82000002B00D084E00722059B07339343083375
:10E8300005936B69039A9B186B61029C2378002BEC
:10E8400004D1029BE31A049311D003E0252BF8D0E6
:10E850000134F3E7049B301C391C029AFFF773FF65
:10E86000431C7BD06A69049B944663446B612378A4
:10E87000002B73D00122002352426A6002A9543255
:10E88000521801342B60EB60AB601370AB652178DC
:10E890003C480522FFF74EFE002809D0394B0134D1
:10E8A000C01A01238340181C2B6818432860EEE728
:10E8B0002B68DA0604D55322202102A81218117001
:10E8C0001A0704D553222B2102A81218117022789E
:10E8D0002A2A00D17CE7099B05E05242EA60022225
:10E8E00013432B607BE72278303A092A04D80A21A7
:10E8F0004B4301349B18F6E7099371E763782A2BA1
:10E9000009D1059B02341A1D1B680592002B0DDAF4
:10E9100001235B420AE0002301342278303A092ABD
:10E9200004D80A214B4301349B18F6E707935BE7B1
:10E9300005AB0093301C291C3A1C134B00F0CAF89D
:10E9400007E005AB0093301C291C3A1C0E4B00F06D
:10E950006DFB0390039B013300D06AE7BB895B0624
:10E9600000D532E70B981FB0F0BDC046A062020090
:10E97000C0620200E062020012630200166302003D
:10E98000D5EA01000C63020047E7010038B5051C19
:10E990000C1C131C034A291C1068221CFFF7E6FEFE
:10E9A00038BDC04678280020F0B58BB0141C1D1E61
:10E9B000129906DA802424062B191D1C141C2D2301
:10E9C00000E000230B702023149E03229E43462E5A
:10E9D00007D0331C453B59424B411099013ACB18A3
:10E9E0001093109B00920193139B221C029308AB7F
:10E9F000039309AB04932B1C02F050FA071C472E1B
:10EA000002D1119BDB072CD5109BFB180793462ED8
:10EA100014D13B78302B0CD1201C291C0022002360
:10EA200004F0BAFC002804D10123109A9B1A139A0F
:10EA30001360139B079A1B68D3180793201C291C8B
:10EA40000022002304F0A8FC002801D0079B0993B2
:10EA5000099B079A934204D25A1C099230221A70D9
:10EA6000F6E7381C099B159ADB1B13600BB0F0BD51
:10EA7000F7B52B23071C0C1C0270861C002901DA39
:10EA80002D234C427B70092C1CDD6B46DD1D201CA8
:10EA90000A2104F065FC013D30312970201C0A2157
:10EAA00004F078FB041E092CF1DC013D30342C709D
:10EAB0006B460733301CAB4209D92B7801353370D4
:10EAC0000136F5E73023E4183370B01C7470C01BB6
:10EAD000FEBD0000F0B593B00C1C08920993189E7F
:10EAE000051CFFF7B7FC0368181C0B9301F086F8B0
:10EAF0000023216810930C90277E33680722C905F4
:10EB000001D59B1800E0073393431A1C083232608A
:10EB10001A685B68A264E364A06CE16CFFF734F9E7
:10EB2000012818D1A06CE16C0022002304F03AFC0B
:10EB3000002803D0231C2D2243331A70B64B0A93AE
:10EB4000472F01D9B54B0A93032322682361013370
:10EB50009A43226012E0A06CE16CFFF715F9266879
:10EB600000280DD1AE4B0A93472F01D9AD4B0A9324
:10EB70000323311C2361013399432160002680E087
:10EB800080216068C900431C01D1062309E0A26C02
:10EB9000E36C672F01D0472F04D1002800D0C0E1DB
:10EBA0000123636063683143009323232160019153
:10EBB000002106AA9B1802930FAB039310AB059399
:10EBC0000497A26CE36C0691281CFFF7EDFE20234E
:10EBD0003A1C0A909A43472A07D10F9BDA1C02DBA2
:10EBE000626893422DDD023FFFB20F99652F12D864
:10EBF000201C01393A1C50300F91FFF739FF109A51
:10EC0000061C83182361012A02DC2268D2072ED554
:10EC1000013323612BE0662F14D16368002908DDDE
:10EC20002161002B02D12268D2071DD50133CB18F8
:10EC300011E0002B03D101222168114213D09A1C4C
:10EC400011E067270F9B1098834206DB226823613F
:10EC5000D20709D50133236106E00122002B01DC34
:10EC60000221CA1A8218226100260F9BA365232362
:10EC700006AA9B181B78002B03D0231C2D2243339C
:10EC80001A70099B281C0093211C089B11AA00F0F4
:10EC90005FF9431C02D10120404256E1226853052E
:10ECA00004D4281C08990A9A236916E1652F00D814
:10ECB000D4E0A06CE16C0022002304F06DFB00287E
:10ECC0002BD00123281C0899574A099EB047431CA2
:10ECD000E1D00F9B109A934207DB2368DB0704D433
:10ECE00023689B0700D51AE113E1099E281C0899A7
:10ECF0000B9A0C9BB0470026431CCCD0109B013BC9
:10ED00009E42EDDA221C0123281C08991A32099F21
:10ED1000B847431CBFD00136F0E70F9B002B2BDC1C
:10ED20000123281C0899404A099EB047431CB2D0D1
:10ED30000F9B002B05D1109B002B02D12368DB0712
:10ED4000CED5099E281C08990B9A0C9BB04700262B
:10ED5000431CA0D00F9B281C5B4208999E4208DAF6
:10ED6000221C01231A32099FB847431C93D0013655
:10ED7000F0E70A9A109BB0E0109BA66D9E4200DD62
:10ED80001E1C002E01DC002314E0331C281C0899F3
:10ED90000A9A099FB847431CF5D17CE7221C01233E
:10EDA000281C08991A32099FB847431C00D172E702
:10EDB0000D9B01330D93F343A26DDB170D99334087
:10EDC000D31A9942EADB0A9B9E180F9B109A934232
:10EDD0000EDB2368DB070BD4109B0A9AD7180F9A17
:10EDE000BF1B9B1A9F4200DD1F1C002F09DC11E096
:10EDF0000C9B281C08990B9A099FB847431CEBD120
:10EE000049E7321C3B1C281C0899099EB047431C4B
:10EE100000D140E7002315E01D63020021630200DA
:10EE2000256302002963020076630200221C01238D
:10EE3000281C08991A32099EB047431C00D12AE7C2
:10EE40000A9B01330A930F9A109B9A1AFB43DB1714
:10EE50003B40D31A0A9A9A42E8DB41E7109B281CF0
:10EE60000899012B02DC01231A423CD001230A9AA3
:10EE7000099FB847431C00D10DE70C9B281C08993B
:10EE80000B9A099FB847431C00D104E7A06CE16CC2
:10EE90000023002204F080FA0023002812D10A9AED
:10EEA000109B0132013B281C08991DE0221C012304
:10EEB000281C08991A32099FB847431C00D1EAE67A
:10EEC0000A9B01330A93109B0A9A013B9A42EDDB9D
:10EED000221C281C331C08995032099EB047431C41
:10EEE00000D0FDE6D7E60A9A099FB847431CEFD148
:10EEF000D1E6221C0123281C08991932099FB84722
:10EF0000431C00D1C7E60136E368119A9B1A9E4262
:10EF1000EFDB119BE068984217DA181C15E0002619
:10EF2000F2E73143216001912321009006A80918DE
:10EF300002910FA9039110A9059100210497069150
:10EF4000281CFFF731FD0A9047E613B0F0BDC0461C
:10EF5000F7B5171C01930A698B6800900C1C93424B
:10EF600000DA131C221C3B6043321278002A01D0C5
:10EF700001333B6023689B0602D53B6802333B604C
:10EF8000062523681D401ED0231C43331B785A1EC0
:10EF90009341226892061CD53020E1184031C87098
:10EFA000211C5A1C45310978A21840320233D17015
:10EFB0000FE0221C0123009801991932089EB047E6
:10EFC000431C0ED00135E3683A689B1A9D42F0DB82
:10EFD000DAE7221C009801994332089DA847431C98
:10EFE00002D10120404220E006232068E1683A680F
:10EFF00003400025042B03D18D1AEB43DB171D4082
:10F00000A3682269934201DD9B1AED180027AF42E5
:10F010000ADA221C0123009801991A32089EB0478F
:10F02000431CDED00137F2E70020FEBDF0B58BB007
:10F0300006920A1C43320793059004920A7E0C1C28
:10F04000109B6E2A00D1A8E011D8632A22D009D8DB
:10F05000002A00D1B2E0582A00D0C2E045310A703F
:10F060007C4A4FE0642A1DD0692A1BD0B9E0732A7C
:10F0700000D1A7E009D86F2A29D0702A00D0B0E0CB
:10F08000202209680A43226037E0752A1FD0782AB7
:10F0900033D0A6E00E1C1A684236111D19601368A1
:10F0A0003370A1E021681A68080606D4490604D521
:10F0B000111D19600023D55E02E0111D196015684D
:10F0C000002D3BDA2D23049A6D42137036E021683F
:10F0D0001A68080606D4490604D51568111D19607A
:10F0E000ADB202E0111D196015685A4B227E0393E0
:10F0F0000A276F2A1DD108271BE0221C78214532E0
:10F100001170554A19680392081D226818600D682D
:10F11000100602D4500600D5ADB2D30702D5202385
:10F120001A4322601027002D03D1202322689A431E
:10F130002260231C002243331A7002E00A27454B49
:10F1400003936368A360002B03DB042221689143CF
:10F150002160002D02D1049E002B0ED0049E281C9D
:10F16000391C04F00DF8039B013E5B5C281C3370D6
:10F17000391C03F07FFF051EF1D1082F09D1236848
:10F18000DB0706D563682269934202DC3023013E27
:10F190003370049B9B1B23612BE009681A680806E7
:10F1A00007D4490605D5111D19601368A28A1A8073
:10F1B00004E0111D1960136862691A600023049E3F
:10F1C000236116E01A68111D196016680021301CB1
:10F1D0006268FFF7AFF9002801D0801B60606368A8
:10F1E00003E0261C42363270012323610023049A77
:10F1F0001370079B05980093211C069B09AAFFF733
:10F20000A7FE431C02D10120404221E0236905985A
:10F210000699321C079DA847431CF4D023689B071E
:10F2200005D4099BE068984212DA181C10E000250A
:10F23000E368099A9B1A9D42F3DA221C0123059880
:10F2400006991932079EB047431CDCD00135EFE721
:10F250000BB0F0BD2D6302003E630200F0B5151C3B
:10F2600000228BB006938B6805925D320E1CFF3234
:10F27000591E0290914205D95E3BFF3B05935E23E8
:10F28000FF33B360F0233268DB0013433360331C79
:10F2900000241C331F1C04930394099408940094C5
:10F2A0000794B268002A00D1E1E02B681B78492B53
:10F2B00077D018D8392B0DD8312B42D22D2B49D0ED
:10F2C00002D82B2B46D0D2E02E2B00D18DE0302B54
:10F2D00025D0CCE0452B00D190E0462B79D0412BB6
:10F2E00000D0C4E058E0652B00D187E00AD8542B49
:10F2F00073D002D84E2B35D0B9E0592B71D0612B89
:10F300004AD0B4E06E2B2DD004D8662B61D0692B87
:10F3100047D0ACE0742B60D0792B62D0A7E0316885
:10F32000C8050ED580239943009B316001330093BB
:10F33000059B002B00D182E0013B01320593B260B6
:10F340007DE0039A1219002A00D090E0B34A316898
:10F350000A4005E0802132680A4200D187E08A43F2
:10F3600032606AE0039A002A0ED1009A002A0ED178
:10F370003168E022081CD2001040904207D1A84A10
:10F380000A403260012257E0039A022A53D0012C2E
:10F390001CD0042C1AD06AE0039A012A67D10222F9
:10F3A0004AE0002C0ED1009A002A63D13168E02295
:10F3B000081CD2001040904260D1994A01340A40A2
:10F3C00032603AE0FD21E21E0A4250D10134E4B23B
:10F3D00033E0022C4BD103242FE0062C47D1072425
:10F3E0002BE0072C43D1082427E031688A053ED55D
:10F3F0008C4A0A403260009A07921EE0A0228020C8
:10F400003168D2000A40C000824204D001422ED0AE
:10F41000009A002A32D08A0504D4009A07980997E6
:10F42000121A08927E4A0A40C02149000A433260FB
:10F430000022009201E0032203923B700137B3687F
:10F44000013BB3603369013333616B68013B6B602F
:10F45000002B03DD2B6801332B6022E7C0235B0008
:10F46000F3580298291C9847002800D119E7009BFF
:10F47000002B03D032686C4B13403360039B013B7D
:10F48000012B10D8049B9F420BD9BE23013F5B0088
:10F49000F358397802982A1C98473369013B336145
:10F4A000F0E70124B7E0631E062B2AD8022C19D9F5
:10F4B00005940397059B013BDBB20593022B0DD00E
:10F4C000039B0298013B03931978BE235B00F3581A
:10F4D0002A1C98473369013B3361EBE7033CE4B2F4
:10F4E0003F1B0EE0049B9F42DBD9BE23013F5B0024
:10F4F000F358397802982A1C98473369013B3361E5
:10F50000F0E73368DA052BD55B050ED5049B9F42E7
:10F51000C7D9BE23013F5B00F358397802982A1CF3
:10F5200098473369013B3361F0E733697C1E2178EA
:10F53000013B336165290CD045290AD0BE235B000D
:10F54000F35802982A1C98473369BC1E013B217866
:10F550003361BE235B00F35802982A1C9847271C8E
:10F56000102433681C4055D1C0233C703268DB0046
:10F5700013408022D200934206D1079A009B9B1A27
:10F580005A42002B0DD118E0089B002B15D0099B87
:10F59000221C591C02980A2301F090F9089B099F2C
:10F5A000C21A331C7033FF339F4202D3371C6F37AC
:10F5B000FF37381C1D4900F07FFA00220298049999
:10F5C00000F062FB069B3268009001911B68910776
:10F5D00001D4520708D506991A1D0A601B680099C4
:10F5E000019A19605A6011E006991A1D0A60009884
:10F5F00001991D68FEF7C8FB002802D100F058FAF7
:10F6000003E00098019906F0D7F82860F368013309
:10F61000F36000E00024201C0BB0F0BD7FFEFFFF74
:10F620007FF8FFFF7FFDFFFFFFFEFFFF4F6302003C
:10F63000F7B5151C8A6801900C1C002A06D18A694E
:10F64000511E8A41012152420A43A2602268D20619
:10F6500003D41A68111D196017680026A0690028D4
:10F660001DD123680136DB0603D42B681B783B7061
:10F6700001372A686B6801322A60A268013B013AAF
:10F680006B60A260002A1FD0002BE7DCC0235B0068
:10F69000E3580198291C98470028DFD014E001287E
:10F6A00008D12B6862691B78D35C002BD9D1002E5E
:10F6B00019D009E0022807D12B680B4A1B78126881
:10F6C000D3185B781B07CCD510232268134006D1D2
:10F6D000E2680132E260A269002A00D03B7000209B
:10F6E00023699E192661FEBD14280020F0B50C1C6C
:10F6F0008BB00193744B0490161C07AA23CB23C232
:10F70000724B0593A369032B01D0714B0593002223
:10F71000A36803925D32591EFF32914205D95E3BC8
:10F72000FF3B03935E23FF33A360231C1C33009332
:10F73000D023002722681B0113432360009B029300
:10F740003268BB00117807AA98580222FEF7F2FE31
:10F75000002839D0012F0DD16368002B06D1083362
:10F7600022686360F933FF3313432360594B2268E7
:10F7700013400DE0022F0CD1C02280212368D2005B
:10F780001A4089008A4222D110226260F03213436B
:10F790002360A3685A1EA260002B15D0029B5D1C3B
:10F7A00033685A1C32601B78029A02951370736892
:10F7B000013B7360002B07DCC0235B00E358049817
:10F7C000311C9847002844D10137032FB8D1636812
:10F7D000002B01D10A336360102100276368606940
:10F7E000C91A3D4BC91800F0A1F8029DA368002B6F
:10F7F00030D0326860691178405C00282AD0302906
:10F800000BD12168090508D5039A0137002A0BD0CE
:10F81000013A01330392A36006E021682F4B0B40AD
:10F82000236013782B7001357368013B7360002BE4
:10F8300003DD33680133336007E0C0235B00E35826
:10F840000498311C9847002804D1A368013BA360A9
:10F85000CCE700272368DB050ED5009B9D4207D926
:10F86000BE23013D5B002978E3580498321C984779
:10F87000009B01209D4225D0102223681A401AD1F6
:10F880002A70636804980099059EB047019B22681E
:10F890001B68910607D4D10705D501991A1D0A6086
:10F8A0001B68188004E001991A1D0A601B68186023
:10F8B000E3680133E3600020009BED1A2369ED1932
:10F8C0005D1925610BB0F0BD54630200BD08020054
:10F8D000DD090200FFFAFFFF60630200FFF6FFFF91
:10F8E00038B5051C0020074C2060081C111C1A1C90
:10F8F000FCF7F0FF431C03D12368002B00D02B60E2
:10F9000038BDC0464C2B002038B50023064C051CE2
:10F91000081C2360FCF774FF431C03D12368002BF1
:10F9200000D02B6038BDC0464C2B0020F0B50A78C3
:10F930005E2A02D04B1C002402E001244A788B1C72
:10F94000011C451CFF350C700131A942FBD1002A76
:10F9500001D1581E1CE001210C1BE7B28754197815
:10F960005E1C2D2906D05D290FD000290FD00A1C5E
:10F97000331CF2E75D785D2DF9D09542F7DB023359
:10F9800001328754AA42FBDBE9E7301C00E0181C77
:10F99000F0BD08B54A424A4180235200DB0000F026
:10F9A00001F808BDF7B51E1C3C4B041C1D680F1C5C
:10F9B0000192002D05D0AB69002B02D1281CFEF767
:10F9C000A9FB374B9C4201D16C6808E0354B9C4247
:10F9D00001D1AC6803E0344B9C4200D1EC68019B40
:10F9E000022B58D8002E56DB281C211CFEF710FBDA
:10F9F00000236360A361A3891B0603D5281C21692A
:10FA0000FCF7EBFE8322A3899343A381019B022B86
:10FA100013D0002F25D1002E01D18026F600301CF6
:10FA2000FEF774FD071E18D18020C000FEF76EFDA2
:10FA3000071E10D10120404200E000200222A389CD
:10FA40001343A3810023A360231C47332360236156
:10FA50000123636121E08026F6008022A3891343FD
:10FA6000A381019B012B05D1A389019A1A437342FB
:10FA7000A281A3610D4B0020AB62A28927602761A0
:10FA80006661130709D503231A40534253415B4271
:10FA90001E40A66001E001204042FEBD7828002003
:10FAA000A0620200C0620200E062020091E0010078
:10FAB000004870470000C07F0EB410B59DB002A989
:10FAC000029008610B48822488604861012040420E
:10FAD0001FABC881084804CBA400006801938C8147
:10FAE00002F0E0FF0023029A13701DB010BC08BCA6
:10FAF00003B01847FFFFFF7F782800200EB4812352
:10FB000070B59DB002AC21AD9B0040CDA3810290A9
:10FB1000069000F073F80B4B606063620023636330
:10FB2000A364013BE381084B6061211C1868321C0F
:10FB30002B1C019503F008F91DB070BC08BC03B084
:10FB40001847C04675FB01007828002038B50C1C0A
:10FB50000E25495F03F070FA002803DB636D1B1864
:10FB6000636503E0A289024B1340A38138BDC04600
:10FB7000FFEFFFFF00207047F8B51E1C8B89051CA6
:10FB80000C1C171CDB0505D50E23C95E00220223C1
:10FB900002F0F8FAA289054B281C1340A3813A1CF5
:10FBA0000E23E15E331C01F057F8F8BDFFEFFFFFB5
:10FBB00038B50C1C0E25495F02F0E4FAA389421CFB
:10FBC00003D1054A1340A38104E08022520113436C
:10FBD000A381606538BDC046FFEFFFFF08B50E2367
:10FBE000C95E01F0C1F808BD02780B78002A03D085
:10FBF000013001319A42F7D0D01A70470023C25C1D
:10FC00000133002AFBD1581E7047002330B59A42B9
:10FC10000DD0013AC45CCD5CAC4202D1934202D11A
:10FC2000251C631B03E00133002CF3D1F8E7181CFB
:10FC300030BD30B503680C780133002C0AD01A7837
:10FC4000151C413D192D00D820320131A242F2D0BD
:10FC5000002001E00360012030BD000070B5161CDB
:10FC60000D1C02F07BFD002E0BD06B226B005B0D98
:10FC7000D31A002B05DD034D1C050022631904F087
:10FC80008FFE70BD0000F03F0023F0B5A3B01E93BF
:10FC9000002600270B1C0390069119921D931D9BB3
:10FCA0001A780D2A05D8092A14D2002A00D1C3E1F6
:10FCB00012E02B2A06D02D2A02D0202A0CD109E0EE
:10FCC000012200E000220D925A1C1D925B78002B4D
:10FCD00004D1B1E10133E1E700230D9300221D9D22
:10FCE0000A922B78302B5DD16B78582B01D0782B72
:10FCF0004CD11EAB00930D9B039801931DA9C24AE2
:10FD00001FAB01F05EFF07240490044001D100F016
:10FD1000A7FD062C05D1002301351D950D9300F09C
:10FD20009FFD1E9A002A07D020A8352102F00AFE66
:10FD300003981E9902F072FA1F9B062C1CD8201CF7
:10FD400003F08EF9040A0714170A040000273E1C6A
:10FD500012E0209E219F0FE0AC4A21999B18AC4AEB
:10FD60001B050A401343209E1F1C05E0A94F0026D7
:10FD700002E00126A84F7642049B1B0701D400F045
:10FD80006FFD80231B061F4300F06AFD1D9B5A1C5C
:10FD90001D925B78302BF9D0002B01D100F060FD73
:10FDA00001230A931D9B0C9300230593079304934F
:10FDB0001D9C23781A1C303A0893D3B2092B12D811
:10FDC00004990A23082904DC07994B43D3180793A5
:10FDD00003E005994B43D3180593049B0134013389
:10FDE00004931D94E4E70398FEF734FB0568039839
:10FDF000FEF730FB0068FFF701FF291C021C201CE6
:10FE0000FFF703FF051E05D00020089B049C011C82
:10FE100008905AE00398FEF71DFB0068FFF7EEFE1E
:10FE20001D9B049A18181D900378101E41D1302B89
:10FE300005D11D9B01305A1C1D925B78F7E71A1CF7
:10FE4000313A082A3DD8011C0020041C1D9A0C924E
:10FE5000303B421C002B26D08918221C00198242FC
:10FE60000FD00132541E082C04DC0A24079D654380
:10FE70000795F4E7102AF2DC0A24059D65430595F1
:10FE8000EDE7541C082A06DC0A2207984243D318DF
:10FE90000793002207E00022102C04DC0A20059DB5
:10FEA0006843C31805931D9B581C1D905B78101C5C
:10FEB00002E0281C291C049C1A1C303A092AC7D9C4
:10FEC00001E00024211C0122089220221D1C9543E0
:10FED0000022452D57D1231C0A9D03432B439342F7
:10FEE00000D1A9E01D9B069301331D93069B5B780F
:10FEF0002B2B06D02D2B01D0099208E0012309936A
:10FF000000E00992069B02331D93069B9B781A1C06
:10FF1000303A092A34D8302B04D11D9B5A1C1D922B
:10FF20005B78F8E731256D42AC469C44654600227B
:10FF3000082D28D8303B0B931D9B0E9330256D4226
:10FF4000AC461D9B5A1C1D925B789C446546092D4E
:10FF500006D80A220B9D6A43D318303B0B93EDE77A
:10FF60000E9D521B151E2D4A9446082D03DC0B9A3C
:10FF7000624500DD6246099D002D04D0524202E038
:10FF8000069A1D920022002C61D10A9A104301D0DA
:10FF900000F066FC089A002A4ED14E2B1CD002DCE1
:10FFA000492B05D048E0692B02D06E2B14D043E0DA
:10FFB0001DA81B49FFF73DFE00283DD01D9B1DA835
:10FFC000013B18491D93FFF734FE002802D11D9B09
:10FFD00001331D930F4F2CE01DA81349FFF729FE95
:10FFE000002829D01D9B1B78282B21D11DA80F4943
:10FFF00020AA02F01CF805281AD1219B054A209E50
:020000022000DC
:100000001A43171C00F02CFCB863020033040000F4
:10001000FFFFEFFF0000F07FFFFFFF7F1F4E00009C
:1000200022630200CF6302002A6302007C630200A5
:10003000924F002600F014FC069B1D9300230D93A5
:10004000199B002B01D000F00EFC00F017FC531A96
:100050000993049B002B00D10494251E102D00DD74
:100060001025079805F022FB061C0F1C092D15DD35
:100070002B1C834A093BDB00D3181A685B6804F029
:100080008FFC061C05980F1C05F010FB021C0B1CB6
:10009000301C391C03F01EFD061C0F1C0F2C37DC16
:1000A000099B002B00D1DBE324DD162B07DC744910
:1000B000DA008A18106851683B1C321C15E02523B1
:1000C000099A1B1B9A4223DC0F226D4D141BE3007F
:1000D000EB1818685968321C3B1C04F061FC099B42
:1000E0001C1BE4002D192A686B6804F059FC061CDF
:1000F0000F1CB5E3099B16330ADB099B301CDA00A1
:100100005F4B391C9A1A5368126804F00BF8EEE73B
:10011000099B651B5D19002D59DD0F232B400AD06B
:10012000574ADB00D31818685968321C3B1C04F08E
:1001300037FC061C0F1C0F239D4300D1B0E0263373
:10014000FF339D420EDD0023049305930B93089328
:1001500022230026039A4B4F13600B9BB34200D01F
:100160006AE37DE30023301C391C2D110593012D1A
:100170000EDDEB0707D5059BDA00434BD3181A6851
:100180005B6804F00DFC059B6D1001330593EEE7F1
:10019000061C3E4BCF18059BDA003B4B9B1818689A
:1001A0005968321C3B1C04F0FBFB364B0F1C0B4008
:1001B0003749061C8B42C6D836498B4203D90126E3
:1001C000354F76426CE0D4239B04FF1868E0002D85
:1001D00066D00F236D422B400AD0294ADB00D3188A
:1001E000301C1A685B68391C03F09CFF061C0F1C4E
:1001F0002D1155D01F2D05DD0023049305930B937E
:10020000089318E100230693EB0601D56A230693B1
:10021000391C301C214E002D08DDEB0703D5326858
:10022000736804F0BDFB6D100836F4E7069B061CEE
:100230000F1C002B19D06B224B005B0D081CD31A2E
:10024000002B12DD1F2B0CDD0026342B02DDDC27FA
:10025000BF040AE00122203B52429A401040071C92
:1002600003E0012252429A401640301C391C002201
:10027000002303F091F80028BED113E00000F8FF3E
:10028000E06302000000F07FA86402000000B0FC00
:100290000000A07C0000907CFFFFEF7F90630200D5
:1002A00000230693079B039800930C99049A231C40
:1002B00002F009F80B90002800D144E7099B099A45
:1002C0005B42D217134013930023049305930B9BB7
:1002D0000398596801F06AFF0890002800D137E7B9
:1002E0000B9B0B991B690C319A1C92000C300793E5
:1002F000FEF72BF91FAB009320AB01930398321C40
:100300003B1C0E960F9702F09FFA1E90002800D11A
:100310001EE70398012102F060F80590002800D143
:1003200016E70023099A0A93934200DA0A921F9B68
:10033000002B00DA89E0139A0A9CD518069A2099B6
:100340009B1A36225B18521AC84901208B4200DBE7
:1003500085E0C91A521A1F297BDC884000231890B7
:100360001293AB180793069BA418E418079BAB42A3
:1003700000DD2B1CA34200DD231C002B04DD079AAB
:10038000E41AD21A0792ED1A139B002B6BD1079B2C
:10039000002B00DD80E00A9B002B00D086E0002CC3
:1003A00000DD8DE0002D00DD94E003981E99089A91
:1003B00002F069F90490002800D1C9E60022C36860
:1003C0000599C2600C9302F043F9002800DB91E02C
:1003D0000C9B002B00D01AE2002E00D017E23B034A
:1003E00000D014E2D622A24BD2043B40934200D864
:1003F0000DE2049B5B690793002B75D00499039869
:10040000012202F0D3F80599049002F021F90028A6
:1004100000DCFCE1069A964B002A00D19AE01A1CF7
:10042000D6213A40C9048A4200DD93E0DC239B04D4
:100430009A4200DDEEE12223039A002613600B9B13
:100440000027002B00D0F7E10AE20A9A139DD41A84
:1004500074E78849CB1A011C9940129101E00023EE
:10046000129318907DE71A1C0398059902F04CF836
:100470000590031E00D16BE60398191C1E9A01F02B
:10048000B5FF0C90002800D162E603981E9901F098
:10049000C5FE0C9B1E937AE703981E99079A02F0FB
:1004A00085F81E90002800D075E751E6039808995A
:1004B0000A9A02F029F80890002800D06FE747E672
:1004C00003980899221C02F071F80890002800D0C7
:1004D00068E73DE6039805992A1C02F067F8059045
:1004E000002800D061E733E6049B1B690793012BCA
:1004F00084DC8CE1002864D10C9A3B03002A24D0D0
:100500005D4A391C1B0B93422DD1069A0138341CCD
:10051000031C002A0AD0D425554AED043A40AA42C9
:1005200004D86C33120D9A1A031C93409C421AD1C2
:10053000524B994202D1631C00D109E64C4B002674
:10054000194080235B03CF1861E1002B0BD1002EF3
:1005500009D15FE701264A4A3B409B18464A76424A
:100560001A43171C53E1129B002B03D03B4200D1CE
:100570004DE103E0189B334200D148E10C9B301C55
:10058000391C069A002B0AD0FFF768FB021C0B1CD3
:100590000E980F9903F09EFA061C0F1C37E1FFF727
:1005A0005DFB021C0B1C0E980F9904F093FC0022BB
:1005B0000023061C0F1C02F0EFFE002800D03AE7D3
:1005C00025E10498059902F093F980230022DB05C8
:1005D000041C0D1C02F0F0FE002836D00C9B002BF2
:1005E00002D00024274D0BE0002E02D13B0305D1A1
:1005F0000BE0012E02D1002F00D11CE70024224D78
:10060000002307931F4B0A9348E0201C291C00225B
:100610001C4B02F0C7FE002808D1201C291C002218
:100620001A4B04F0BDF907900A9103E00C9B079365
:10063000164B0A93802212069446079B1A930A9B34
:1006400063441B931A9C1B9D28E0104B201C291C03
:10065000002204F0A5F90C9B07900A91002B17D1FA
:1006600080231B06CB181490159315E003FCFFFFA5
:100670000000F07FE3FBFFFFFFFF0F00FFFFEF7FB6
:100680000000F0FF0000F03F0000F0BF0000E03F7E
:10069000079A0A9B14921593149C159D7A4B3B4024
:1006A0001293129A794B9A422BD10E9A0F9B109269
:1006B0001193774B301CFF18391C02F04FF8021CC5
:1006C0000B1C201C291C04F06BF9021C0B1C301C99
:1006D000391C03F0FFF96C4B6E4A061C0B40934229
:1006E0000BD96D4B119A9A4203D1109B013300D163
:1006F0002EE50126684F764278E0D4239B04CF187C
:1007000040E0069B002B2BD0D423129ADB049A42A4
:1007100026D807980A99614A614B02F04DFE0028DD
:1007200019D007980A9902F0AFFE002800D10130D5
:1007300004F0BCFF0C9B07900A91002B05D180238D
:100740001B06CB181690179303E0079A0A9B169284
:100750001793169C179DD623129ADB04EB189D1A4B
:100760000E980F9901F0FAFF021C0B1C201C291C8B
:1007700004F016F9021C0B1C0E980F9903F0AAF94D
:10078000061C0F1C069B0E97002B2FD13E4B129A76
:100790003B409A422AD10A99079804F015FF04F0C9
:1007A00049FF0B1C021C0A99079804F093FB0C9B51
:1007B000041C0D1C002B04D1002E02D10E9B1B0328
:1007C0000ED0201C291C374A374B02F0EBFD0028C5
:1007D00032D1201C291C354A354B02F0F7FD03E0CD
:1007E000304A344B02F0DEFD002825D103981E99D3
:1007F00001F014FD0398089901F010FD0398059984
:1008000001F00CFD0398049901F008FD5FE5069BDB
:10081000002B11D0284B301C119300231093391C4E
:10082000109A119B04F0BCF8061C0F1E04D100287E
:1008300002D12223039A136003981E9901F0EEFC63
:100840000398089901F0EAFC0398059901F0E6FC89
:1008500003980B9901F0E2FC0398049901F0DEFC87
:10086000199B002B02D0199B1D9A1A600D9B002B1F
:1008700004D080231B06321CFB1801E0321C3B1CF9
:10088000101C191C23B0F0BD0000F07F0000E07FB9
:100890000000B0FCFFFF9F7CFFFFEF7F0000C0FF68
:1008A000FFFFDF419535A094FFFFDF3F35E5AF3512
:1008B0000000E03FFFFFCF3F00005039F0B51E1CA5
:1008C000444B87B01B68059002930B1C0391019267
:1008D0001C78029A5D1C121950780822104001D031
:1008E0002B1CF5E72D2C04D19D1C5C780123009373
:1008F00004E000902B2C01D15C789D1C002E02D0CE
:10090000102E0AD160E0302C5CD120222B7893434A
:10091000582B52D110266C780235009F311C7B1E5B
:100920009F412D4BFF18381C02F02AFC381C049103
:10093000311C02F09FFB0022071C131C02990919AD
:100940004978480701D5303C07E00320084017D01C
:100950003721012800D02031641AB44210DA511C2A
:100960000BD0BB4207D802D1049A944203DC7343F4
:100970000122E31801E0012252422C780135DDE723
:10098000181C511C0BD10098059A431E9841124B1C
:10099000C01822231360019B002B0AD117E0009995
:1009A000002900D05842019B002B10D0039B002A45
:1009B00000D06B1E019A136009E03024002EACD1E8
:1009C0000826AAE70A26A8E7302CA6D19DE707B09B
:1009D000F0BDC04614280020FFFFFF7FF0B51E1CAD
:1009E0003E4B87B01B68171C02930B1C05900491AB
:1009F0001C78029A5D1C1219517808220A4001D015
:100A00002B1CF5E72D2C04D19D1C5C780123019350
:100A100004E001922B2C01D15C789D1C002E02D0A9
:100A2000102E0AD154E0302C50D120222B78934341
:100A3000582B46D110266C7802350120311C4042DB
:100A400002F018FB03900120311C404202F098FB99
:100A500000228C46131C029909194978480701D5D0
:100A6000303C07E00320084017D03721012800D090
:100A70002031641AB44210DA511C0BD0039A93420D
:100A800006D801D1644503DC73430122E31801E079
:100A9000012252422C780135DDE7181C511C04D18B
:100AA00022230599101C0B6003E00199002900D056
:100AB0005842002F0FD0049B002A00D06B1E3B60D1
:100AC00009E03024002EB8D10826B6E70A26B4E79C
:100AD000302CB2D1A9E707B0F0BDC04614280020E1
:100AE0000B1CF7B54D6B44330C1C9D421BD180266B
:100AF000F600311CFBF769FE002802D101204042BC
:100B000025E0231C6063A66346331A78104BC25459
:100B1000231C45331A780F4BC2542A780E4BC2540B
:100B2000C018206012E08E6B291C73001A1C019300
:100B3000FBF74FFE051EE1D08719381C291C321C1B
:100B4000FDF703FD019B27606563A3630020FEBDE5
:100B5000FF030000FE030000FD03000030B59BB062
:100B60000091049108496D4602910591012182246A
:100B70004942E981A4006946AC8101F093FF00235A
:100B8000009A13701BB030BDFFFFFF7F38B5051C06
:100B90000C1C131C034A291C1068221CFFF7DEFFE3
:100BA00038BDC0467828002070B5051C0E1C141CEA
:100BB000002804D08369002B01D1FDF7ABFA234B49
:100BC0009C4201D16C6808E0214B9C4201D1AC6889
:100BD00003E0204B9C4200D1EC68A369A360A38989
:100BE0001B070AD52369002B07D023682269F6B2B8
:100BF000981A636998420FDB08E0281C211C00F05A
:100C00003FF80028F1D0012040421DE0281C211CA3
:100C1000FDF7FEF90028F6D1A3680130013BA3607F
:100C200023685A1C22601E706369984205D0A3890C
:100C3000301CDB0708D50A2E06D1281C211CFDF725
:100C4000E7F90028DFD1301C70BDC046A062020069
:100C5000C0620200E062020038B5051C0020074CAB
:100C60002060081C111C1A1CFBF726FD431C03D135
:100C70002368002B00D02B6038BDC0464C2B0020D1
:100C8000354B70B51D68061C0C1C002D05D0AB69DA
:100C9000002B02D1281CFDF73DFA304B9C4201D1BC
:100CA0006C6808E02E4B9C4201D1AC6803E02D4BF0
:100CB0009C4200D1EC68A3899AB2110723D4D106D3
:100CC00007D409220120326037321343A381404206
:100CD00040E0530713D5616B002908D0231C44332F
:100CE000994202D0301CFBF778FD00236363242275
:100CF000A3899343A38100236360236923600822AF
:100D0000A3891343A3812369002B0BD1A023A289BC
:100D10009B00134080229200934203D0301C211C80
:100D2000FDF79CFB0123A289134005D00023A3609B
:100D300063695B42A36103E0910700D46369A36028
:100D400000202369834205D1130603D540231A43AB
:100D5000A281013870BDC04678280020A062020040
:100D6000C0620200E062020038B50023064C051C98
:100D7000081C2360FBF78AFC431C03D12368002B6B
:100D800000D02B6038BDC0464C2B0020F0B5036965
:100D90000C6989B00026A3427CDB0B1C013C143398
:100DA000A50003935B190493031C143301935D198D
:100DB000049B07911B680290591C2868059302F058
:100DC00059F9071EB74235D0039B01989C460596FA
:100DD000634604CB91B27943120C7A4371180E0C1E
:100DE0009C46B318069302881E0C059B89B2D21844
:100DF0000368521A190C6B461B8BCB1A11145B1823
:100E0000191492B21B041A43049B059104C0634554
:100E1000DED22B68002B0DD1231C019A043D954294
:100E200003D8029A1C1C136104E02A68002AF8D136
:100E3000013BF2E70298079901F00AFC002828DB41
:100E400000200199039A013720CA0B881818ABB209
:100E5000C31A08682D0C000C451B1E14AD1928146C
:100E60009BB22D042B4308C1049B9342ECD2019A00
:100E7000A300D3181A68002A0BD1019A043B9342AD
:100E800002D8029B1C6104E01A68002AF9D1013CD7
:100E9000F3E73E1C301C09B0F0BD0000F0B5161C95
:100EA0001F1C446A9BB00890239D06960797002C50
:100EB00008D11020FDF72AFB089B5862446084602B
:100EC0000460C460089B5B6A196800290BD05A68EB
:100ED000012393404A608B60089801F09FF900223B
:100EE000089B5B6A1A60079B002B05DA01232B60C5
:100EF0007B005B08079301E000232B60079CC64B37
:100F0000221C17931A409A4219D1C44B229A13609B
:100F1000069AC34B002A02D1240300D1C14B249A64
:100F2000181C002A01D100F0B6FDD978DA1C00297E
:100F300000D005322499181C0A6000F0ACFD069E12
:100F4000079F0022301C391C002302F025FA051EE1
:100F50000ED00123229A1360B34B249A181C002A46
:100F600001D100F098FDB14A24990A6000F093FD88
:100F700019AB009318AB01930898321C3B1C01F08D
:100F800063FC61000A90490D09D03803A84C000B9E
:100F90000443A848321C231C0E1816951CE0189B0D
:100FA000199A9E18A44B9E4209DBA44BF018069B8D
:100FB000C340181CA24B9B1B9C40204304E0A1484B
:100FC000069B801B8340181C04F070FB9E4C021C87
:100FD0000B190121013E1691101C191C00229B4B7C
:100FE00003F078FF9A4A9B4B03F0DAFC9A4A9B4B3A
:100FF00002F070FD041C301C0D1C04F01BFB984A11
:10100000984B03F0CDFC021C0B1C201C291C02F089
:1010100061FD041C0D1C04F0D7FA291C039000226A
:10102000201C002302F0BEF900280DD0039804F024
:1010300001FB021C0B1C201C291C02F0ADF94342D1
:101040004341039AD31A039301231393039B162B53
:1010500011D8854ADB00D31818685968069A079B8F
:1010600002F0B4F9002805D0039B013B0393002351
:10107000139300E01390189B9E1B00230D93013ED9
:101080000E9604D50E9B5B420D9300230E93039B9B
:10109000002B08DB039A0E9B944663440E930023B7
:1010A00012920F9307E00D9B039A9B1A0D935342E4
:1010B0000F9300231293209B0125092B27D8052B82
:1010C00002DD0025043B2093209B981E032823D893
:1010D00001F0C6FF020E0410002300E0012310936C
:1010E000219B002B21DC01230B9309931A1C1AE08E
:1010F000002300E00123039A10939446219B63444C
:101100000B9301330993002B12DC012310E0002321
:1011100010952093013B02E001231093023B002233
:101120000B9309931333219202E0219B0B930993B4
:10113000089A546A002262600432111C14319942E8
:1011400004D86168520001316160F6E7089861686F
:1011500001F02CF8089B20605B6A1B680C93099BCC
:101160000E2B00D988E1002D00D185E1069B079C5C
:1011700014931594039B002B30DD0F223A49134042
:10118000DB00CB185C681B6804930594039B022763
:101190001D11EB060AD514981599344B15401A6A9F
:1011A0005B6A02F0BFFF0690079101372F4C002DBC
:1011B0000DD0EB0708D5049805992268636803F001
:1011C000EFFB0490059101376D100834EFE70698A6
:1011D0000799049A059B02F0A5FF49E0039B0227AB
:1011E0005D42002D46D0149815990F231E4A2B40BE
:1011F000DB00D3181A685B6803F0D2FB1B4C2D117F
:10120000002D35D0EB0704D522686368013703F061
:10121000C7FB6D100834F3E70000F07F0F270000D4
:10122000D5630200CC63020076630200776302009C
:101230000000F03F01FCFFFFEFFBFFFF1204000086
:101240000EFCFFFFEEFBFFFF000010FE0000F83F6A
:1012500061436F63A787D23FB3C8608B288AC63FBC
:10126000FB799F501344D33FE0630200A86402005F
:1012700006900791139B002B1ED0069C079D002211
:10128000201C291CCE4B02F08DF8002814D0099B9D
:10129000002B11D00B9B002B00DCE9E0039B291CE9
:1012A000013B1193201C0022C64B03F079FB013750
:1012B000069007910B9D02E0039B099D1193381C3A
:1012C000069B079C0493059404F0B4F9049A059BCB
:1012D00003F066FB0022BC4B02F0FCFB069007917A
:1012E000069E079F079BB94A9C18002D1CD10498A5
:1012F00005990022B64B03F0EDFD321C231C04902F
:10130000059102F063F8002800D063E20498059983
:10131000321CB04E079CB4466444231C02F042F8D1
:10132000002800D04CE2A3E0AB4A6B1E1099DB0012
:10133000D31800294ED01A685B680020A74902F034
:10134000F1FE321C231C03F0C5FD049E059F0C9B7F
:10135000069007910493391C301C04F035F9041CE5
:1013600004F068F9021C0B1C301C391C03F0B2FDA0
:10137000049B303401330493013B1C70069A079B95
:10138000061C0F1C02F00EF8002800D061E3321C8E
:101390003B1C00208A4903F09DFD069A079B02F042
:1013A00001F8002800D0CDE0049B0C9A9B1AAB42B8
:1013B0005EDA069807990022824B03F0F1FA0022C8
:1013C000069007917F4B301C391C03F0E9FA061C8C
:1013D0000F1CC0E718685968321C231C03F0E0FAA0
:1013E000049E059F0C9C0690079163190493391C79
:1013F000301C04F0E9F8051C04F01CF90B1C021C5D
:10140000391C301C03F066FD3035049B2570013417
:10141000061C0F1CA34224D10022069807996F4B8B
:1014200002F058FB021C0B1C301C391C01F0CEFFD3
:10143000002800D086E0069A079B0020674903F049
:1014400049FD021C0B1C301C391C01F0ABFF0028AD
:101450000ED0049B013B1A78302A00D0F9E20493A5
:10146000F7E70022574B03F09BFA061C0F1CBEE760
:10147000149B159C06930794199B002B00DA86E0B9
:10148000039A0E2A00DD82E0D300534AD3181E6867
:101490005F68219B002B14DA099B002B11DC00D024
:1014A00090E1301C391C0022494B03F079FA069A6E
:1014B000079B01F095FF099F3E1C002800D083E1A7
:1014C0008CE10C9B069C079D0493321C3B1C201C4A
:1014D000291C02F027FE04F077F8069004F0AAF821
:1014E000321C3B1C03F05CFA021C0B1C201C291C48
:1014F00003F0F0FC0B1C0499021C069801310491C6
:101500003030013908700C980499091A0998814201
:101510002ED1101C191C02F0DDFA321C3B1C041CDD
:101520000D1C01F053FF002810D1201C291C321C77
:101530003B1C01F031FF002800D18CE2069BDB0749
:1015400004D488E2119B039300E00493049B013BC5
:101550001A78392A08D10C9A9342F6D1039B0133A9
:10156000039330231370131C1A7801321A7072E23D
:10157000101C191C0022134B03F012FA0022002346
:10158000041C0D1C01F008FF00289ED063E2109A95
:10159000002A44D0209A012A0BDC169A002A02D095
:1015A0000F4A9B1802E03623189A9B1A0F9D0D9C38
:1015B00029E0099B5D1E0F9BAB4213DB5D1B18E00E
:1015C0000000F03F0000244000001C400000C0FC70
:1015D000000014400000C07CE06302000000E03F17
:1015E000330400000F9B0F95EA1A0025129B9B18ED
:1015F0001293099B002B04DA0D9B099A9C1A002375
:1016000001E00D9C099B0D9A0898D2180D920E9A34
:101610000121D3180E9300F0E0FE061C02E00F9D9E
:101620000D9C109E002C0CD00E9B002B09DDA342BC
:1016300000DD231C0D9AE41AD21A0D920E9AD31AC9
:101640000E930F9B002B21DD109B002B18D0002D3B
:1016500010DD311C2A1C089800F056FF061C0A9A5F
:10166000311C089800F0C2FE071C0A99089800F087
:10167000D5FD0A970F9B5A1B08D008980A9902E0DB
:1016800008980A990F9A00F03FFF0A9008980121E4
:1016900000F0A3FE129B071C002B0ADD391C1A1C4C
:1016A000089800F031FF209B071C0025012B1BDC54
:1016B00003E0209B0025012B12DC0025069BAB429A
:1016C0000ED1079B1B03AB420AD1179B079A13420B
:1016D00006D00D9B013501330D930E9B01330E9304
:1016E000129B0120002B08D03B6903339B00FB18A1
:1016F000586800F028FE2023181A0E9BC0181F23DC
:10170000184009D001331B1A042B02DD1C23181AC0
:1017100003E0042B08D0181C1C300D9B24181B1848
:101720000D930E9B1B180E930D9B002B05DD089847
:101730000A991A1C00F03AFF0A900E9B002B05DD57
:10174000391C08981A1C00F031FF071C139B002B52
:101750001ED00A98391C00F07BFF002818DA039B82
:101760000898013B03930A9900230A2200F06FFDB9
:10177000109B0A90002B00D17FE1311C00230898B8
:101780000A2200F064FD0B9B061C002B3CDC7DE173
:10179000099B002B2EDC209B022B2BDD099B0B933E
:1017A0000B9B002B10D1391C0898052200F04FFD2F
:1017B000071C0A98391C00F04BFF00280EDC03E0E0
:1017C0002F1C00E000273E1C219BDB4303930C9B56
:1017D00004930CE02F1C2E1C119B03930C9B0C9A62
:1017E0000133049331231370039B01330393099650
:1017F00000261AE1109B002B04D1099B0B930C9D32
:101800000A9CD0E0099B0B93002C05DD311C089845
:10181000221C00F0CBFE061C0996002D12D0716828
:10182000089800F0C3FC311C041C33690C319A1C6D
:1018300092000C30FCF789FE0898211C012200F070
:10184000B5FE09900C9B0C9A0E930B9B0A9C013BD6
:10185000D3181093391C201CFFF798FA031C0F9023
:101860003033311C201C0D9300F0F2FE391C0B901C
:10187000099A089800F007FF01230493C368051C28
:10188000002B04D1201C291C00F0E2FE04900898D3
:10189000291C00F0C3FC049B209A134310D1069A24
:1018A000013313420CD10D980A9439283DD00B9B7B
:1018B000002B01DD0F9831300E9B013304933EE085
:1018C0000B9B002B05DA049B0D9D0A94002B09DC71
:1018D0001CE00B9D209B1D431ED10123069A134241
:1018E0001AD1F0E7211C0898012200F05FFE391C94
:1018F0000A9000F0ADFE002803DC07D10D9BDB074A
:1019000004D50D9B392B10D01D1C01350E9B0133C6
:1019100004930E9B1D7088E00E9B5D1C049B002BA6
:1019200010DD0D9B0A94392B06D10E9B0E9A0133C4
:1019300004933923137060E00D98049501300E9BD9
:10194000187072E06A463421521812780E9B049582
:101950001A70109A93423FD0211C0A220023089843
:1019600000F075FC099B041C311C08980A229E4259
:1019700005D1002300F06BFC061C09900AE000234F
:1019800000F065FC0999061C0A220898002300F063
:101990005EFC09900E955DE7211C08980A22002341
:1019A00000F055FC041C201C391CFFF7EFF9342211
:1019B0006B4630309B180D901B780B9A2B700C9B4C
:1019C0000135EB1A9342E7DB131E00DC0123099675
:1019D00000260C9AD3180493211C0898012200F0C9
:1019E000E5FD391C0A9000F033FE002805DC15D116
:1019F0000D9BDB0701D411E00493049B013B1A7893
:101A0000392A08D10C9A9342F6D1039B01330393F0
:101A10003123137009E001321A7006E0049B013B88
:101A20001A78302A01D10493F8E70898391C00F09D
:101A3000F5FB099B002B0ED0002E05D09E4203D053
:101A40000898311C00F0EAFB0898099900F0E6FBC1
:101A500001E0119B039308980A9900F0DFFB002333
:101A6000049A0C981370039B229A01331360249BF1
:101A7000002B10D0049A1A600DE00B9B002B00DDA8
:101A8000BDE6209B022B00DD8AE6B8E6209B022BF8
:101A900000DD85E6B8E61BB0F0BDC0460B7830B57A
:101AA000722B0ED0772B07D0612B0ED1822584208C
:101AB000AD00012340001BE0C0250123ED000820FC
:101AC00016E0002504202B1C12E0162303600020E2
