:020000021000EC
:10C0000000400020ADD00100E9D00100EBD00100DC
:10C010000000000000000000000000000000000020
:10C02000000000000000000000000000EDD0010052
:10C030000000000000000000EFD00100F1D001007E
:10C04000F3D00100F3D0010029D30100F3D00100A7
:10C05000F3D0010000000000F3D00100F3D0010094
:10C06000F3D00100F3D00100F3D00100F3D00100C0
:10C07000F3D00100F3D00100F3D00100F3D00100B0
:10C08000F3D0010005E10100F3D00100F3D001007D
:10C09000F3D00100F3D001006DC20100F3D0010024
:10C0A000F3D00100F3D00100000000000000000008
:10C0B0000000000000000000000000000000000080
:10C0C00010B5064C2378002B07D1054B002B02D06E
:10C0D000044800E000BF0123237010BDC4280020E5
:10C0E00000000000D46C020008B5084B002B03D000
:10C0F0000748084900E000BF07480368002B00D14B
:10C1000008BD064B002BFBD09847F9E70000000064
:10C11000D46C0200C8280020C428002000000000C1
:10C12000164B002B00D1144B9D46402292029A1AC6
:10C13000924600218B460F461348144A121A02F009
:10C14000D5FE0F4B002B00D098470E4B002B00D094
:10C1500098470020002104000D000D48002802D05F
:10C160000C4800E000BF02F003FE2000290000F0B0
:10C17000ABFE02F0FFFAC0460000080000400020BD
:10C1800000000000BDCE0100C4280020482B002084
:10C190000000000000000000BFF34F8F034A044B73
:10C1A000DA60BFF34F8FC046FDE7C0460400FA05D2
:10C1B00000ED00E051DF704761DF7047F0B5264BBE
:10C1C00085B01B78002B45D0244B254E1D68346864
:10C1D0006A42554162425441EDB2E4B20193002DEE
:10C1E00036D103A8FFF7E6FF05280CD0002804D0BD
:10C1F000291C2A1CFFF7D0FF06E0019B03981B684F
:10C200000093984700E00125002C1ED1154B03A98F
:10C210001B8801240B80144B1B68181C0093FFF72C
:10C22000CBFF071E052F0BD0002805D000210A1CCC
:10C23000FFF7B2FF002403E00098336898473C1CE6
:10C24000002DCCD0002CCAD004E0002D02D1C6E7CE
:10C25000002CDBD005B0F0BDE0280020E82800204D
:10C26000EC280020E2280020E428002008B5074B35
:10C270001B68002B07D09847002806D000210A1C15
:10C28000FFF78AFF01E0FFF799FF08BDF0280020C3
:10C2900000B583B00190019B064A1A600023002B71
:10C2A00003D0019B181C00F044FE019B181C03B036
:10C2B00000BDC046E065020000B583B00190019B5F
:10C2C000181CFFF7E5FF019B181C00F032FE019BD4
:10C2D000181C03B000BDC04600B583B00190081C17
:10C2E000111C6B460333021C1A706B4602330A1C86
:10C2F0001A7001996B46033300229A566B4602333B
:10C300001B785BB2081C111C1A1C01F0ADF8019BD4
:10C31000181C03B000BDC04600B583B00190019B5E
:10C32000181CFFF7B5FF019B181C03B000BDC046E9
:10C3300000B587B003900A1C0A236B441A8005AB32
:10C3400002221A700A236B441B88DAB205AB5A70BA
:10C35000039905AA00230093081C8021012301F002
:10C36000B7F807B000BDC04600B587B0039004AB76
:10C3700001221A70039905AA00230093081C80214A
:10C38000012301F0A5F8039905AA00230093081CD6
:10C390008021022301F0BDF805AB1B781B0299B286
:10C3A00005AB5B789AB216236B440A431A801623B6
:10C3B0006B4400229B5E9A1016236B441A8016234E
:10C3C0006B441B881BB2181C07B000BD00B587B0BA
:10C3D0000390039A00230093101C80210022012364
:10C3E00001F076F8039905AA00230093081C802128
:10C3F000022301F08EF805AB1B781B0299B205AB46
:10C400005B789AB216236B440A431A8016236B4456
:10C410001B881BB2181C07B000BDC04670B592B097
:10C420000390039B181CFFF79FFF031C181C09F0C7
:10C430007DFC031C0C1C10931194039B181CFFF72C
:10C44000C5FF031C181C09F071FC031C0C1C0E9387
:10C450000F940E980F990022914B08F01DFE031CBB
:10C460000C1C0E930F940E980F9900228D4B08F020
:10C47000D5F9031C0C1C0E930F94109811990022EF
:10C48000894B08F009FE031C0C1C109311941098A2
:10C490001199864A864B07F099FE031C0C1C1093D9
:10C4A000119410981199814A824B09F08FF8031C5E
:10C4B0000C1C0C930D940C980D997F4A7F4B08F03F
:10C4C000EBFD031C0C1C181C211C00227C4B07F0EC
:10C4D0007DFE031C0C1C1D1C261C0C980D99794A12
:10C4E000794B08F0D9FD031C0C1C181C211C0C9A5C
:10C4F0000D9B08F0D1FD031C0C1C281C311C1A1CC0
:10C50000231C07F063FE031C0C1C0A930B940A986F
:10C510000B996E4A6E4B08F0BFFD031C0C1C0A936E
:10C520000B940A980B9900226A4B08F077F9031CC8
:10C530000C1C0A930B940A980B990022654B08F087
:10C540006DF9031C0C1C0A930B940C980D99624A0C
:10C55000624B08F0A1FD031C0C1C181C211C604A36
:10C56000604B09F033F8031C0C1C1D1C261C0C9896
:10C570000D995D4A5D4B08F08FFD031C0C1C181CC7
:10C58000211C0C9A0D9B08F087FD031C0C1C281C19
:10C59000311C1A1C231C07F019FE031C0C1C0893E9
:10C5A00009940E980F99089A099B09F00FF8031C3B
:10C5B0000C1C1D1C261C0E980F99089A099B09F04B
:10C5C00005F8031C0C1C181C211C494A494B08F097
:10C5D00063FD031C0C1C009301940E980F99089A9C
:10C5E000099B08F0F3FF031C0C1C009801991A1C0E
:10C5F000231C08F051FD031C0C1C281C311C1A1CA8
:10C60000231C07F0E3FD031C0C1C069307941098F1
:10C610001199109A119B08F03FFD031C0C1C181C6B
:10C62000211C109A119B08F037FD031C0C1C181CD0
:10C63000211C109A119B08F02FFD031C0C1C1D1CC3
:10C64000261C069807990A9A0B9B08F0E7F8031C2A
:10C650000C1C281C311C1A1C231C07F0B7FD031CE2
:10C660000C1C181C211C01F0EFFE031C0C1C181CD8
:10C67000211C01F0E9FE031C0C1C04930594049892
:10C6800005990A4A0A4B08F0A1FF031C0C1C0493ED
:10C690000594049B059C181C211C12B070BDC0465B
:10C6A0000088634065CDCD410000A03F66666666A8
:10C6B0006612714066A2724079E9263108AC5C3F8F
:10C6C0000000F03FE446D3D15898F1BE9A99999969
:10C6D00099991940D0126341E43C73414320A3BEB1
:10C6E0004DB1B49D00D4FE3E75466524BDE2333E97
:10C6F000CDCCCCCCCCCC2A4000B583B00190081C6A
:10C70000111C6B460333021C1A706B4602330A1C61
:10C710001A70019B191D6B46033300229A566B4613
:10C7200002331B785BB2081C111C1A1C00F09CFE23
:10C73000019B181C03B000BD00B583B00190019BA4
:10C740000433181CFFF7A4FD019B181C03B000BDA7
:10C7500010B586B003900C1C101C191C0B236B44E5
:10C76000221C1A700A236B44021C1A7009236B44A2
:10C770000A1C1A7005AB06221A7005AB02225A7009
:10C78000039B191D05AA00230093081CAE21022358
:10C7900000F09EFE05AB09221A7009236B441B783A
:10C7A0001B01DAB209236B441B781343DBB2DAB204
:10C7B00005AB5A70039B191D05AA00230093081CA2
:10C7C000AE21022300F084FE05AB07221A7008ABED
:10C7D0001B789B00DAB20A236B441B781343DBB24D
:10C7E00040221343DAB205AB5A70039B191D05AA08
:10C7F00000230093081CAE21022300F069FE06B05E
:10C8000010BDC04600B587B0039005AB05221A7075
:10C81000039B191D05AA00230093081CAE210123C8
:10C8200000F056FE039B191D05AA00230093081C67
:10C83000AE21042300F06DFE05AB1B781B029AB2FB
:10C8400005AB5B789BB213439BB29AB2039B1A80F1
:10C8500005AB9B781B029AB205ABDB789BB2134306
:10C860009BB29AB2039B5A8007B000BD70B586B0E8
:10C87000039015236B4416221A70039B191D152271
:10C880006A4400230093081CAE21012300F020FE1F
:10C89000039B191D17226A4400230093081CAE2134
:10C8A000012300F036FE15236B4417221A70039BF8
:10C8B000191D15226A4400230093081CAE21012390
:10C8C00000F006FE039B191D16226A440023009304
:10C8D000081CAE21012300F01CFE16236B441B78BC
:10C8E000181C07F02BFC031C181C09F08DFA031C04
:10C8F0000C1C181C211C0022104B08F0CDFB031C43
:10C900000C1C1D1C261C17236B441B78DBB25BB26E
:10C91000181C09F00BFA031C0C1C281C311C1A1CD7
:10C92000231C07F053FC031C0C1C181C211C09F0D1
:10C93000BFFA031C181C06B070BDC0460000B03F13
:10C9400082B00190019B181C02B0704700B583B003
:10C950000190019B064A1A600023002B03D0019B23
:10C96000181C00F0E6FA019B181C03B000BDC0467D
:10C970006866020000B583B00190019B181CFFF7A8
:10C98000E5FF019B181C00F0D4FA019B181C03B0B2
:10C9900000BDC046F0B585B02E4AE1235B02101CF5
:10C9A000191C00F079FE2C4A2C4B101C191C00F0AD
:10C9B00001FF2B4A01230093101C022103220D23A7
:10C9C000FFF7C6FE274A80239B00101C191CFFF7A7
:10C9D000AFFC234B181CFFF715FF214B181CFFF76A
:10C9E00045FF021C204B1A601E4B181CFFF716FD5A
:10C9F000031C0C1C181C211C09F05AFA021C1B4BAE
:10CA00001A60174B1B881F1C174B1B68181C09F05A
:10CA1000FBF9051C0E1C154B1B68181C09F0F4F9DA
:10CA2000031C0C1C0C49124A0095019602930394B6
:10CA3000081C111C3A1C00F0BDFE074A0D4B101CCF
:10CA4000191C00F0B7FE0C4B1B68181C00F07EFF91
:10CA5000BFE7C046F4280020242900208463020098
:10CA60004829002064290020402900204429002072
:10CA700090630200B86302000428002000B583B070
:10CA80000190019B104A1A60019B104A1A63019B96
:10CA90000F4A5A63019B4833181CFFF751FF019B53
:10CAA0003033181C00F074FE019B181CFFF74EFF7A
:10CAB0000023002B03D0019B181C00F03AFA019BC5
:10CAC000181C03B000BDC046F865020018660200DD
:10CAD0005466020008B4024B9C46303808BC6047DC
:10CAE0007DCA010008B4024B9C46343808BC60473C
:10CAF0007DCA010000B583B00190019B181CFFF7AF
:10CB0000BDFF019B181C00F014FA019B181C03B018
:10CB100000BDC04608B4024B9C46303808BC604794
:10CB2000F5CA010008B4024B9C46343808BC604783
:10CB3000F5CA010000B583B001900091019B012B63
:10CB40002ED1009B174A93422AD1174B181C09215A
:10CB50000B22002300F03AFD1349144A144B081C21
:10CB6000111C1A1C01F0A5FB124B181C04210522F4
:10CB7000FFF7C2FD0F49104A0D4B081C111C1A1C6F
:10CB800001F097FB0D4B181C04210522FFF7A4FBB5
:10CB90000A490B4A064B081C111C1A1C01F089FBA0
:10CBA00003B000BDFFFF0000F42800207DCA010093
:10CBB000002800204829002039C7010064290020EE
:10CBC00019C3010008B5034B0120191CFFF7B2FF80
:10CBD00008BDC046FFFF000038B50023C356041C43
:10CBE0000D1C013304D106480649242200F0FEFD45
:10CBF0006368002D01D0E26800E02269136038BD4F
:10CC0000BF630200D763020000B599B068461321E4
:10CC100000F08BFE06A8132100F087FE0CA813215C
:10CC200000F083FE12A8132100F07FFE6846012168
:10CC3000FFF7D2FF06A80021FFF7CEFF0CA80021C6
:10CC4000FFF7CAFF12A80121FFF7C6FF962000F0E8
:10CC500089FE68460021FFF7BFFF06A80121FFF704
:10CC6000BBFF0CA80121FFF7B7FF12A80021FFF7B7
:10CC7000B3FF962000F076FED8E7000070B5051CE3
:10CC80000C1CA0B000F0D4FD291C6846221C04F046
:10CC900031FC051E03DC00F0F9FD20B070BD0A4B2D
:10CCA0000A4E1B68002B04D1301C09210B2200F016
:10CCB000B7FA00246B46301C195D013400F074FB98
:10CCC000AC42F7D1E7E7C0468C2A00203C2B00207D
:10CCD0000FB407B504A901C90191FFF7CFFF03B055
:10CCE00008BC04B018477047704770B5041C03684F
:10CCF0005B6A98472368201C1B6900210122984722
:10CD00002368061C421C04D1201C9B6A9847301CD7
:10CD100010E01B6900210222201C9847051C236893
:10CD2000311C1B690022201C98472368201C9B6A29
:10CD30009847281C70BD0000084B10B51B68002BDD
:10CD40000AD1074C0921201C0B2200F069FA962118
:10CD5000201C890100F0D8FA10BDC0468C2A0020A2
:10CD60003C2B002008B5031C0020022B0DDD0749D9
:10CD7000033B9B005A585850824204D01368101C41
:10CD80005B68984701E00120404208BD88290020E7
:10CD900070B50C1C151C022810DC0F4B1B68002BF7
:10CDA00001D1FFF7C9FF6619B44205D021780B48BD
:10CDB00000F0FAFA0134F7E7281C0BE00338084BBF
:10CDC0008000C058002803D003681B68984701E022
:10CDD0000120404270BDC0468C2A00203C2B002020
:10CDE0008829002010B50C1C02280BDC0C4B1B689A
:10CDF000002B01D1FFF7A0FF0A4800F0C7FA20700E
:10CE000001200BE00338084B8000C058002803D0F5
:10CE100003689B68984701E00120404210BDC0466E
:10CE20008C2A00203C2B00208829002008B5031CF8
:10CE30000120022B0BDD033B054A9B00985800287C
:10CE400003D00368DB68984701E00120404208BD39
:10CE50008829002008B5031C0020022B0BDD033BB2
:10CE600005489B001858002803D003681B699847A1
:10CE700001E00120404208BD8829002008B50228B1
:10CE800004D880239B014B60002005E001F06CFC7E
:10CE9000092303600120404208BD08B5012001F0CC
:10CEA00069FC08B502F070F808BD08B502F0C4F8D6
:10CEB00008BD08B502F022F808BD704708B5FFF7B5
:10CEC000FCFF08BD7047704708B5FFF7FCFFFFF790
:10CED000F9FFFFF75FFD08BD0C4910B50B68181886
:10CEE000EFF30882904205D30C220120084B404208
:10CEF0001A600AE0074A1268002A04D0064C246827
:10CF0000A2189042F0D20860181C10BD082800201A
:10CF1000442B002084290020882A002008B50028FE
:10CF200001D0FFF771FEFEE708B5002103F0E5F937
:10CF300008BD08B5002801D001F0A6FF08BD00001B
:10CF4000031C04CB10B5041C002A00D10360226826
:10CF50009A4204D003480449542200F047FC206858
:10CF600010BDC046A7640200BB64020038B50C4B7C
:10CF70000C4C08330360051C201CFFF7E1FF002365
:10CF8000201C094A9958A94201D1002199508022B8
:10CF9000043352009342F4D1FFF7D2FF281C38BD6E
:10CFA000106502007C29002088290020F0B585B09A
:10CFB00001913749051C03F0CBFA041E02D1FFF79B
:10CFC000BBFE61E0281C334903F0C2FA002803D1FC
:10CFD000FFF7B2FE012457E0281C2F4903F0B8FAEE
:10CFE000002803D1FFF7A8FE02244DE02B4E0024B9
:10CFF000301CFFF7A5FF301C294FA600F359002B6A
:10D0000005D00134402CF7D1FFF79AFF3AE0012315
:10D010005B42F351FFF794FF2B783A2B06D1281C83
:10D02000204902AA03F01EFA029826E002A8291C51
:10D0300000F0C8F902A800F011FA002801D1F0515F
:10D0400020E002A800F0F4F9002803D002A800F0C4
:10D05000F9F912E002A800F0E2F9051E01D1F05141
:10D0600010E0036802A89F6800F0CCF90E4A019B0B
:10D07000011C13401A1C281CB847094B0334985153
:10D08000002801D101246442201C05B0F0BDC04637
:10D090005264020004650200596402007C290020E9
:10D0A0008829002000650200FFFFFEFF0848026893
:10D0B00003210A4302600749074A084B9B1A03DD14
:10D0C000043BC858D050FBDC054880470548004762
:10D0D00024050040086D020000280020C42800201C
:10D0E000F5D0010021C10100FEE7FEE7FEE7FEE703
:10D0F000FEE7FEE7334A10B51378111C012B19D156
:10D10000314B1B681B0715D1304BE0241A68F02304
:10D11000101C184022420BD12D4A12681A4209D124
:10D120002C4A2D4B1A6080222C4B12021A6001E00F
:10D130003028F1D00B68DBB2012B0DD1224A1268E6
:10D14000120709D1F021214A12680A40402A03D16E
:10D150001F4A12680A422DD08022A32301210020F9
:10D16000D205DB00D1501E4B986091601D4A996832
:10D17000002925D1C831C046C046C046C046C04679
:10D18000C046C046C046C046C046C046C046C0466F
:10D19000C04601390029EED1013A002AE7D18021A9
:10D1A000A320C905C0000A5001328A609A68002A8B
:10D1B000FCD005E0C1228021D200C9058B50CBE70D
:10D1C00010BDC046E00F00F0E40F00F0E80F00F0E3
:10D1D000EC0F00F0DFFF07C004050040186C0040B2
:10D1E000FC00004088130000012310B50A4ADC004F
:10D1F000A458A14207DA013BDB00D3185A68016842
:10D20000064BCA5007E00133112BEFD18021026891
:10D21000024B4905D15010BD4465020024050000B1
:10D22000F7B50F1C01212F4BB9400360A023161C3A
:10D230002D4ADB05051C98580843985080209C58BF
:10D24000400004439C50294C1A59114319510121A3
:10D25000B1401A5902431A511A59281C8A431A51CB
:10D260001959234A0A4096211A518901FFF7BCFF38
:10D27000002204202B681F495A506C395850181C42
:10D280000121FC30996001901960C26001201A49A7
:10D29000404258500198026218481A500198006A9A
:10D2A0000128FBD16A60A1220730D20098505F505C
:10D2B0000A21083299501E517B1C03D0381C0739B3
:10D2C00000F094FB731C03D0301C032100F08EFB94
:10D2D00001220B4B291C1A600A48073201F0E9FDB4
:10D2E000F7BDC04600200040040500001405000002
:10D2F000FFFBFFFF6C0500000C0500001C05000093
:10D300008C2A00203C2B002008B59623DB00994294
:10D3100002DDFFF769FF04E09E210268014BC902AC
:10D32000D15008BD2405000008B5C1230D4A9B005B
:10D33000D158090603D50C49096A002908D1D358E8
:10D340005B070DD5084B0021DB68002B01D107E0FE
:10D350000121064B1868002802D0054B1B6898472E
:10D3600008BDC04600200040FC200040902A00205C
:10D37000942A0020034B1960436803499B005A50CC
:10D380007047C046942A0020902A002003681A1C87
:10D39000FC32D1680129FAD10021D160A322D20048
:10D3A0009858C0B27047000003681A1CFC32106A1B
:10D3B0000128FAD100201062014AC9B29950704781
:10D3C0001C050000002310B5036043600A78041CAC
:10D3D0002F2A15D14A789A4212D0481C191C206075
:10D3E00023681A782F2A02D10133236005E0002A2E
:10D3F00003D0013301312360F2E700F00BFF6060DE
:10D40000201C10BD0068704708B54368181E05D081
:10D4100000F0ACFE013843425841C0B208BD10B51F
:10D42000041CFFF7F1FF031E00D06368181C10BD39
:10D4300008B54368181E04D000F098FE43425841D6
:10D44000C0B208BD10B5041CFFF7F2FF031E03D0E5
:10D450006268131E00D0131F181C10BD4068431EC5
:10D460009841C0B270470000F8B5051C041C0F1CA1
:10D47000161C094B0021083308C5281C102201F096
:10D4800035FD064B281C6361391C321C00F046FB3D
:10D49000034B201C1C60F8BDD8650200A08601006B
:10D4A000982A002038B50368041C1B689847074D6C
:10D4B0002B68A34204D0201D616900F0E9FA2C60BA
:10D4C0002368201C5B68984738BDC046982A002016
:10D4D000F0B5051C85B01C1C0AAB1E7803680392CE
:10D4E0001B680F1C9847281CFFF7DCFF01235E40D8
:10D4F0000096231C391C039A281D00F0FDFB061C16
:10D500002B68281C5B689847A01B441EA04105B0EF
:10D51000F0BDF0B5051C85B01C1C0AAB1E78036875
:10D5200003921B680F1C9847281CFFF7BBFF0123C1
:10D530005E400096231C391C039A281D00F098FBBE
:10D54000061C2B68281C5B689847A01B441EA04142
:10D5500005B0F0BD08B50248FFF7F2FC08BDC046B3
:10D560009C2A002008B50248FFF7EAFC08BDC04627
:10D570009C2A00207047000008B4024B9C463038BB
:10D5800008BC604775D501007047000008B4024B25
:10D590009C46303808BC604789D5010008B500F0CA
:10D5A0008BF808BD08B4024B9C46303808BC604775
:10D5B0009DD5010008B500F084F808BD08B4024B01
:10D5C0009C46303808BC6047B5D5010038B5041C0E
:10D5D0001D1C00F025F8201C291C303000F0B6F886
:10D5E000054B201C1A1C083222601A1C6433283296
:10D5F0002263636338BDC046F06502007047704720
:10D6000008B5090142189369002B03D0111C506919
:10D610000C31984708BD08B50B68984708BD000055
:10D62000F7B50027041C194B0E1C0833151C01A963
:10D6300003604760876004220C30019701F039FCD9
:10D64000019B201C591E8B41114A5B421A4001A9C3
:10D65000A2611C300422019701F02BFC019B0C4AB3
:10D66000591E8B415B421A409623271D9B01381C93
:10D67000311CA262E3622A1CFFF7D2FD381C054967
:10D68000221CFFF777FE201CFEBDC046606602002C
:10D6900017D6010001D6010038B5041C0D1C036823
:10D6A0001B689847291C201DFFF72EFE2368E562A2
:10D6B0005B68201C984738BD08B50430FFF766FE4C
:10D6C00008BD10B50C1C0430FFF76EFE201C10BD09
:10D6D00000207047F8B50F1C0368051C5B6A8C18A6
:10D6E0003E1C9847A64209D001362B68721EDB6AA1
:10D6F0001178281C9847431CF4D1341C2B68281C33
:10D700009B6A9847E01BF8BDF8B50F1C0368051C21
:10D710005B6A8C183E1C9847B44209D02B68281CC1
:10D720001B6B9847431C02D030700136F4E7341C61
:10D730002B68281C9B6A9847E01BF8BD00207047A7
:10D740000020704700207047002070471FB5041C60
:10D7500000F0E6FC0B4B01A81A1C44336360002365
:10D760000832636122600849221C02F059FE074911
:10D7700001A801F033FA6061FFF7D6FB201C04B06A
:10D7800010BDC0467866020000650200C466020053
:10D79000074B10B51A1C041C083244330260436066
:10D7A000406901F055F8201C00F0CEFC201C10BD93
:10D7B000786602000EB477B5041C036807AD40CD4F
:10D7C0005B6A98476069019501F002F9311C019A82
:10D7D000606901F08FFD051C2368201C9B6A984737
:10D7E000281C7EBC08BC03B01847000070B5061C9E
:10D7F0000D1C141C00F01CF8311C2A1C0348231CAF
:10D80000FFF766FAFFF700FA70BDC046C766020070
:10D810000FB407B504A901C90191FFF72FFA012040
:10D8200000F0A8FFEFF31083012098437047000039
:10D8300038B5FFF7F7FF01256840C5B272B60E4C48
:10D840002368002B01D10D4B1D702368013304D1D7
:10D850000B480C493222FFF7C9FF2368002B06D082
:10D86000002D04D1084807493622FFF7BFFF23687F
:10D870000133236038BDC046A42A0020A82A002016
:10D88000F86602001E6702006367020010B50C4CC8
:10D890002368002B13D0FFF7C5FF002804D00948E8
:10D8A00009494722FFF7A2FF2368013B2360236851
:10D8B000002B04D1054B1B78002B00D162B610BDA4
:10D8C000A42A0020636702001E670200A82A002025
:10D8D00038B50023C356041C0D1C013304D106487F
:10D8E00006492422FFF782FF6368002D01D0E26819
:10D8F00000E02269136038BDBF630200D7630200F5
:10D9000070B50D1C041C161C00F034F86B1C0BD0F9
:10D91000201C311CFFF7DCFF201C012100F048F81F
:10D92000201C002100F03EF870BD08B50022FFF772
:10D93000E7FF08BD38B5041C00F054FB051C00F0DF
:10D9400051FB401BA042FAD338BD000008B5044982
:10D9500006F0A2FA06F0D2FBFFF7ECFF08BDC046C6
:10D960000024744908B5FA239B005843FFF7E2FFEF
:10D9700008BD000001704B1C0AD001238B4043609E
:10D98000044BC360044B0361044B4361044B83604D
:10D990007047C046080500500C05005010050050A7
:10D9A0001405005008B5007840B200F01FF808BD1B
:10D9B00038B50023C356051C0C1C013304D109489B
:10D9C00009492A22FFF712FF002C01D0012C07D1B0
:10D9D0000023A022EB56D205C133FF339B009C509D
:10D9E00038BDC046BF6302007767020038B5041C2B
:10D9F0000D1C431C04D10A480A491A22FFF7F6FEFF
:10DA0000A023A400DB05E018E0230C21DB00C258B2
:10DA1000AD008A43C250C2581543C55038BDC046F8
:10DA2000C4630200DE670200084B0068C150084B67
:10DA3000021CFC32116A002904D1013B002BF7D1F2
:10DA4000012001E0002010627047C0461C05000064
:10DA5000A186010010B50368002A03D080220220AD
:10DA60009200985001221A62084A1C1CFC34E0689B
:10DA7000002804D1013A002AF7D1012005E0002056
:10DA8000A322E060D2009B580B7010BDA18601005C
:10DA900010B50B4C02680B4BA14204DC0A498160B3
:10DAA000CC2149040AE0094CA14203DC0849816009
:10DAB000802102E007498160CD21C904D15010BD09
:10DAC0008FD0030024050000A08601007F1A060005
:10DAD00090D00300801A060070B5041C101CA0250D
:10DAE000C026C130FF30F600ED0580004651081C0D
:10DAF000C130FF3080004651A1252068ED00425121
:10DB0000054A8150191C201CFFF7C2FFA0230521E4
:10DB10002268DB00D15070BD0C050000F8B50F1C69
:10DB20002849161C0B78051CDBB20A1C012B07D1F7
:10DB30004C78F8B2844203D18878F1B2884215D08B
:10DB4000214908780B1C012807D14C78F8B284428F
:10DB500003D18878F1B2884214D01178002908D115
:10DB60000123F9B213705170F1B291706B73174CBD
:10DB700010E01A78002A09D101321A70FAB25A70EC
:10DB8000F2B29A700223124C6B7303E01148FFF754
:10DB90003FFE0024201C00F051F9221C0023FC321F
:10DBA0006E712F712C609362A022D200A3500A4A9A
:10DBB000281CA3500133A350391C321C074BFFF71C
:10DBC0008BFFF8BDA92A0020AD2A002000300040BC
:10DBD0000040004043680200FC0F0000A0860100E6
:10DBE000026808B5031C101C0021FC308162A020D3
:10DBF000C000115006481150013111500421052276
:10DC000059569A56181C9B68FFF766FF08BDC04618
:10DC1000FC0F0000036800211A1CFC3210B5916053
:10DC200001315961074B9168002904D1013B002B58
:10DC3000F9D1012004E000240473FFF7D1FF201C78
:10DC400010BDC046A1860100036810B5191CFC3147
:10DC50008A6A0020012A08D1044C1C5988625A6142
:10DC60000238A40701D40120404210BDC4040000C2
:10DC7000F7B50192B1221F1C03684910D2009950D8
:10DC80008021012289005A50191C0024061CFC31F5
:10DC9000CC601A607D1E019BAC4213DA1919301C4E
:10DCA0000022FFF7D7FE00280AD0301CFFF7CCFF78
:10DCB000071C301CFFF794FF251C002F1ADA18E010
:10DCC0000134E7E75919301C0122FFF7C3FE002891
:10DCD00003D0301CFFF784FF0CE0089B3D1C002B99
:10DCE00008D031680B1CFC339A68002AFAD0002255
:10DCF0009A603D1C281CFEBDF8B5171CB1221D1CE6
:10DD00000368D200491099508022002492009C5050
:10DD10000122061C9A60AC4211DA395D301CFFF713
:10DD200083FE002809D0301CFFF75AFF301CFFF794
:10DD30008BFF00280EDA041C0CE00134EBE7069B95
:10DD40002C1C002B06D0301CFFF764FF002801D0EC
:10DD500001246442201CF8BD82B00190C046C04638
:10DD6000C046C046C046C046C046C046C046C04683
:10DD7000C046C046C046C046019B013B0193002BF4
:10DD8000ECD102B070470000A023F0B5DB00C25810
:10DD900085B001920022A024C250E423E405DB00F8
:10DDA000E258051C0292234A0420E2500833E1584D
:10DDB0000391E250A1238022DB00D200E2508022B6
:10DDC0005200E250FFF7C8FFA223DB00E2585205E1
:10DDD00007D50122E35813241B0A134202D0012065
:10DDE00019E01324013C002C14D0A0268027124BEC
:10DDF000F6057F00F7500420FFF7AEFFA123DB00FC
:10DE0000F7500420FFF7A8FFA223DB00F3585B05BF
:10DE1000E8D5E4E7201CA023E4220299DB05D20028
:10DE20009950039908329950A023019ADB00EA50D7
:10DE300005B0F0BD0D0600000C050000A023E42194
:10DE4000154ADB05C90010B55A5008315A50031C59
:10DE50000022FC33DA601A62A12208230A21D200D0
:10DE600083500E4B041CC150CC210D4B4904C150B2
:10DE7000A2210C4B3934FF34C9005C500A491D3CC7
:10DE8000FF3C5C5001219950A0230522DB00C250C9
:10DE9000FFF77AFF10BDC0460C0600000C0500001D
:10DEA0002405000000F00140140500000A480B4959
:10DEB00082680B4B002A08D01A6801321A600022CF
:10DEC0008260D222022092008850064A1B6888583D
:10DED000190A1B0618437047FC100140001001404E
:10DEE000B82A0020040500002F23C046C046C046C3
:10DEF000C046C046C046C046C046C046C046C046F2
:10DF0000C046C046C046013B002BEED1704770476B
:10DF1000F8B5184B9A68002A0AD0174902200A68F7
:10DF200001320A6000229A60D2221449920088507D
:10DF30005B6C124C002B1BD000270E4B80255F64BE
:10DF4000D2236D029B00E5500D4B1B78BB420FD0D6
:10DF50000C4B1E68FFF7AAFF361ABE4208DC084BBE
:10DF60001F70C2239B00E5504033E55000F076F966
:10DF7000F8BDC046FC100140B82A00200010014046
:10DF8000BD2A0020B42A002038B5124C2378002B7B
:10DF90001ED1A121C420104AC9005350C1390233F7
:10DFA000FF395350443953500C4980000D580C4BE5
:10DFB0002B40C0252D022B430B5080230125913887
:10DFC0009B02FF380B500B601560FFF78DFF25702B
:10DFD00038BDC046BC2A00200010014000E100E02E
:10DFE000FF00FFFF08B5084B1B78002B01D1FFF79E
:10DFF000CBFFFFF75BFF054A002305F0CFFE490486
:10E00000C00B084308BDC046BC2A002040420F0098
:10E01000F8B5284B041C1B78002B01D1FFF7B4FF87
:10E02000FFF744FF244A002305F0B8FE4B04C00B61
:10E03000CF0B18430026221C0023802192197B411C
:10E040000906884205D9002C03DB002001211218A3
:10E050004B41D9030023540CD003184A21438018A4
:10E0600059410023144A05F079FE154D041C2B7804
:10E07000144E002B02D0336898421AD0FFF716FFD7
:10E08000201A022802DCFFF711FF841CA8212202BB
:10E090000D4B120AC9005A502A783460002A08D160
:10E0A00001322A708022F9395202FF395A5044391C
:10E0B0005A50F8BDBC2A002040420F003F420F00DA
:10E0C000BD2A0020B42A002000100140074B1A7816
:10E0D000002A09D08021C220054A4902800011503F
:10E0E0004030115000221A707047C046BD2A0020EF
:10E0F000001001400022024B9A605A647047C046EB
:10E10000FC10014005480168002901D0FFF7FFFE1F
:10E1100008B5FFF7FDFE08BDC046000044110140F0
:10E12000074B10B50022041C08C000F021F8054B75
:10E13000201C1A1C3C3308322260636010BDC046AC
:10E140001865020058680200074B10B51A1C041C21
:10E1500008323C3302604360043000F02BF8201C8E
:10E16000FEF704FF201C10BD58680200007B7047BA
:10E170000D4B70B508330360041C00230B4D436046
:10E18000A1600273281C0E1CFEF7DAFE281C002E6C
:10E1900004D0074B1A681C60626000E06660FEF7FE
:10E1A000CFFE201C70BDC046A0680200C42A00201B
:10E1B000C02A002038B5041C0E4B0F4D08330360F5
:10E1C000281CFEF7BDFEA368281C002B0DD00B4AAF
:10E1D0001368A34202D16368136006E05A68A24242
:10E1E00001D0131CFAE762685A60FEF7A9FE201CF2
:10E1F00038BDC046A0680200C42A0020C02A002002
:10E2000010B5041CFFF7D6FF201CFEF792FE201C61
:10E2100010BD0000F8B50F4D071C281C0E1CFEF7A2
:10E220008FFE0D4B1C68002C0FD0A06800280AD070
:10E23000391C321C02F09DF9002804D1A06802F0BC
:10E2400091F9B04201D06468EDE7281CFEF778FE32
:10E25000201CF8BDC42A0020C02A002008B50248AE
:10E2600000F004F808BDC046C468020038B5036871
:10E27000041CDB68984763685A682368002A02D147
:10E280009B68984714E05B681568984763682D1A87
:10E29000002D08DC5A68916859601B68002BEAD091
:10E2A00050689847E7E75A68216810680B699847F3
:10E2B00038BD08B5031C081C191C00F047FA08BD3E
:10E2C0000123244A1168194200D11360224A1168BF
:10E2D000194201D1012313600123204A1168194218
:10E2E00000D113601E4A1168194201D10123136045
:10E2F00001231C4A1168194200D113601A4A11689F
:10E30000194201D1012313600123184A11681942EF
:10E3100000D11360164A1168194201D1012313601C
:10E320000123144A1168194200D11360124A11687E
:10E33000194201D1012313600123104A11681942C7
:10E3400000D113600E4A1168194201D101231360F4
:10E350007047C046002B0020FC2A0020F82A00202D
:10E36000F42A0020F02A0020EC2A0020E82A0020CD
:10E37000E42A0020E02A0020DC2A0020D82A0020FD
:10E38000D42A00200123244A1168194200D11360C5
:10E39000224A1168194201D1012313600123204A46
:10E3A0001168194200D113601E4A1168194201D147
:10E3B0000123136001231C4A1168194200D1136024
:10E3C0001A4A1168194201D1012313600123184A26
:10E3D0001168194200D11360164A1168194201D11F
:10E3E000012313600123144A1168194200D11360FC
:10E3F000124A1168194201D1012313600123104A06
:10E400001168194200D113600E4A1168194201D1F6
:10E41000012313607047C046302B00202C2B0020B6
:10E42000282B0020242B0020202B00201C2B002038
:10E43000182B0020142B0020102B00200C2B002068
:10E44000082B0020042B0020F0B5474680B48CB088
:10E45000041C0D1C00F054F8274B061C98461B7832
:10E460000F1C5BB201330DD0201C291C00F03EF9BB
:10E47000002807D0201C291C0022002305F046FCA0
:10E48000002805D1301C391C0CB004BC9046F0BDEE
:10E4900001230293194B06940795039300230A93D3
:10E4A0004346049405951C78002C0FD100230024CA
:10E4B0000893099402A800F047F9002810D00A9B9D
:10E4C0000193002B11D1089E099FDBE7002000215A
:10E4D000021C0B1C06F0A2F908900991022CE9D14C
:10E4E00000F042F921230360E9E700F03DF90A9BBF
:10E4F00001930360E7E7C0460C280020CC680200C7
:10E50000F0B556464D4644465F46754BF0B40A1C7E
:10E510000E1C191C83B0051C041C3140994200D10B
:10E52000B7E0002E00DC93E0311500D1A0E06D4B88
:10E530001203CE188023120B5B031A43F30700D596
:10E5400077E0731052009846E30FD318802216210B
:10E550000027002564009203A818984202DC851861
:10E560001B1ABF18E00F5B0001391B18640052082A
:10E570000029F1D100220192944680221206202027
:10E58000924609E0AB4247D0E10F5B0001385B18CF
:10E590006400520800281ED0614689189D42F1DAB5
:10E5A0008E18B446CE0FF607A94656452ED05B1BF3
:10E5B0008C42AD416D425B1B641A01995B008B4636
:10E5C0009344594601380191E10F4D465B186400B0
:10E5D00052080028E0D1234330D1019B5B08424917
:10E5E0007A108C466244F90702D5802109060B4354
:10E5F00041460E05B1181D1C0E1C281C311C03B011
:10E600003CBC90469946A246AB46F0BD6646002EFD
:10E61000CDDB6E1CB146CAE7A14208D88E18B446BD
:10E62000CE0FF607564541D099460023C4E71D1C7E
:10E63000AAE7E30F5200D218640082E7019B01337E
:10E640003AD0019A01239446134063445B08C6E71D
:10E6500073005B080343D0D00021002E33D1E20ABF
:10E6600015396405002AFAD080235B031A4226D1AB
:10E67000802000234003520001330242FBD00125D9
:10E680002020ED1AC01A4919251CC5409C402A4378
:10E690004DE72A1C331C281C311C06F0FDFC2A1CEB
:10E6A000331C05F093FD051C0E1CA6E76646002EE4
:10E6B000AFDA0023A9467FE7013700238FE7202048
:10E6C00001250023DFE72A1C331C281C311C06F01F
:10E6D0007DFF021C0B1C06F0A1F8051C0E1C8CE72C
:10E6E0000000F07F01FCFFFF0000E03F0A1C031C5C
:10E6F000024330B50220002A00D130BD802212062C
:10E70000914216D00C4A04208C180C4A9442F4D939
:10E710000B4C0C199442F0D90A4A490049080320CD
:10E720009142EAD9064A00209142E6D15842584126
:10E73000E3E7002BE1D0EFE70000F0FFFFFFDF7F12
:10E740000000F07FFFFF0F0000207047054B10B561
:10E75000041C181E05D0131C02200A1C211C00E0FA
:10E7600000BF10BD00000000014B18687047C04694
:10E7700074280020084B10B5041C002B02D0002187
:10E7800000E000BF054B1868836A002B00D0984753
:10E79000201CFEF7C3FBC04600000000386A0200E0
:10E7A00070B5051C0C1E01D1002049E0002804D0E2
:10E7B0008369002B01D100F061F9224B9C4201D109
:10E7C0006C6808E0204B9C4201D1AC6803E01F4B11
:10E7D0009C4200D1EC680C22A35E002BE4D0281CE4
:10E7E000211C00F03FF8236B061C002B06D0281CD0
:10E7F000216A9847002801DA01267642A3891B0680
:10E8000003D5281C2169FEF754FB616B002908D051
:10E81000231C4433994202D0281CFEF74AFB0023F4
:10E820006363A16C002904D0281CFEF742FB00237F
:10E83000A36400F093F90023A38100F090F9301C49
:10E8400070BDC046D8690200F8690200186A02006B
:10E8500008B5034B011C1868FFF7A2FF08BDC046AE
:10E8600074280020F7B58A89051C0C1C13075ED498
:10E870004B68002B02DC0B6C002B1ADDE76A002FC3
:10E8800017D000232E682B6080235B011A4001D033
:10E89000626D15E0281C216A0123B847021C431C45
:10E8A0000ED12B68002B0BD01D2B01D0162B02D1C3
:10E8B0002E6000205EE04021A3890B43A38159E034
:10E8C000A3895B0706D56368D21A636B002B01D05E
:10E8D000236CD21A0023281C216AE76AB847A3894F
:10E8E000421C06D12A68002A03D01D2A01D0162A0C
:10E8F00019D10022626022692260DB0405D5431C25
:10E9000002D12B68002B00D16065616B2E6000295D
:10E91000CFD0231C4433994202D0281CFEF7C9FAF9
:10E920000020606326E040221343A38122E00F69A8
:10E93000002FBED00B680F60DB1B019300239207F2
:10E9400000D14B69A360019B002BB2DD281C216A1A
:10E950003A1C019BA66AB047002806DC4022012031
:10E96000A38940421343A38104E0019B3F181B1A73
:10E970000193E8E7FEBD000038B50B69051C0C1CCF
:10E98000002B01D100201CE0002804D08369002B5B
:10E9900001D100F073F80B4B9C4201D16C6808E088
:10E9A000094B9C4201D1AC6803E0084B9C4200D16A
:10E9B000EC680C22A35E002BE4D0281C211CFFF77E
:10E9C00051FF38BDD8690200F8690200186A0200D8
:10E9D00008B5011E05D1054B0549186800F0A6F9D8
:10E9E00003E0044B1868FFF7C7FF08BD386A020050
:10E9F00079E901007428002008B5024900F096F971
:10EA000008BDC04679E90100002310B5041C03606D
:10EA10004360836081814366C28103614361836196
:10EA2000191C08225C3000F061FA054B2462636215
:10EA3000044BA362044BE362044B236310BDC04646
:10EA4000B5040200E10402001905020045050200B8
:10EA500070B568254B1E5D430E1C291C7431FEF7F2
:10EA600020FA041E08D000212A1C016046600C30E8
:10EA7000A060683200F03AFA201C70BD836913B5BB
:10EA8000002B28D18364C3640365134B134A1B68AE
:10EA900082620193984201D101238361041C00F03A
:10EAA0001FF86060201C00F01BF8A060201C00F024
:10EAB00017F80421E06000226068FFF7A5FFA06856
:10EAC00009210122FFF7A0FFE06812210222FFF7CF
:10EAD0009BFF0123A36113BD386A0200F9E901001D
:10EAE000F8B51D4B061C1D68AB69002B02D1281C14
:10EAF000FFF7C4FF4835AC686B68013B05D40C22B6
:10EB0000A75E002F10D06834F7E72B68002B06D1E2
:10EB1000301C0421FFF79CFF2860002801D02D68DD
:10EB2000E9E70C23336016E00123201C5B42E381FC
:10EB30000233A38167662760A7606760276167610A
:10EB4000A7615C30391C082200F0D0F9201C6763F3
:10EB5000A763A764E764F8BD386A0200704770478E
:10EB6000F7B50F1C111C01AA051C03F04BFC061E77
:10EB700001D1002427E0281CFFF7B2FF041EF8D0C3
:10EB8000DB23281C391C019A5B0001F05DFB002887
:10EB900006DA0025FFF7E2FFA581FFF7E0FFE8E7CF
:10EBA0000A4BE08163620A4BA681A362094B24628F
:10EBB000E362094B2363F30505D5281C211C0022C1
:10EBC000022300F017F8201CFEBDC046B504020069
:10EBD000E1040200190502004505020008B5031C06
:10EBE0000A1C03490868191CFFF7BAFF08BDC04694
:10EBF0007428002008B500F001F808BDF7B5051C21
:10EC00000C1C01921E1C002804D08369002B01D12A
:10EC1000FFF734FF414B9C4201D16C6808E0404B48
:10EC20009C4201D1AC6803E03E4B9C4200D1EC68B1
:10EC30008422A38952001340934203D1281C211C33
:10EC4000FFF79AFEE36A0093002B01D11D3331E0F8
:10EC5000012E05D0022E31D01623002E2AD12DE010
:10EC6000281C211CFFF788FE8023A2895B011A4023
:10EC700001D0606D06E0331C281C216A009EB0475D
:10EC8000431C18D0A3895A0707D56368C01A636B61
:10EC9000002B0AD0236CC01A07E01B0705D5236898
:10ECA000002B02D022699B1AC018019B00261B185A
:10ECB000019303E02B6001277F422DE02369002BA5
:10ECC00003D1281C211C00F07DF8281C211CFFF713
:10ECD00053FE071EEFD1331C281C216A019A009EA7
:10ECE000B047431CE7D0616B002908D0231C443394
:10ECF000994202D0281CFEF7DCF800236363002150
:10ED0000201C2369A2892360074B61601340A38103
:10ED10005C30082200F0EAF8381CFEBDD869020019
:10ED2000F8690200186A0200DFF7FFFFF7B5041C5C
:10ED3000071C002601914834002C16D06368A56892
:10ED40000093009B013B00930DD4AB89012B08D9A4
:10ED50000E22AB5E013304D0381C291C019B98475E
:10ED600006436835EDE72468E6E7301CFEBD000089
:10ED70000E4B70B500251E1C0D4CE41AA410A542C4
:10ED800004D0AB00F35898470135F8E707F0EEFAE6
:10ED9000084B00251E1C084CE41AA410A54204D000
:10EDA000AB00F35898470135F8E770BDB028002054
:10EDB000B0280020B0280020C0280020004870475C
:10EDC00078280020F0B58B8991B09B0706D50B1CE5
:10EDD00047330B600B6101234B6145E00C1C0E2394
:10EDE000C95E061C002904DA8023A5891D4010D1C4
:10EDF0000CE001AA03F03EFB0028F5DBF023029DA6
:10EE00001B021D40194BED186B425D418027FF002E
:10EE100001E000254027301C391CFEF742F800288D
:10EE20000CD1A3899A051FD402221343A381231C6A
:10EE30004733236023610123636115E080220C4B7B
:10EE4000B362A38920601343A38120616761002D11
:10EE50000AD00E23E15E301C03F036FE002803D0FA
:10EE60000122A3891343A38111B0F0BD00E0FFFF8D
:10EE7000F9E9010008B5034B011C1868FEF711F809
:10EE800008BDC0467428002008B5034B011C186853
:10EE9000FEF70FF808BDC04674280020C9B28218DA
:10EEA000904204D003788B4202D00130F8E7002072
:10EEB0007047002310B5934203D0CC5CC454013397
:10EEC000F9E710BD10B5814208D28B18984205D2DF
:10EED0009B1A013A09D3995C8154FAE700239342C3
:10EEE00003D0CC5CC4540133F9E710BD031C821875
:10EEF000934202D019700133FAE7704730B5002908
:10EF00003ED004390B68002B00DAC9181D4A13687B
:10EF1000141C002B02D14B60116031E099420DD2DC
:10EF200008680A189A4203D11368C3180B60536823
:10EF30004B60216024E08A4203D8131C5A68002ADF
:10EF4000F9D11D685C198C420BD1096869185818F1
:10EF50001960904214D110685268091819605A60FB
:10EF60000EE08C4202D90C23036009E008680C18FB
:10EF7000944203D114685268001908604A605960CD
:10EF800030BDC046382B0020032370B5CC1C9C43F9
:10EF90000834051C0C2C01D20C2405E0002C03DAEB
:10EFA0000C2300202B6042E08C42F9D3204A1368E6
:10EFB000101C191C002913D00A68121B0DD40B2A2F
:10EFC00002D90A608B181FE08B4202D15A68026096
:10EFD0001BE04A685A600B1C17E00B1C4968E9E704
:10EFE000144E3368002B03D1281C01F041F9306026
:10EFF000281C211C01F03CF9031C421CD0D0032228
:10F00000C61C964386420AD11C60181C07210B308F
:10F010001A1D8843821A0AD05142995007E0311ACA
:10F02000281C01F025F9431CBAD0331CECE770BD55
:10F03000382B0020342B0020F8B5061C0C1C151CA6
:10F04000002904D1111CFDF72CFF041C18E0002A34
:10F0500003D1FDF72EFF2C1C12E004F06CF9A8423E
:10F060000ED2301C291CFDF71CFF071E07D0211CE7
:10F070002A1CFFF71EFF301C211CFDF71AFF3C1C49
:10F08000201CF8BD936810B5013B9360002B05DA96
:10F090009469A34208DBCBB20A2B05D01368581C35
:10F0A00010601970C8B201E002F032FA10BDF8B574
:10F0B000061C0F1C141CD518AC4208D02178301C3B
:10F0C0003A1CFFF7DFFF0134431CF5D100E00020BC
:10F0D000F8BD0000F0B59FB0061C0F1C029205930E
:10F0E000002804D08369002B01D1FFF7C7FC794BBE
:10F0F0009F4201D1776808E0774B9F4201D1B76802
:10F1000003E0764B9F4200D1F768BB891B070AD505
:10F110003B69002B07D0002306AD6B6120336B7673
:10F120001033AB763DE0301C391C02F05DFA00284C
:10F13000F1D001204042CAE0059A111D12680591E4
:10F14000002A7EDB0992013423782E2B00D189E03E
:10F15000217863480322FFF7A1FE002808D0604B06
:10F160000134C01A40238340181C2B6818432860C0
:10F170002178631C5B48062202932976FFF78EFEF6
:10F18000002800D191E0584B002B00D084E00722EA
:10F19000059B07339343083305936B69039A9B18C8
:10F1A0006B61029C2378002B04D1029BE31A049329
:10F1B00011D003E0252BF8D00134F3E7049B301C79
:10F1C000391C029AFFF773FF431C7BD06A69049BCA
:10F1D000944663446B612378002B73D00122002393
:10F1E00052426A6002A95432521801342B60EB601B
:10F1F000AB601370AB6521783C480522FFF74EFEEB
:10F20000002809D0394B0134C01A01238340181C4F
:10F210002B6818432860EEE72B68DA0604D55322E2
:10F22000202102A8121811701A0704D553222B218D
:10F2300002A81218117022782A2A00D17CE7099BB3
:10F2400005E05242EA60022213432B607BE72278FA
:10F25000303A092A04D80A214B4301349B18F6E7B7
:10F26000099371E763782A2B09D1059B02341A1D93
:10F270001B680592002B0DDA01235B420AE0002394
:10F2800001342278303A092A04D80A214B43013448
:10F290009B18F6E707935BE705AB0093301C291C2E
:10F2A0003A1C134B00F0CAF807E005AB0093301C82
:10F2B000291C3A1C0E4B00F06DFB0390039B01339D
:10F2C00000D06AE7BB895B0600D532E70B981FB018
:10F2D000F0BDC046D8690200F8690200186A020051
:10F2E0004A6A02004E6A02003DF40100446A0200CC
:10F2F000AFF0010038B5051C0C1C131C034A291C77
:10F300001068221CFFF7E6FE38BDC04674280020B6
:10F31000F0B58BB0141C1D1E129906DA8024240649
:10F320002B191D1C141C2D2300E000230B7020231F
:10F33000149E03229E43462E07D0331C453B594260
:10F340004B411099013ACB181093109B00920193F6
:10F35000139B221C029308AB039309AB04932B1C51
:10F3600002F050FA071C472E02D1119BDB072CD567
:10F37000109BFB180793462E14D13B78302B0CD1F1
:10F38000201C291C0022002304F0BAFC002804D110
:10F390000123109A9B1A139A1360139B079A1B68F8
:10F3A000D3180793201C291C0022002304F0A8FC7A
:10F3B000002801D0079B0993099B079A934204D226
:10F3C0005A1C099230221A70F6E7381C099B159ACC
:10F3D000DB1B13600BB0F0BDF7B52B23071C0C1C17
:10F3E0000270861C002901DA2D234C427B70092C07
:10F3F0001CDD6B46DD1D201C0A2104F065FC013D6F
:10F4000030312970201C0A2104F078FB041E092CDD
:10F41000F1DC013D30342C706B460733301CAB42BD
:10F4200009D92B78013533700136F5E73023E4181C
:10F430003370B01C7470C01BFEBD0000F0B593B0FB
:10F440000C1C08920993189E051CFFF7B7FC036873
:10F45000181C0B9301F086F80023216810930C9080
:10F46000277E33680722C90501D59B1800E00733C2
:10F4700093431A1C083232601A685B68A264E36422
:10F48000A06CE16CFFF732F9012818D1A06CE16C97
:10F490000022002304F03AFC002803D0231C2D2274
:10F4A00043331A70B64B0A93472F01D9B54B0A93D1
:10F4B00003232268236101339A43226012E0A06C87
:10F4C000E16CFFF713F9266800280DD1AE4B0A93C3
:10F4D000472F01D9AD4B0A930323311C236101331C
:10F4E00099432160002680E080216068C900431CA8
:10F4F00001D1062309E0A26CE36C672F01D0472FEE
:10F5000004D1002800D0C0E1012363606368314367
:10F510000093232321600191002106AA9B180293E6
:10F520000FAB039310AB05930497A26CE36C0691A9
:10F53000281CFFF7EDFE20233A1C0A909A43472A25
:10F5400007D10F9BDA1C02DB626893422DDD023F7C
:10F55000FFB20F99652F12D8201C01393A1C503088
:10F560000F91FFF739FF109A061C83182361012AB7
:10F5700002DC2268D2072ED5013323612BE0662FEF
:10F5800014D16368002908DD2161002B02D12268B3
:10F59000D2071DD50133CB1811E0002B03D1012276
:10F5A0002168114213D09A1C11E067270F9B109815
:10F5B000834206DB22682361D20709D50133236128
:10F5C00006E00122002B01DC0221CA1A8218226106
:10F5D00000260F9BA365232306AA9B181B78002BEC
:10F5E00003D0231C2D2243331A70099B281C00933F
:10F5F000211C089B11AA00F05FF9431C02D10120D5
:10F60000404256E12268530504D4281C08990A9AFE
:10F61000236916E1652F00D8D4E0A06CE16C0022CC
:10F62000002304F06DFB00282BD00123281C08992F
:10F63000574A099EB047431CE1D00F9B109A934252
:10F6400007DB2368DB0704D423689B0700D51AE196
:10F6500013E1099E281C08990B9A0C9BB0470026C1
:10F66000431CCCD0109B013B9E42EDDA221C0123AF
:10F67000281C08991A32099FB847431CBFD001368D
:10F68000F0E70F9B002B2BDC0123281C0899404A34
:10F69000099EB047431CB2D00F9B002B05D1109B95
:10F6A000002B02D12368DB07CED5099E281C0899C0
:10F6B0000B9A0C9BB0470026431CA0D00F9B281C24
:10F6C0005B4208999E4208DA221C01231A32099FE4
:10F6D000B847431C93D00136F0E70A9A109BB0E07C
:10F6E000109BA66D9E4200DD1E1C002E01DC002337
:10F6F00014E0331C281C08990A9A099FB847431C38
:10F70000F5D17CE7221C0123281C08991A32099F95
:10F71000B847431C00D172E70D9B01330D93F343AF
:10F72000A26DDB170D993340D31A9942EADB0A9B8D
:10F730009E180F9B109A93420EDB2368DB070BD4B5
:10F74000109B0A9AD7180F9ABF1B9B1A9F4200DD85
:10F750001F1C002F09DC11E00C9B281C08990B9A38
:10F76000099FB847431CEBD149E7321C3B1C281CBE
:10F770000899099EB047431C00D140E7002315E0DB
:10F78000556A0200596A02005D6A0200616A02005D
:10F79000AE6A0200221C0123281C08991A32099E15
:10F7A000B047431C00D12AE70A9B01330A930F9A02
:10F7B000109B9A1AFB43DB173B40D31A0A9A9A42D2
:10F7C000E8DB41E7109B281C0899012B02DC012390
:10F7D0001A423CD001230A9A099FB847431C00D122
:10F7E0000DE70C9B281C08990B9A099FB847431CEE
:10F7F00000D104E7A06CE16C0023002204F080FA41
:10F800000023002812D10A9A109B0132013B281CC8
:10F8100008991DE0221C0123281C08991A32099F0F
:10F82000B847431C00D1EAE60A9B01330A93109BB8
:10F830000A9A013B9A42EDDB221C281C331C0899D2
:10F840005032099EB047431C00D0FDE6D7E60A9A25
:10F85000099FB847431CEFD1D1E6221C0123281C85
:10F8600008991932099FB847431C00D1C7E60136F1
:10F87000E368119A9B1A9E42EFDB119BE068984265
:10F8800017DA181C15E00026F2E7314321600191D8
:10F890002321009006A8091802910FA9039110A92D
:10F8A0000591002104970691281CFFF731FD0A906D
:10F8B00047E613B0F0BDC046F7B5171C01930A69BF
:10F8C0008B6800900C1C934200DA131C221C3B60D6
:10F8D00043321278002A01D001333B6023689B0633
:10F8E00002D53B6802333B60062523681D401ED0CD
:10F8F000231C43331B785A1E9341226892061CD561
:10F900003020E1184031C870211C5A1C453109785B
:10F91000A21840320233D1700FE0221C012300985C
:10F9200001991932089EB047431C0ED00135E36897
:10F930003A689B1A9D42F0DBDAE7221C0098019995
:10F940004332089DA847431C02D10120404220E0D9
:10F9500006232068E1683A6803400025042B03D1A0
:10F960008D1AEB43DB171D40A3682269934201DD2A
:10F970009B1AED180027AF420ADA221C01230098D7
:10F9800001991A32089EB047431CDED00137F2E7D6
:10F990000020FEBDF0B58BB006920A1C43320793DF
:10F9A000059004920A7E0C1C109B6E2A00D1A8E0E0
:10F9B00011D8632A22D009D8002A00D1B2E0582AEF
:10F9C00000D0C2E045310A707C4A4FE0642A1DD065
:10F9D000692A1BD0B9E0732A00D1A7E009D86F2AA1
:10F9E00029D0702A00D0B0E0202209680A432260A2
:10F9F00037E0752A1FD0782A33D0A6E00E1C1A688B
:10FA00004236111D196013683370A1E021681A682D
:10FA1000080606D4490604D5111D19600023D55ED9
:10FA200002E0111D19601568002D3BDA2D23049AA0
:10FA30006D42137036E021681A68080606D449063C
:10FA400004D51568111D1960ADB202E0111D1960D1
:10FA500015685A4B227E03930A276F2A1DD1082767
:10FA60001BE0221C782145321170554A1968039217
:10FA7000081D226818600D68100602D4500600D5D3
:10FA8000ADB2D30702D520231A4322601027002DE0
:10FA900003D1202322689A432260231C002243338F
:10FAA0001A7002E00A27454B03936368A360002B9A
:10FAB00003DB0422216891432160002D02D1049EC2
:10FAC000002B0ED0049E281C391C04F00DF8039B5B
:10FAD000013E5B5C281C3370391C03F07FFF051E60
:10FAE000F1D1082F09D12368DB0706D563682269A5
:10FAF000934202DC3023013E3370049B9B1B236145
:10FB00002BE009681A68080607D4490605D5111DB7
:10FB100019601368A28A1A8004E0111D1960136825
:10FB200062691A600023049E236116E01A68111DA1
:10FB3000196016680021301C6268FFF7AFF90028D1
:10FB400001D0801B6060636803E0261C423632707F
:10FB5000012323610023049A1370079B05980093E7
:10FB6000211C069B09AAFFF7A7FE431C02D1012016
:10FB7000404221E0236905980699321C079DA84759
:10FB8000431CF4D023689B0705D4099BE068984286
:10FB900012DA181C10E00025E368099A9B1A9D42AE
:10FBA000F3DA221C0123059806991932079EB04703
:10FBB000431CDCD00135EFE70BB0F0BD656A0200F5
:10FBC000766A0200F0B5151C00228BB006938B6894
:10FBD00005925D320E1CFF32591E0290914205D9EA
:10FBE0005E3BFF3B05935E23FF33B360F023326837
:10FBF000DB0013433360331C00241C331F1C0493AD
:10FC000003940994089400940794B268002A00D1E0
:10FC1000E1E02B681B78492B77D018D8392B0DD809
:10FC2000312B42D22D2B49D002D82B2B46D0D2E0FB
:10FC30002E2B00D18DE0302B25D0CCE0452B00D1F0
:10FC400090E0462B79D0412B00D0C4E058E0652BE2
:10FC500000D187E00AD8542B73D002D84E2B35D070
:10FC6000B9E0592B71D0612B4AD0B4E06E2B2DD066
:10FC700004D8662B61D0692B47D0ACE0742B60D0E0
:10FC8000792B62D0A7E03168C8050ED5802399434F
:10FC9000009B316001330093059B002B00D182E073
:10FCA000013B01320593B2607DE0039A1219002AEC
:10FCB00000D090E0B34A31680A4005E08021326804
:10FCC0000A4200D187E08A4332606AE0039A002A40
:10FCD0000ED1009A002A0ED13168E022081CD20011
:10FCE0001040904207D1A84A0A403260012257E0F2
:10FCF000039A022A53D0012C1CD0042C1AD06AE09B
:10FD0000039A012A67D102224AE0002C0ED1009A00
:10FD1000002A63D13168E022081CD20010409042D2
:10FD200060D1994A01340A4032603AE0FD21E21E76
:10FD30000A4250D10134E4B233E0022C4BD1032407
:10FD40002FE0062C47D107242BE0072C43D10824B1
:10FD500027E031688A053ED58C4A0A403260009A15
:10FD600007921EE0A02280203168D2000A40C00025
:10FD7000824204D001422ED0009A002A32D08A0555
:10FD800004D4009A07980997121A08927E4A0A40EA
:10FD9000C02149000A4332600022009201E00322A0
:10FDA00003923B700137B368013BB36033690133A1
:10FDB00033616B68013B6B60002B03DD2B68013303
:10FDC0002B6022E7C0235B00F3580298291C984758
:10FDD000002800D119E7009B002B03D032686C4B40
:10FDE00013403360039B013B012B10D8049B9F42BF
:10FDF0000BD9BE23013F5B00F358397802982A1CC7
:10FE000098473369013B3361F0E70124B7E0631E93
:10FE1000062B2AD8022C19D905940397059B013B80
:10FE2000DBB20593022B0DD0039B0298013B039399
:10FE30001978BE235B00F3582A1C98473369013BAD
:10FE40003361EBE7033CE4B23F1B0EE0049B9F42AF
:10FE5000DBD9BE23013F5B00F358397802982A1C96
:10FE600098473369013B3361F0E73368DA052BD5F6
:10FE70005B050ED5049B9F42C7D9BE23013F5B00A3
:10FE8000F358397802982A1C98473369013B33614B
:10FE9000F0E733697C1E2178013B336165290CD082
:10FEA00045290AD0BE235B00F35802982A1C9847C4
:10FEB0003369BC1E013B21783361BE235B00F358DC
:10FEC00002982A1C9847271C102433681C4055D1DF
:10FED000C0233C703268DB0013408022D200934282
:10FEE00006D1079A009B9B1A5A42002B0DD118E0AD
:10FEF000089B002B15D0099B221C591C02980A2331
:10FF000001F090F9089B099FC21A331C7033FF332C
:10FF10009F4202D3371C6F37FF37381C1D4900F052
:10FF20007FFA00220298049900F062FB069B326877
:10FF3000009001911B68910701D4520708D50699DA
:10FF40001A1D0A601B680099019A19605A6011E035
:10FF500006991A1D0A60009801991D68FEF7C6FBF4
:10FF6000002802D100F058FA03E00098019905F04A
:10FF70009FFF2860F3680133F36000E00024201C39
:10FF80000BB0F0BD7FFEFFFF7FF8FFFF7FFDFFFF9F
:10FF9000FFFEFFFF876A0200F7B5151C8A68019013
:10FFA0000C1C002A06D18A69511E8A410121524245
:10FFB0000A43A2602268D20603D41A68111D196090
:10FFC00017680026A06900281DD123680136DB06CA
:10FFD00003D42B681B783B7001372A686B680132A9
:10FFE0002A60A268013B013A6B60A260002A1FD020
:10FFF000002BE7DCC0235B00E3580198291C9847DD
:020000022000DC
:100000000028DFD014E0012808D12B6862691B7832
:10001000D35C002BD9D1002E19D009E0022807D1DA
:100020002B680B4A1B781268D3185B781B07CCD55A
:1000300010232268134006D1E2680132E260A2690F
:10004000002A00D03B70002023699E192661FEBD66
:1000500010280020F0B50C1C8BB00193744B049059
:10006000161C07AA23CB23C2724B0593A369032B4B
:1000700001D0714B05930022A36803925D32591E93
:10008000FF32914205D95E3BFF3B03935E23FF3372
:10009000A360231C1C330093D023002722681B017C
:1000A00013432360009B02933268BB00117807AAB8
:1000B00098580222FEF7F2FE002839D0012F0DD108
:1000C0006368002B06D1083322686360F933FF337D
:1000D00013432360594B226813400DE0022F0CD1CB
:1000E000C02280212368D2001A4089008A4222D18E
:1000F00010226260F03213432360A3685A1EA2608C
:10010000002B15D0029B5D1C33685A1C32601B7893
:10011000029A029513707368013B7360002B07DC31
:10012000C0235B00E3580498311C9847002844D151
:100130000137032FB8D16368002B01D10A33636004
:100140001021002763686069C91A3D4BC91800F087
:10015000A1F8029DA368002B30D032686069117845
:10016000405C00282AD030290BD12168090508D528
:10017000039A0137002A0BD0013A01330392A3609E
:1001800006E021682F4B0B40236013782B7001355C
:100190007368013B7360002B03DD33680133336008
:1001A00007E0C0235B00E3580498311C98470028FF
:1001B00004D1A368013BA360CCE700272368DB05DB
:1001C0000ED5009B9D4207D9BE23013D5B002978D7
:1001D000E3580498321C9847009B01209D4225D08B
:1001E000102223681A401AD12A7063680498009973
:1001F000059EB047019B22681B68910607D4D10772
:1002000005D501991A1D0A601B68188004E0019940
:100210001A1D0A601B681860E3680133E360002060
:10022000009BED1A2369ED195D1925610BB0F0BD36
:100230008C6A02002512020045130200FFFAFFFF3C
:10024000986A0200FFF6FFFF38B5051C0020074C36
:100250002060081C111C1A1CFCF7A8FE431C03D1CB
:100260002368002B00D02B6038BDC046442B0020F3
:1002700038B50023064C051C081C2360FCF72CFE37
:10028000431C03D12368002B00D02B6038BDC0462F
:10029000442B0020F0B50A785E2A02D04B1C0024C3
:1002A00002E001244A788B1C011C451CFF350C70B0
:1002B0000131A942FBD1002A01D1581E1CE00121C5
:1002C0000C1BE7B2875419785E1C2D2906D05D29D6
:1002D0000FD000290FD00A1C331CF2E75D785D2D8A
:1002E000F9D09542F7DB023301328754AA42FBDB97
:1002F000E9E7301C00E0181CF0BD08B54A424A414D
:1003000080235200DB0000F001F808BDF7B51E1C89
:100310003C4B041C1D680F1C0192002D05D0AB69DD
:10032000002B02D1281CFEF7A9FB374B9C4201D1C0
:100330006C6808E0354B9C4201D1AC6803E0344B5B
:100340009C4200D1EC68019B022B58D8002E56DB52
:10035000281C211CFEF710FB00236360A361A38906
:100360001B0603D5281C2169FCF7A3FD8322A38962
:100370009343A381019B022B13D0002F25D1002E84
:1003800001D18026F600301CFEF774FD071E18D13F
:100390008020C000FEF76EFD071E10D101204042F4
:1003A00000E000200222A3891343A3810023A3605D
:1003B000231C4733236023610123636121E08026EE
:1003C000F6008022A3891343A381019B012B05D151
:1003D000A389019A1A437342A281A3610D4B0020A5
:1003E000AB62A289276027616661130709D50323E1
:1003F0001A40534253415B421E40A66001E0012077
:100400004042FEBD74280020D8690200F86902004D
:10041000186A0200F9E90100004870470000C07F37
:100420000EB410B59DB002A9029008610B48822459
:1004300088604861012040421FABC881084804CB56
:10044000A400006801938C8102F0E0FF0023029A6F
:1004500013701DB010BC08BC03B01847FFFFFF7F2E
:10046000742800200EB4812370B59DB002AC21AD7C
:100470009B0040CDA3810290069000F073F80B4BD7
:100480006060636200236363A364013BE381084B04
:100490006061211C1868321C2B1C019503F008F9BF
:1004A0001DB070BC08BC03B01847C046DD04020094
:1004B0007428002038B50C1C0E25495F03F070FA33
:1004C000002803DB636D1B18636503E0A289024B00
:1004D0001340A38138BDC046FFEFFFFF00207047E7
:1004E000F8B51E1C8B89051C0C1C171CDB0505D5DB
:1004F0000E23C95E0022022302F0F8FAA289054BFE
:10050000281C1340A3813A1C0E23E15E331C01F02A
:1005100057F8F8BDFFEFFFFF38B50C1C0E25495FFB
:1005200002F0E4FAA389421C03D1054A1340A381D7
:1005300004E0802252011343A381606538BDC046A8
:10054000FFEFFFFF08B50E23C95E01F0C1F808BD3B
:1005500002780B78002A03D0013001319A42F7D09B
:10056000D01A70470023C25C0133002AFBD1581E09
:100570007047002330B59A420DD0013AC45CCD5C7F
:10058000AC4202D1934202D1251C631B03E001332C
:10059000002CF3D1F8E7181C30BD30B503680C7897
:1005A0000133002C0AD01A78151C413D192D00D8B2
:1005B00020320131A242F2D0002001E0036001208C
:1005C00030BD000070B5161C0D1C02F07BFD002E26
:1005D0000BD06B226B005B0DD31A002B05DD034D96
:1005E0001C050022631904F057FD70BD0000F03FA8
:1005F0000023F0B5A3B01E93002600270B1C039028
:10060000069119921D931D9B1A780D2A05D8092A67
:1006100014D2002A00D1C3E112E02B2A06D02D2AE1
:1006200002D0202A0CD109E0012200E000220D9224
:100630005A1C1D925B78002B04D1B1E10133E1E734
:1006400000230D9300221D9D0A922B78302B5DD143
:100650006B78582B01D0782B4CD11EAB00930D9B9F
:10066000039801931DA9C24A1FAB01F05EFF072446
:100670000490044001D100F0A7FD062C05D1002311
:1006800001351D950D9300F09FFD1E9A002A07D09D
:1006900020A8352102F00AFE03981E9902F072FA92
:1006A0001F9B062C1CD8201C03F08EF9040A07148B
:1006B000170A040000273E1C12E0209E219F0FE035
:1006C000AC4A21999B18AC4A1B050A401343209E53
:1006D0001F1C05E0A94F002602E00126A84F764224
:1006E000049B1B0701D400F06FFD80231B061F43F2
:1006F00000F06AFD1D9B5A1C1D925B78302BF9D0CF
:10070000002B01D100F060FD01230A931D9B0C9387
:1007100000230593079304931D9C23781A1C303AF9
:100720000893D3B2092B12D804990A23082904DCB0
:1007300007994B43D318079303E005994B43D3180C
:100740000593049B0134013304931D94E4E703985B
:10075000FEF734FB05680398FEF730FB0068FFF7EF
:1007600001FF291C021C201CFFF703FF051E05D0FA
:100770000020089B049C011C08905AE00398FEF797
:100780001DFB0068FFF7EEFE1D9B049A18181D90D4
:100790000378101E41D1302B05D11D9B01305A1C0E
:1007A0001D925B78F7E71A1C313A082A3DD8011CE4
:1007B0000020041C1D9A0C92303B421C002B26D0BA
:1007C0008918221C001982420FD00132541E082CB5
:1007D00004DC0A24079D65430795F4E7102AF2DC40
:1007E0000A24059D65430595EDE7541C082A06DC9F
:1007F0000A2207984243D3180793002207E00022F9
:10080000102C04DC0A20059D6843C31805931D9B2A
:10081000581C1D905B78101C02E0281C291C049CAD
:100820001A1C303A092AC7D901E00024211C0122F0
:10083000089220221D1C95430022452D57D1231CD0
:100840000A9D03432B43934200D1A9E01D9B0693CD
:1008500001331D93069B5B782B2B06D02D2B01D0EB
:10086000099208E00123099300E00992069B0233F4
:100870001D93069B9B781A1C303A092A34D8302BDA
:1008800004D11D9B5A1C1D925B78F8E731256D42FF
:10089000AC469C4465460022082D28D8303B0B937B
:1008A0001D9B0E9330256D42AC461D9B5A1C1D921C
:1008B0005B789C446546092D06D80A220B9D6A4345
:1008C000D318303B0B93EDE70E9D521B151E2D4A9E
:1008D0009446082D03DC0B9A624500DD6246099DB3
:1008E000002D04D0524202E0069A1D920022002CF4
:1008F00061D10A9A104301D000F066FC089A002AE0
:100900004ED14E2B1CD002DC492B05D048E0692B80
:1009100002D06E2B14D043E01DA81B49FFF73DFE0B
:1009200000283DD01D9B1DA8013B18491D93FFF7D2
:1009300034FE002802D11D9B01331D930F4F2CE084
:100940001DA81349FFF729FE002829D01D9B1B78FD
:10095000282B21D11DA80F4920AA02F01CF8052838
:100960001AD1219B054A209E1A43171C00F02CFC2B
:10097000F06A020033040000FFFFEFFF0000F07F89
:10098000FFFFFF7F1F4E00005A6A0200076B020044
:10099000626A0200B46A0200924F002600F014FC62
:1009A000069B1D9300230D93199B002B01D000F093
:1009B0000EFC00F017FC531A0993049B002B00D186
:1009C0000494251E102D00DD1025079805F0EAF986
:1009D000061C0F1C092D15DD2B1C834A093BDB006F
:1009E000D3181A685B6804F057FB061C05980F1CA7
:1009F00005F0D8F9021C0B1C301C391C03F0E6FB77
:100A0000061C0F1C0F2C37DC099B002B00D1DBE3ED
:100A100024DD162B07DC7449DA008A181068516847
:100A20003B1C321C15E02523099A1B1B9A4223DC30
:100A30000F226D4D141BE300EB1818685968321C27
:100A40003B1C04F029FB099B1C1BE4002D192A68A0
:100A50006B6804F021FB061C0F1CB5E3099B1633E1
:100A60000ADB099B301CDA005F4B391C9A1A536869
:100A7000126803F0D3FEEEE7099B651B5D19002D9C
:100A800059DD0F232B400AD0574ADB00D3181868D2
:100A90005968321C3B1C04F0FFFA061C0F1C0F2384
:100AA0009D4300D1B0E02633FF339D420EDD00238D
:100AB000049305930B93089322230026039A4B4F2C
:100AC00013600B9BB34200D06AE37DE30023301C2C
:100AD000391C2D110593012D0EDDEB0707D5059B64
:100AE000DA00434BD3181A685B6804F0D5FA059B0B
:100AF0006D1001330593EEE7061C3E4BCF18059BA6
:100B0000DA003B4B9B1818685968321C3B1C04F0F8
:100B1000C3FA364B0F1C0B403749061C8B42C6D814
:100B200036498B4203D90126354F76426CE0D423F7
:100B30009B04FF1868E0002D66D00F236D422B4008
:100B40000AD0294ADB00D318301C1A685B68391CAC
:100B500003F064FE061C0F1C2D1155D01F2D05DD62
:100B60000023049305930B93089318E10023069345
:100B7000EB0601D56A230693391C301C214E002D4B
:100B800008DDEB0703D53268736804F085FA6D1051
:100B90000836F4E7069B061C0F1C002B19D06B22AD
:100BA0004B005B0D081CD31A002B12DD1F2B0CDD34
:100BB0000026342B02DDDC27BF040AE00122203BA3
:100BC00052429A401040071C03E0012252429A40D0
:100BD0001640301C391C0022002303F091F8002835
:100BE000BED113E00000F8FF186B02000000F07F98
:100BF000E06B02000000B0FC0000A07C0000907CD4
:100C0000FFFFEF7FC86A020000230693079B03984B
:100C100000930C99049A231C02F009F80B90002809
:100C200000D144E7099B099A5B42D2171340139302
:100C30000023049305930B9B0398596801F06AFF06
:100C40000890002800D137E70B9B0B991B690C31EA
:100C50009A1C92000C300793FEF72BF91FAB009300
:100C600020AB01930398321C3B1C0E960F9702F0A9
:100C70009FFA1E90002800D11EE70398012102F080
:100C800060F80590002800D116E70023099A0A931E
:100C9000934200DA0A921F9B002B00DA89E0139A34
:100CA0000A9CD518069A20999B1A36225B18521A6C
:100CB000C84901208B4200DB85E0C91A521A1F295E
:100CC0007BDC8840002318901293AB180793069B97
:100CD000A418E418079BAB4200DD2B1CA34200DDE7
:100CE000231C002B04DD079AE41AD21A0792ED1A8E
:100CF000139B002B6BD1079B002B00DD80E00A9B30
:100D0000002B00D086E0002C00DD8DE0002D00DD02
:100D100094E003981E99089A02F069F9049000285B
:100D200000D1C9E60022C3680599C2600C9302F0A5
:100D300043F9002800DB91E00C9B002B00D01AE265
:100D4000002E00D017E23B0300D014E2D622A24BC3
:100D5000D2043B40934200D80DE2049B5B690793A9
:100D6000002B75D004990398012202F0D3F805995D
:100D7000049002F021F9002800DCFCE1069A964B71
:100D8000002A00D19AE01A1CD6213A40C9048A42AE
:100D900000DD93E0DC239B049A4200DDEEE1222398
:100DA000039A002613600B9B0027002B00D0F7E16D
:100DB0000AE20A9A139DD41A74E78849CB1A011CD7
:100DC0009940129101E00023129318907DE71A1CBC
:100DD0000398059902F04CF80590031E00D16BE6CC
:100DE0000398191C1E9A01F0B5FF0C90002800D141
:100DF00062E603981E9901F0C5FE0C9B1E937AE7EC
:100E000003981E99079A02F085F81E90002800D0DA
:100E100075E751E6039808990A9A02F029F80890B4
:100E2000002800D06FE747E603980899221C02F0DB
:100E300071F80890002800D068E73DE6039805990E
:100E40002A1C02F067F80590002800D061E733E61D
:100E5000049B1B690793012B84DC8CE1002864D17F
:100E60000C9A3B03002A24D05D4A391C1B0B934289
:100E70002DD1069A0138341C031C002A0AD0D4252F
:100E8000554AED043A40AA4204D86C33120D9A1A1E
:100E9000031C93409C421AD1524B994202D1631CCD
:100EA00000D109E64C4B0026194080235B03CF1884
:100EB00061E1002B0BD1002E09D15FE701264A4AE0
:100EC0003B409B18464A76421A43171C53E1129B3B
:100ED000002B03D03B4200D14DE103E0189B33428D
:100EE00000D148E10C9B301C391C069A002B0AD01B
:100EF000FFF768FB021C0B1C0E980F9903F066F9B4
:100F0000061C0F1C37E1FFF75DFB021C0B1C0E9843
:100F10000F9904F05BFB00220023061C0F1C02F05B
:100F2000EFFE002800D03AE725E10498059902F089
:100F300093F980230022DB05041C0D1C02F0F0FE57
:100F4000002836D00C9B002B02D00024274D0BE04C
:100F5000002E02D13B0305D10BE0012E02D1002F60
:100F600000D11CE70024224D002307931F4B0A9356
:100F700048E0201C291C00221C4B02F0C7FE002860
:100F800008D1201C291C00221A4B04F085F8079078
:100F90000A9103E00C9B0793164B0A9380221206DA
:100FA0009446079B1A930A9B63441B931A9C1B9DB0
:100FB00028E0104B201C291C002204F06DF80C9B2B
:100FC00007900A91002B17D180231B06CB18149091
:100FD000159315E003FCFFFF0000F07FE3FBFFFF2C
:100FE000FFFF0F00FFFFEF7F0000F0FF0000F03F6A
:100FF0000000F0BF0000E03F079A0A9B149215938F
:10100000149C159D7A4B3B401293129A794B9A424D
:101010002BD10E9A0F9B10921193774B301CFF1817
:10102000391C02F04FF8021C0B1C201C291C04F078
:1010300033F8021C0B1C301C391C03F0C7F86C4B36
:101040006E4A061C0B4093420BD96D4B119A9A4283
:1010500003D1109B013300D12EE50126684F764263
:1010600078E0D4239B04CF1840E0069B002B2BD0C4
:10107000D423129ADB049A4226D807980A99614A27
:10108000614B02F04DFE002819D007980A9902F032
:10109000AFFE002800D1013004F084FE0C9B0790C5
:1010A0000A91002B05D180231B06CB1816901793AD
:1010B00003E0079A0A9B16921793169C179DD62356
:1010C000129ADB04EB189D1A0E980F9901F0FAFFA3
:1010D000021C0B1C201C291C03F0DEFF021C0B1C35
:1010E0000E980F9903F072F8061C0F1C069B0E97C2
:1010F000002B2FD13E4B129A3B409A422AD10A999B
:10110000079804F0DDFD04F011FE0B1C021C0A9987
:10111000079804F05BFA0C9B041C0D1C002B04D1F7
:10112000002E02D10E9B1B030ED0201C291C374A17
:10113000374B02F0EBFD002832D1201C291C354A28
:10114000354B02F0F7FD03E0304A344B02F0DEFD90
:10115000002825D103981E9901F014FD03980899E1
:1011600001F010FD0398059901F00CFD0398049916
:1011700001F008FD5FE5069B002B11D0284B301CC9
:10118000119300231093391C109A119B03F084FFD4
:10119000061C0F1E04D1002802D12223039A1360DB
:1011A00003981E9901F0EEFC0398089901F0EAFCFF
:1011B0000398059901F0E6FC03980B9901F0E2FC15
:1011C0000398049901F0DEFC199B002B02D0199BB7
:1011D0001D9A1A600D9B002B04D080231B06321C25
:1011E000FB1801E0321C3B1C101C191C23B0F0BD85
:1011F0000000F07F0000E07F0000B0FCFFFF9F7C5C
:10120000FFFFEF7F0000C0FFFFFFDF419535A09497
:10121000FFFFDF3F35E5AF350000E03FFFFFCF3F89
:1012200000005039F0B51E1C444B87B01B68059078
:1012300002930B1C039101921C78029A5D1C1219F7
:1012400050780822104001D02B1CF5E72D2C04D13A
:101250009D1C5C780123009304E000902B2C01D1AD
:101260005C789D1C002E02D0102E0AD160E0302C3C
:101270005CD120222B789343582B52D110266C78C6
:101280000235009F311C7B1E9F412D4BFF18381CDF
:1012900002F02AFC381C0491311C02F09FFB002252
:1012A000071C131C029909194978480701D5303CDD
:1012B00007E00320084017D03721012800D0203153
:1012C000641AB44210DA511C0BD0BB4207D802D1C9
:1012D000049A944203DC73430122E31801E00122E3
:1012E00052422C780135DDE7181C511C0BD10098B7
:1012F000059A431E9841124BC01822231360019B8C
:10130000002B0AD117E00099002900D05842019B18
:10131000002B10D0039B002A00D06B1E019A136093
:1013200009E03024002EACD10826AAE70A26A8E757
:10133000302CA6D19DE707B0F0BDC0461028002094
:10134000FFFFFF7FF0B51E1C3E4B87B01B68171CCC
:1013500002930B1C059004911C78029A5D1C1219D3
:10136000517808220A4001D02B1CF5E72D2C04D11E
:101370009D1C5C780123019304E001922B2C01D188
:101380005C789D1C002E02D0102E0AD154E0302C27
:1013900050D120222B789343582B46D110266C78BD
:1013A00002350120311C404202F018FB039001205D
:1013B000311C404202F098FB00228C46131C02991B
:1013C00009194978480701D5303C07E00320084057
:1013D00017D03721012800D02031641AB44210DA26
:1013E000511C0BD0039A934206D801D1644503DC0B
:1013F00073430122E31801E0012252422C780135A7
:10140000DDE7181C511C04D122230599101C0B6028
:1014100003E00199002900D05842002F0FD0049B0F
:10142000002A00D06B1E3B6009E03024002EB8D1AA
:101430000826B6E70A26B4E7302CB2D1A9E707B0F0
:10144000F0BDC046102800200B1CF7B54D6B44338F
:101450000C1C9D421BD18026F600311CFBF721FDA0
:10146000002802D10120404225E0231C6063A663CE
:1014700046331A78104BC254231C45331A780F4B4D
:10148000C2542A780E4BC254C018206012E08E6BF2
:10149000291C73001A1C0193FBF707FD051EE1D000
:1014A0008719381C291C321CFDF703FD019B27609E
:1014B0006563A3630020FEBDFF030000FE03000080
:1014C000FD03000030B59BB00091049108496D46C2
:1014D00002910591012182244942E981A4006946D3
:1014E000AC8101F093FF0023009A13701BB030BD54
:1014F000FFFFFF7F38B5051C0C1C131C034A291C79
:101500001068221CFFF7DEFF38BDC046742800209B
:1015100070B5051C0E1C141C002804D08369002B18
:1015200001D1FDF7ABFA234B9C4201D16C6808E076
:10153000214B9C4201D1AC6803E0204B9C4200D17E
:10154000EC68A369A360A3891B070AD52369002B54
:1015500007D023682269F6B2981A636998420FDBB4
:1015600008E0281C211C00F03FF80028F1D00120E1
:1015700040421DE0281C211CFDF7FEF90028F6D191
:10158000A3680130013BA36023685A1C22601E70CF
:101590006369984205D0A389301CDB0708D50A2E61
:1015A00006D1281C211CFDF7E7F90028DFD1301CEB
:1015B00070BDC046D8690200F8690200186A0200CE
:1015C00038B5051C0020074C2060081C111C1A1C93
:1015D000FBF7DEFB431C03D12368002B00D02B60FC
:1015E00038BDC046442B0020354B70B51D68061C25
:1015F0000C1C002D05D0AB69002B02D1281CFDF777
:101600003DFA304B9C4201D16C6808E02E4B9C4265
:1016100001D1AC6803E02D4B9C4200D1EC68A3895A
:101620009AB2110723D4D10607D4092201203260CF
:1016300037321343A381404240E0530713D5616B17
:10164000002908D0231C4433994202D0301CFBF7F8
:1016500030FC002363632422A3899343A3810023E6
:101660006360236923600822A3891343A38123694C
:10167000002B0BD1A023A2899B0013408022920053
:10168000934203D0301C211CFDF79CFB0123A2894F
:10169000134005D00023A36063695B42A36103E0AC
:1016A000910700D46369A36000202369834205D1B8
:1016B000130603D540231A43A281013870BDC046EA
:1016C00074280020D8690200F8690200186A020034
:1016D00038B50023064C051C081C2360FBF742FBB1
:1016E000431C03D12368002B00D02B6038BDC046BB
:1016F000442B0020F0B503690C6989B00026A34291
:101700007CDB0B1C013C1433A50003935B19049391
:10171000031C143301935D19049B07911B6802900D
:10172000591C2868059302F059F9071EB74235D0B5
:10173000039B01989C460596634604CB91B279437E
:10174000120C7A4371180E0C9C46B318069302884B
:101750001E0C059B89B2D2180368521A190C6B46ED
:101760001B8BCB1A11145B18191492B21B041A4369
:10177000049B059104C06345DED22B68002B0DD17C
:10178000231C019A043D954203D8029A1C1C136144
:1017900004E02A68002AF8D1013BF2E70298079991
:1017A00001F00AFC002828DB00200199039A013788
:1017B00020CA0B881818ABB2C31A08682D0C000C8D
:1017C000451B1E14AD1928149BB22D042B4308C1D0
:1017D000049B9342ECD2019AA300D3181A68002A02
:1017E0000BD1019A043B934202D8029B1C6104E096
:1017F0001A68002AF9D1013CF3E73E1C301C09B0FD
:10180000F0BD0000F0B5161C1F1C446A9BB0089088
:10181000239D06960797002C08D11020FDF72AFB80
:10182000089B5862446084600460C460089B5B6AE3
:10183000196800290BD05A68012393404A608B60D5
:10184000089801F09FF90022089B5B6A1A60079BC9
:10185000002B05DA01232B607B005B08079301E076
:1018600000232B60079CC64B221C17931A409A42F8
:1018700019D1C44B229A1360069AC34B002A02D195
:10188000240300D1C14B249A181C002A01D100F076
:10189000B6FDD978DA1C002900D005322499181C2D
:1018A0000A6000F0ACFD069E079F0022301C391C28
:1018B000002302F025FA051E0ED00123229A1360A0
:1018C000B34B249A181C002A01D100F098FDB14AAC
:1018D00024990A6000F093FD19AB009318AB0193B3
:1018E0000898321C3B1C01F063FC61000A90490D12
:1018F00009D03803A84C000B0443A848321C231C11
:101900000E1816951CE0189B199A9E18A44B9E421F
:1019100009DBA44BF018069BC340181CA24B9B1B71
:101920009C40204304E0A148069B801B8340181C78
:1019300004F038FA9E4C021C0B190121013E16914D
:10194000101C191C00229B4B03F040FE9A4A9B4B33
:1019500003F0A2FB9A4A9B4B02F038FC041C301C9B
:101960000D1C04F0E3F9984A984B03F095FB021C18
:101970000B1C201C291C02F029FC041C0D1C04F06B
:101980009FF9291C03900022201C002302F0BEF9BD
:1019900000280DD0039804F0C9F9021C0B1C201C70
:1019A000291C02F0ADF943424341039AD31A039331
:1019B00001231393039B162B11D8854ADB00D31800
:1019C00018685968069A079B02F0B4F9002805D0F8
:1019D000039B013B03930023139300E01390189B98
:1019E0009E1B00230D93013E0E9604D50E9B5B4279
:1019F0000D9300230E93039B002B08DB039A0E9B91
:101A0000944663440E93002312920F9307E00D9BBC
:101A1000039A9B1A0D9353420F9300231293209B1A
:101A20000125092B27D8052B02DD0025043B209337
:101A3000209B981E032823D801F0C6FF020E041035
:101A4000002300E001231093219B002B21DC0123C4
:101A50000B9309931A1C1AE0002300E00123039A58
:101A600010939446219B63440B9301330993002BFD
:101A700012DC012310E0002310952093013B02E0CB
:101A800001231093023B00220B93099313332192FD
:101A900002E0219B0B930993089A546A002262602A
:101AA0000432111C1431994204D86168520001318A
:101AB0006160F6E70898616801F02CF8089B2060E7
:101AC0005B6A1B680C93099B0E2B00D988E1002DE3
