:020000021000EC
:10C000000040002081200200BD200200BF2002006D
:10C010000000000000000000000000000000000020
:10C02000000000000000000000000000C12002002D
:10C030000000000000000000C3200200C520020034
:10C04000C7200200C7200200DD220200C720020034
:10C05000C720020000000000C7200200C720020025
:10C06000C7200200C7200200C7200200C72002002C
:10C07000C7200200C7200200C7200200C72002001C
:10C08000C7200200E1290200C7200200C7200200E9
:10C09000C7200200A9C10100E1DA0100C7200200A7
:10C0A000C7200200C72002000000000000000000BE
:10C0B0000000000000000000000000000000000080
:10C0C00010B5064C2378002B07D1054B002B02D06E
:10C0D000044800E000BF0123237010BD8C2800201D
:10C0E00000000000744F020008B5084B002B03D07D
:10C0F0000748084900E000BF07480368002B00D14B
:10C1000008BD064B002BFBD09847F9E70000000064
:10C11000744F0200902800208C28002000000000AE
:10C12000164B002B00D1144B9D46402292029A1AC6
:10C13000924600218B460F461348144A121A06F005
:10C14000F6FC0F4B002B00D098470E4B002B00D075
:10C1500098470020002104000D000D48002802D05F
:10C160000C4800E000BF06F085FC2000290005F027
:10C1700045FF06F069FCC0460000080000400020B2
:10C1800000000000F11F02008C280020542C002029
:10C1900000000000000000002EDF704732DF704713
:10C1A00033DF70474CDF70470120054A08B513782C
:10C1B0005840044B10701B68002B00D0984708BDF6
:10C1C000AC280020A828002038B50C4B051C1520F1
:10C1D0000C1C1A60FFF7E2FF00280ED11530291C55
:10C1E000FFF7DEFF002808D11530FFF7D5FF002844
:10C1F00003D10330211CFFF7D5FF38BDA82800204C
:10C200007FDF704782DF7047A7DF7047A9DF704785
:10C21000AADF704700207047002070470020704759
:10C2200000207047002070470020704700207047B2
:10C23000F0B585B0041C0E1C02AA8178214801F0DB
:10C2400071FA00283CD10C2361781F4A4B43D31864
:10C250009B7A1E4F01925B0605D4022E03D01C4F21
:10C26000012E00D01B4F1C25A1781B4B694302A84F
:10C2700059182A1C0023B847002813D1022E1FD0BA
:10C280000C234021627802A85343019AD3189A7A6A
:10C290008A439A726178114B69432A1C59182B1CE6
:10C2A000B84701E0022E0BD00C23227802A853439A
:10C2B0000B4A211CD3189B7A0A4A9B009B5898472B
:10C2C00005B0F0BD38290020B0280020EDD70100CE
:10C2D00071D7010015C20100BC280020F4280020FD
:10C2E000282900205C460200F7B518220190437807
:10C2F00029485A4381184C68284F002C0FD00C2134
:10C3000059437918897A4DB2002D07DA490605D4C8
:10C31000151C0835A6B24519145802E00024261C45
:10C32000251C0C225343FB181889291C321C231C82
:10C33000FFF76CFF0B2818D10C22019B291C5B789E
:10C340005343FB181889321C0123FFF75FFF0028B5
:10C350000ED00C21019B124A5B784B43FF183889A1
:10C36000FFF752FF00280AD115E0002803D100E0B2
:10C370000124002000E00B48012C0CD1E9E7022247
:10C38000094BC318934303D0082801D0112801D1C9
:10C39000044800E00020FEBD10290020B028002045
:10C3A000FFFF000041800000FECFFFFF08B5FFF750
:10C3B0009BFF08BDF0B589B002AB9D1D0E230C227A
:10C3C000019000912B804B7804A95343224AD31843
:10C3D00018892A1C0323FFF71BFF002838D11826D1
:10C3E000009B1E4F58782A8870430830381804A9DB
:10C3F00006F085FB009B3C1C5B7800280DD10C22CD
:10C400005A4315498A18917A0222114020D1734368
:10C41000321CF81806F08BFB1AE05E43BE197268F6
:10C420000F4F002A00D10F4F182603227343E2500A
:10C430002A88E11808334A60E01804A906F06EFB68
:10C44000009B01985978321C714338236118B84712
:10C45000002009B0F0BDC046B028002010290020FF
:10C46000EDD7010071D7010008B5FFF7A3FF08BDA4
:10C4700070B51824031C4878094D60430E1C281819
:10C48000191C221C382301F0EFF9002806D173781B
:10C490005C432C196368013300D1606070BDC046F5
:10C4A0001029002008B5FFF7E3FF08BDF0B5464CA2
:10C4B00093B02468002C00D183E0189C542C00D940
:10C4C0007FE00025161CFF221C1C03AB5A709A70DB
:10C4D000DA701D70189B06AF009101903D700B94AF
:10C4E0000A93A9B2394804AA01F01CF9002809D11D
:10C4F000019804A9082206F002FB002802D103AB30
:10C500009D7003E0012D01D00125EAE703ADA97874
:10C51000FF2956D0009B032B0AD1189A06AB542A48
:10C5200001D1343A00E040221A701A7803213AE02F
:10C53000274BE31A372B10D8264B002E04D10122AB
:10C540008A40186810423CD001228A401968914301
:10C550002022196006AB1A701FE01F4BE31A1B2B39
:10C5600009D8202206AB1A7000236B700CAB0B931A
:10C5700018230A9311E01948241A172C21D83023C4
:10C580003B7000236B700133EB70154B997A0223DB
:10C59000194002D1182206F0CAFA009A06AB022A04
:10C5A0000CD101211A780A431A7009AB0793064B84
:10C5B000281C1B6806A9321C984702E01A78022141
:10C5C000F1E713B0F0BDC04628290020382900202B
:10C5D000BC28002034290020F42800201029002045
:10C5E000B028002070B51C2444430D4E051C3019A2
:10C5F000002134190622113006F099FA201C00217E
:10C60000102206F094FA0120FF23A840054A237463
:10C61000A376013BFF3B238313688343136070BD04
:10C62000BC2800203429002037B581B2051C6A4699
:10C63000074801F077F8041E08D16846542101F03C
:10C640005FF9041E02D1281CFFF7CCFF201C3EBD61
:10C6500038290020F0B585B0002859D001270025E1
:10C6600001262D4B041C2D487F421D605D729D727A
:10C67000291C0781C7720722867206F058FA291C06
:10C680001822274806F053FA281CFFF7ABFFFF23B8
:10C69000244D301C2B70FFF7A5FF6A4654236F70A2
:10C6A0009380214D523BD380204B6846291C009338
:10C6B00000F0D6FF2F1C00282BD11D4B24781E70B4
:10C6C0001E1C002C1AD1A1B2381C02AA01F02AF8B3
:10C6D000051E0CD11C22131C6343164802A9C01866
:10C6E0002B1C01F0C1F8002804D0357011E00023A4
:10C6F00033700EE0012C0CD00124E4E76B466A464F
:10C70000DB889188281C594389B201F0F9F800E0D0
:10C71000094805B0F0BDC04628290020B0280020F7
:10C7200010290020AD28002038290020ADC40100C8
:10C73000AF280020BC2800200E800000F8B5174B61
:10C740001B78002B24D0002824D0002922D00B688D
:10C75000002B1FD0124D2C68002C1DD1061C281C4C
:10C760000F1C08C00531052206F0D8F93B790220DC
:10C77000AB72012304212A7A9A4302438A432A7224
:10C78000EA79134303438B43EB71201C347004E0BC
:10C79000044802E0044800E00448F8BDAF28002047
:10C7A00028290020088000000E800000048000007E
:10C7B000154B1B78002B22D000281ED000291CD03E
:10C7C0000378002B1BD1114B1B68002B17D042782C
:10C7D000002A16D10E4B9B7A012B12D02420184030
:10C7E00003D00123101C0B700CE05BB2002B02DAAB
:10C7F00002230B7006E0087004E0064802E00648D9
:10C8000000E006487047C046AF28002028290020D5
:10C81000B02800200E80000008800000108000007A
:10C82000234BF0B51B78002B26D0002822D00029FE
:10C8300020D00B68002B1DD08B68002B1AD00378FA
:10C84000002B19D11B4A1268002A15D01A1C181C7B
:10C85000194D1035194CE67AB3420FD1A47AA407CA
:10C860000CD51C35012B01D00123F3E708710A73A5
:10C8700000201CE012481AE0124818E00C7BA2428B
:10C880000AD2AC7AE40707D42E1C8F689400103EBD
:10C89000E6510D4CA35401320C79A042E1D2AC7A9E
:10C8A000A407DED40E688400A5510130D9E7F0BD9D
:10C8B000AF28002028290020BC280020B028002014
:10C8C0000E80000008800000AD280020104B10B53D
:10C8D0001B78002B1AD0002816D00078002815D11C
:10C8E0000C4B1B68002B11D00B4B9A7E1C1CFF2A93
:10C8F00001D0FFF799FE231C36331B78FF2B06D09F
:10C900000120FFF791FE02E0044800E0044810BD5A
:10C91000AF28002028290020BC2800200E8000001D
:10C920000880000013B5041C81786A460B4800F0AB
:10C93000F9FE002810D11C236078094A5843694643
:10C9400010181A1C00F090FF064B074A9B7A6846A5
:10C950009B009B58211C984713BDC04638290020D6
:10C96000F4280020282900206C460200FF23F0B59F
:10C97000BF4A8FB012780393002A00D1B4E1BD4AB8
:10C9800011680192002900D1AEE104AC05AF6370DB
:10C99000A370E370031D7B602A2300223B81038880
:10C9A000061C2270B44D102B0AD0AA7A81889007F9
:10C9B00069D5B248814208D02889884263D104E011
:10C9C0000121AB7A0B4205D18EE1E97AA1700021F9
:10C9D000617058E0112362703B708388871D2B8142
:10C9E0000223281CAB720125391C072206F096F899
:10C9F000737D1D4006D0A24A5B08D35CFF2B35D067
:10CA0000039333E09F4E1036002F05D132899B4BA4
:10CA10009A4208D1039529E0301C391C072206F000
:10CA20006EF80028F6D01C36012D04D00125EBE766
:10CA3000F37903423FD10025019B05AE1B68201C02
:10CA4000311C2A1C98473378122B00D04CE18A48BD
:10CA5000837A012B00D147E101238372023B0381DA
:10CA6000C3720021072206F062F83DE10820824AE5
:10CA7000039B917ADBB20143D3729172201CA370A5
:10CA8000FFF750FFD7E7172B46D1012504201427C5
:10CA9000019B01995B7A8243AB434B72764B05A9AC
:10CAA0000F709A72B779191C002FC1D0D87AFFF78E
:10CAB000BBFDB579C0E7A378FF2BBCD008200243AB
:10CAC0008A72F27A920706D5143058436D4A1018CC
:10CAD000827EAA438276CA7AFF2AACD01C220878CA
:10CAE000684D5A43022809D0AD18281C072210307F
:10CAF00006F014F82A1CAB7E022106E06249AB184E
:10CB0000498A1A1C198301219B7E8B439376201C32
:10CB10000121FFF78DFB8EE7172B00D999E0132B2E
:10CB200054D113233B700F3B1A43EB7AAA72FF2BAD
:10CB300025D15448837EFF2B06D0031C36331B7847
:10CB40000125FF2B29D100E000254B4B1A781C232F
:10CB50006B43022A08D0C018FD2347498376072279
:10CB6000103005F0DBFF02E0FE22C3189A7603AB1B
:10CB70001D70039B404ADBB2A370D3720BE01623F7
:10CB800042480E22083000213B7005F0D0FF4022C1
:10CB9000AB7A1343AB72002500E03D4D0021364BCC
:10CBA0000B91DA7A1C235343364A0D91D3180C9318
:10CBB000354B09910893019B0A911A1DB08808AB67
:10CBC000FFF71EFB002800D136E78DE0142B25D19E
:10CBD000294B2C4FD97A0193FF2913D1F389398B33
:10CBE000994204D0B98E99420CD1012300E0002370
:10CBF000082103930A43DBB2EB72AA72201CA370D4
:10CC0000FFF790FE019B0021DB7AFF2B00D01E492D
:10CC1000B0883A1C0023FFF7F5FA65E0112B63D1C9
:10CC20000223111C9943A972120707D54BB2002B9E
:10CC30000BDA201C0021FFF7FBFA06E0A078FF28A2
:10CC400003D0FFF7CFFCFF23A3701023AB72023396
:10CC500002E01C2B02D113233B70ECE6522B1BD1BC
:10CC6000019B0C4A9B7A201C9B009B5898473BE0F9
:10CC7000AF28002028290020B0280020FFFF000056
:10CC8000AD280020BC280020F42800201029002016
:10CC9000438000004C460200182B25D1B379112B9C
:10CCA00014D1130712D511480E220830002105F0C7
:10CCB0003EFF162360223B70AB7A1343AB72019B9D
:10CCC0005E3A5B7A1343019A5372B4E680235B4267
:10CCD0001A4395333B70019BAA729B7A044A9B00CE
:10CCE0009B58201C9847A6E60FB0F0BD10290020E5
:10CCF0004C46020030B5002912D00A78002A11D122
:10CD00000A4B1B68002B0DD0FF23094C8B70258923
:10CD1000FA3B854207D14A70E37A8B70131C02E01C
:10CD2000044B00E0044B181C30BDC04628290020ED
:10CD3000B02800200E800000088000004DDF704702
:10CD400030B500230D1C141C8DB06946C21AD27B6D
:10CD50005A540133102BF8D1002104A80D2205F0FC
:10CD6000E6FE6A462B786846D3776B789377AB7884
:10CD70005377FFF7E3FF2F236B441B7823702E2399
:10CD80006B441B7863702D236B441B78A3700DB02C
:10CD900030BD30B50378041C85B00020022B17D1BC
:10CDA0000D1C0322611C01A805F0B8FE211D032201
:10CDB00003A805F0B3FE281C03A902AAFFF7C0FFD1
:10CDC00001A802A9032205F09AFE43425841C0B2CD
:10CDD00005B030BD08B5064B586980235B05421C81
:10CDE00004D0196989B206F0FDFA00E0586908BD5F
:10CDF0000010001029DF704728DF704708B5034B8B
:10CE0000034A1B789B009B58984708BD882900203F
:10CE1000904602000B1C37B50C24021C181C8968B4
:10CE2000054D4C432D6819780095044D0830645920
:10CE30001B69A04737BDC0469029002074290020F7
:10CE4000802252051169142208B50E4889B2037870
:10CE50005343C3181A69501EDA881B898018C018FA
:10CE600006F0C0FA084A031C126801209A4207D350
:10CE700000209A4204D1054B1B6858425841C0B269
:10CE800008BDC046402900206C29002070290020E0
:10CE900008B50823034A116899431160FFF7AEFFF4
:10CEA00008BDC04684290020094A08B5136819073F
:10CEB0000AD4990702D501210B4313600222054BC6
:10CEC0001A70FFF79BFF01E0FFF7E2FF08BDC046C5
:10CED000842900208829002008B5064B1B681B0701
:10CEE00005D40122044B1A70FFF788FF01E0FFF719
:10CEF000CFFF08BD842900208829002008B500281C
:10CF000014D0112805D10823094A11680B43136076
:10CF10000CE01423074A1178594351180431FFF7E4
:10CF200079FF0422044B1A7000F098F808BDC0463F
:10CF300084290020402900208929002008B5FFF716
:10CF400059FFFFF7DBFF08BDF8B51423144A80240E
:10CF5000167864055E439619371C331C2169F288E4
:10CF600089B23089083710330E4D8A420FD92169B2
:10CF7000266989B2521AB968401859688018891808
:10CF8000B2B29208FFF7DAFF23699BB206E0B968F4
:10CF9000920840185968FFF7D1FFF3882B60F8BD5D
:10CFA000402900209C29002038B580256D052C697A
:10CFB000084AA3B21468013C5C43FFF70BFF2B69DE
:10CFC000411E9BB25943044B201C1A68FFF7B6FF61
:10CFD00038BDC0466C29002098290020142270B565
:10CFE00080260E4976050B785343CB181A89DC88C6
:10CFF0001B69A4183169E418201C89B206F078FA7C
:10D000000D1CFFF7E7FE336901389BB25843044B10
:10D0100041191A68201CFFF791FF70BD40290020BC
:10D020007029002008B5FFF7D5FE8022520513694C
:10D0300001389BB25843054B116912691B6889B2CC
:10D0400092B259439208FFF779FF08BD6C2900207E
:10D0500008B5FFF7D1FEFFF751FF08BDF0B52C4B27
:10D0600085B01878032850D806F0B2F9020E114B9B
:10D070000023284A1360284A1360284B5B78002B52
:10D0800043D000F001F940E0FFF75EFF3DE0244CA3
:10D09000802723687F0501930123019A9A43142373
:10D0A000226002921D4A3969157889B25D4355198B
:10D0B0002B69181C039306F095F91A4B061C18608F
:10D0C000039B3969581EEB8889B2C01806F08AF9AB
:10D0D000864203D10223029A134303E00323019AF9
:10D0E0009A43131C2360104B1A68104B002A03D17B
:10D0F00021680232114200D000221A70FFF77EFE32
:10D1000003E0084B1868FFF7A3FF05B0F0BDC04669
:10D1100089290020942900209C29002040290020F2
:10D12000842900206C2900209829002088290020CB
:10D130001422F0B54E4985B00B7880255343CB18A7
:10D140001A1C083252686D0501920C220198296957
:10D15000424348481C6982185089168952687043B6
:10D1600082180292DA88444E03921F8989B2D31939
:10D170001B1900930023201C336006F0B9F92A1C08
:10D1800000290BD12B6903999BB2994209D0009BCE
:10D1900002998B4251D1002F5CD102E0019B022BFE
:10D1A00008D11169201C89B206F01CF9334B1860B4
:10D1B00003233CE02969381989B206F099F9304B0C
:10D1C00089081960029A009B296993422ED089B27E
:10D1D000009806F08DF9002928D080246B4664055C
:10D1E00021691F88236989B201936B46188906F06B
:10D1F000F9F86B46051C9988381C06F0F3F8ADB2B7
:10D2000080B2854207D16B466A461B8912889B1AF9
:10D210009B0833600AE023692169381C89B29CB2FB
:10D2200006F066F989B2641AA40834600223154A2C
:10D230001370FFF713FF05B0F0BD019B022BB0D0B8
:10D240002969381989B206F053F90D4B890819601C
:10D250002969BCE7019B022BA3D02969381989B23F
:10D2600006F046F9064B890819602B69DEE7C046CF
:10D270004029002074290020702900206C290020FA
:10D280009829002089290020142208B50A490B7822
:10D290005343CB18D988094A11601B79032B08D056
:10D2A000042B06D0012B06D1054A1370FFF7D6FEDA
:10D2B00001E0FFF73DFF08BD402900209029002034
:10D2C00089290020F7B5124D01936E7808AC2788A4
:10D2D0000424022E1AD02C78A419012C00DD023C63
:10D2E00014235C432C196261221C20710C3209C981
:10D2F00009C26B469B882781E3800024054B0136D9
:10D300001B786E70A34201D1FFF7BEFF201CFEBD4B
:10D31000402900208929002038B51424104D002010
:10D320002978614369180431FFF774FD29780022D8
:10D330004C432B1901241A71DA80DC601A615A619E
:10D340001A816B780919013B6B70CBB2022B01D0AB
:10D350002B7000E02A70034B1A70FFF77FFE38BD78
:10D360004029002089290020142208B507490B789C
:10D370005343CB181B79042B02D0FFF7CDFF04E0F9
:10D380000122034B1A70FFF769FE08BD40290020F7
:10D3900089290020F8B508241D4E35682C4022D17B
:10D3A00014221C491C4F0B783F685343CB18802133
:10D3B00049051869DA8809691B89002F16D00138D8
:10D3C0008018C01889B206F00DF8144B1B68834210
:10D3D0000CD1134B1C6001231D43124B35601C7094
:10D3E000FFF70CFD13E0FFF753FD10E0FFF728FDFA
:10D3F000002804D000220A4B1A60023202E0002FFB
:10D4000003D00322074B1A70EAE7FFF7ADFFF8BD20
:10D410008429002040290020702900206C29002048
:10D42000982900208829002008B5054B1B681B0798
:10D4300002D4FFF799FF01E0FFF72AFD08BDC046BF
:10D440008429002038B5154D2C68230723D4144AAD
:10D45000136801331360134B04221B68002B04D1A3
:10D46000FFF7EEFC002802D002220F4B0CE00F4B1E
:10D470001B68002B0CD00121221C0B4B0A4002D14F
:10D480000C432C6000E003221A70FFF7B7FC04E0A5
:10D49000FFF76AFF01E0FFF7FBFC38BD842900209D
:10D4A0006C2900209829002088290020702900205C
:10D4B00008B51E4B1B78022B30D0032B19D0012B43
:10D4C00032D108211A4A13680B4222D11423194978
:10D4D0000A785A43184B8A181968D3885B1A9BB28A
:10D4E000D380002B02D1FFF717FF1DE0FFF72CFDC3
:10D4F0001AE008210E4A13680B420AD10F4A13683A
:10D5000001331360FFF79CFC002804D1FFF72CFFC8
:10D510000AE08B431360FFF7A1FD05E0084B094AC1
:10D520001B789B009B58984708BDC046892900205E
:10D5300084290020402900209C2900206C290020FB
:10D54000882900207C46020008B5024B1868FFF7C6
:10D550007FFD08BD6C29002008B5FFF73BFC802249
:10D560005205136911699BB20138584389B205F01D
:10D5700039FFFFF76DFD08BD38B5144C042522783E
:10D58000131CAB4321D002281DD003281DD1104B02
:10D590001B681B0717D40F490B6801330B60032B63
:10D5A00004D0022A0CD1FFF729FC0EE014230A4A0A
:10D5B0000D201178594351180431FFF72BFC2570C9
:10D5C000FFF74CFD01E0FFF773FF38BD892900200C
:10D5D00084290020942900204029002010B5012230
:10D5E0000024164B1C705C701C71DC80DA601C61BE
:10D5F0005C611C811C765C831A625C629C629C8309
:10D600000F4B1C80FFF7E6FB802304225B051B69A0
:10D6100002389BB258430B4B18600B4B201C1C600C
:10D620000A4B1C601C815C81094B1C70094B1C60FF
:10D63000094B1C60094B1A6010BDC04640290020F0
:10D64000802900208C2900206C29002074290020CA
:10D6500089290020942900209C2900208429002069
:10D66000F7B504242B4B1A680823224250D0063306
:10D6700000284DD000294BD00268002A48D08027CE
:10D680007F053A69838892B2934201D907233FE02C
:10D690000F2BFBD9C288002AF8D053430E1C1E4919
:10D6A000041C0D685B190093FFF794FB3B6901387C
:10D6B0009BB25843184B0193009B8342E6D8A08845
:10D6C0008307E3D1154B1F880423012F20D0083393
:10D6D0007B43134A376075602668D1184D60088116
:10D6E0009E50E28880244A8164054243236921696F
:10D6F0009BB2D018013889B205F004FF2469019B60
:10D70000A4B2604345191D60044B01371F800023FC
:10D71000181CFEBD842900208C29002080290020AF
:10D7200074290020104B30B51C680823640719D5F4
:10D730000633002816D0002A14D00368002B10D11D
:10D740000A4D2C68002C0CD02C89406861430918C4
:10D750006889444368682418A14202D2136051606A
:10D7600000E00723181C30BD842900207429002004
:10D77000F0B5041C1B4885B0056808206D072ED540
:10D78000063000292BD0002C29D025680738002D21
:10D7900025D1154D2E68002E21D0666803962E895E
:10D7A0006F896D687743BC46039F6544AF4216D2CC
:10D7B000002A14D0B24212D8D518B5420FDC032586
:10D7C000093029420BD12B4209D12F4207D1181C15
:10D7D000131C00900A1C0120211CFFF773FD05B0EB
:10D7E000F0BDC0468429002074290020F0B5041C37
:10D7F0001B4885B0056808206D072ED50630002926
:10D800002BD0002C29D025680738002D25D1154DA7
:10D810002E68002E21D0666803962E896F896D6868
:10D820007743BC46039F6544AF4216D2002A14D00A
:10D83000B24212D8D518B5420FDC0325093029426F
:10D840000BD12B4209D12F4207D1181C131C009079
:10D850000A1C0420211CFFF735FD05B0F0BDC046B1
:10D860008429002074290020F0B5151C224A85B0B7
:10D8700012680293082453073AD50634002937D09A
:10D88000002835D00C68002C2FD11C4E3268002A9D
:10D890002BD0378973894A687B439C4673689C44C4
:10D8A000624522D2002D20D0BD421ED8029BEB182B
:10D8B000BB421ADC0327384219D1029B3B4216D1E6
:10D8C000174014D103950D1C9918039A029005F086
:10D8D00025F90C232A68281C5343039A022100923D
:10D8E000F6583A1C029BB04702E0072400E01024DF
:10D8F000201C05B0F0BDC0468429002074290020FA
:10D90000F0B51F4B85B01B6808245B0734D506347F
:10D91000002831D00368073C002B2DD1194A136829
:10D92000002B29D017895368528946687A43D21848
:10D930000292964220D20934B2071DD103900D1CE9
:10D94000F01A391C05F0D4FD093C002914D1281C1B
:10D95000391C05F0CDFD89B200290DD1002D0BD069
:10D96000029BAE199E4207D8002203200092039921
:10D970002B1CFFF7A7FC041C201C05B0F0BDC04603
:10D9800084290020742900202EDF704751DF704762
:10D9900010DF704711DF704761DF704708B5081C62
:10D9A000111C03F02BF808BDF0B5264B85B01B7891
:10D9B000002B45D0244B254E1D6834686A425541E2
:10D9C00062425441EDB2E4B20193002D36D103A876
:10D9D000FFF7DCFF05280CD0002804D0291C2A1CE6
:10D9E00003F00EF806E0019B03981B68009398472C
:10D9F00000E00125002C1ED1154B03A91B88012432
:10DA00000B80144B1B68181C0093FFF7C5FF071E03
:10DA1000052F0BD0002805D000210A1C02F0F0FFD2
:10DA2000002403E00098336898473C1C002DCCD0BC
:10DA3000002CCAD004E0002D02D1C6E7002CDBD0B8
:10DA400005B0F0BDA0290020A8290020AC290020A5
:10DA5000A2290020A429002038B5041C0720002991
:10DA600013D08D0711D1094801600949201C0A8093
:10DA7000084A09491360FFF78BFF002805D10122EE
:10DA8000064B16301A70FFF77FFF38BDA42900201F
:10DA9000A2290020B02900209DD90100A029002042
:10DAA00008B5FFF777FF031C5A1E9341014ADBB20A
:10DAB000137008BDA02900200E23002802D0024BBD
:10DAC00018600023181C7047AC2900200E23002882
:10DAD00002D0024B18600023181C7047A8290020B0
:10DAE00008B5074B1B68002B07D09847002806D0C5
:10DAF00000210A1C02F084FF01E0FFF755FF08BD7A
:10DB0000B029002093DF704708B50368002B01D0CF
:10DB1000081C984708BD08B50368002B01D0081CF5
:10DB2000984708BD38B50A68036893422DD1037938
:10DB30000C1C051C002B0CD10B79002B25D1C28AA3
:10DB4000CB8A9A4221D12B7E227E53405B060DD098
:10DB50001BE0012B19D10B79012B16D105300531B2
:10DB6000102204F0CCFF0028EDD00EE06A8B638B0E
:10DB70009A420AD1EB69E269934206D12B8C208C40
:10DB8000181A42424241D0B200E0002038BD70B5C0
:10DB9000061C0D1C041CE436201C291CFFF7C2FFC8
:10DBA000002802D14C34B442F6D170BD07B501ABA8
:10DBB0001980191C5A80FFF7A5FF032310280CD0E9
:10DBC00003D80023984208D006E00523112804D08A
:10DBD000034A013B904200D00B23181C0EBDC046E7
:10DBE0000230000038B5021C0023041C03600371DE
:10DBF0001532431D00251D7001339342FAD1201CBC
:10DC0000291CE58225766583A583E58325840C227E
:10DC1000243004F08CFF201C064B65632363291C11
:10DC20000C22383004F083FF034BA564201C63648E
:10DC300038BDC04609DB010017DB010010B5041C2C
:10DC4000FFF7D0FF201C4C30FFF7CCFF201C983092
:10DC5000FFF7C8FF201C10BDF8B50D1C041C171CD5
:10DC60001E1C0B68102203600B790371CB8A0531EF
:10DC7000C382053004F052FF2B7E3A1C23766B8B57
:10DC80006383AB8BA383EB8BE3832B8C2384231CD9
:10DC9000243323CA23C3FB6800222363231C311CC3
:10DCA00062633833A1C9A1C3F368201C6364A26412
:10DCB000F8BD70B58AB0041C0190038C0E1C01687D
:10DCC000132003ADAB8013780391AB71538A511CC1
:10DCD000684410222B8304F021FF201C6E830295E0
:10DCE0002430236B01A998470AB070BD07B5031C07
:10DCF0006A460090117138305B6C6946984707BDE1
:10DD0000F0B50C1C0B68A9B002930B79161C02AA83
:10DD10001371CB8A501D0531D382102204F0FEFE10
:10DD2000237E02AA1376638B5383A38B9383E38BA7
:10DD3000D383238C1384221C0BAB243223CA23C32A
:10DD40000025236B0F950E93083210AB83CA83C353
:10DD5000636C15A813931495FFF744FF15A9201CB5
:10DD6000222204F0DBFE231C1EAA243383CA83C3B1
:10DD7000219B656301932363231C23AA383383CA41
:10DD800083C3269BA564636402A8311CFFF7AEFF22
:10DD900029B0F0BD30B5041C97B003A8FFF722FFEF
:10DDA000201C03A9FFF7BEFE051E19D00F9B226B96
:10DDB0000193934213D1211C0CA824310C2204F0AE
:10DDC0009EFE00280BD1149B626C934207D1211C4C
:10DDD00011A838310C2204F092FE002800D0002552
:10DDE000281C17B030BD70B5051C0E1C041CE43592
:10DDF000201C311CFFF796FE002806D0201CFFF7E0
:10DE0000C9FF002801D1201C03E04C34AC42EFD103
:10DE1000002070BD10B5041CFFF7E5FF011E03D004
:10DE2000201C0022FFF76CFF10BD70B5051C0E1CF6
:10DE3000041CE435238CB34206D1201CFFF7AAFF53
:10DE4000002801D1201C03E04C34AC42F2D1002068
:10DE500070BD08B5FFF7E9FF431E9841C0B208BD89
:10DE600038B5041C151CFFF7E0FF011E03D0201C71
:10DE70002A1CFFF745FF38BDF0B58BB0061C019199
:10DE8000171C0024FFF7D1FF051EA54233D03A88A6
:10DE90000623944219D26343FB185A889B88029246
:10DEA0000393002305AA1370002105AAD01801339B
:10DEB0004170102BF8D16B469B89281C02990134C4
:10DEC0005382A4B2FFF7F5FEE1E7013A5343FF188E
:10DED0007988EA8B013189B2914203D9301C291C1F
:10DEE000002206E00198FFF761FE021E03D0301CFD
:10DEF000291CFFF705FF0BB0F0BD38B5051C041C4D
:10DF0000E435201CFFF746FF002803D14C34AC4217
:10DF1000F7D1041C201C38BDF0B51E1C4B8B99B0EA
:10DF200002339BB201930392CB8B019A041C0D1C0C
:10DF30000F8C0293934207D2002705910697F3684E
:10DF4000301C05A998472EE0391CFFF782FF0028F6
:10DF500001D0052727E0201CFFF7CFFF041EF8D0D3
:10DF6000381C0199029AFFF721FE071E1BD1291CBC
:10DF7000331C039A05A8FFF76FFE05A92222201C77
:10DF800004F0CCFD231C0EAA243323CA23C3119B07
:10DF900013AA23630193231C6763383323CA23C363
:10DFA000169BA7646364381C19B0F0BD028401227B
:10DFB00030B503AC258804AC4583151C24881D406E
:10DFC0008483047E01609443590811402C43022548
:10DFD0009140AC430C4304219D081540AD008C4397
:10DFE0002C430825D9081140C900AC430C4310212B
:10DFF0001D0915402D018C432C43202559099B09EF
:10E00000AC4311401A409301221C49010A434021AC
:10E010008A431A43027630BDF0B589B01C1C0EABA2
:10E020001D780FAB1B8810AE009333880026028446
:10E0300003AA019301601670002303A98A1901360F
:10E040005370102EF8D14C82041D8CC98CC40CC99D
:10E050000CC46B461B88047E43836B469B8869080F
:10E06000838301231A1C9C432A4019401443022233
:10E07000994094430C430421AA081A4092008C430F
:10E0800014430822E9081940C90094432A091A4098
:10E090000C431201B4431443202269099443AA0992
:10E0A000194013409A01231C49010B4340218B4323
:10E0B0001343037609B0F0BD70DF704771DF70471E
:10E0C00072DF704773DF704774DF704775DF70472A
:10E0D00076DF704777DF704778DF704779DF70470A
:10E0E0007ADF70477BDF70477CDF70477DDF7047EA
:10E0F00086DF704787DF704788DF704714207047DE
:10E1000064207047A0208001704708B5FFF7F2FF38
:10E11000031E00D00523181C08BD10B5041CFFF712
:10E12000D3FF0323002806D1231C012158331A787A
:10E130008A431A70031C181C10BD08B53B239A4271
:10E1400000D0283B081C191CFFF7C2FF031C5A1EF5
:10E15000934103205B42184008BD0A1C011C08B50E
:10E160000368FE31C98B1B6A984708BD08B5081CB7
:10E17000FFF7B8FF031C5A1E934103205B4218406F
:10E1800008BD08B5081CFFF7ABFF031C5A1E9341DE
:10E1900003205B42184008BD08B5081C111CFFF79E
:10E1A00095FF031E00D00323181C08BD08B5081CEA
:10E1B000111CFFF79BFF031E00D00323181C08BD92
:10E1C00008B5081CFFF788FF031E00D00323181CA6
:10E1D00008BD08B5081CFFF781FF031E00D003230C
:10E1E000181C08BD08B5081CFFF774FF00239842EF
:10E1F00003D00533112800D0023B181C08BD0000D5
:10E20000024B0B60092313607047C046A44602000E
:10E2100008207047B830017000207047B930017095
:10E220000020704702207047B83000787047B9303E
:10E23000007870470020704708B50368002B01D0B4
:10E24000081C984708BD08B50368002B01D0081CBE
:10E25000984708BD08B5031C1A1CF3326C301178BE
:10E260009B6F984708BD10B518C96210E10701D52A
:10E270008158CB588018984710BD13B50C1E012C3F
:10E2800007D86B46111C581C062204F047FC0020DE
:10E2900005E08B1E012B01D9032007E001206B460E
:10E2A00069461C70FFF708FF0028F5D116BD37B589
:10E2B00068460D1C141CFFF701FF032300280DD135
:10E2C000002D02D06B461B782B70231E06D06B46A8
:10E2D000201C591C062204F021FC0023181C3EBD02
:10E2E00070B5061C0D1C0024331CBA331B78A342E6
:10E2F0000ED96B79A3420BD90722111C61432B68FD
:10E30000013458187118BB3104F008FCE4B2EBE793
:10E310002C71002070BD112337B5081C01AD2B7086
:10E320000C1C04F017FD211C82B2281CFFF7DCFE38
:10E33000031E00D00323181C3EBD0000012008B5B9
:10E34000011C044AFDF740FF031E00D00B23181CDC
:10E3500008BDC046EDE30100F8B50368061CDB6CA0
:10E360000D1C0C7998470323844226D80023297971
:10E37000DAB28A4208D207225A4328680133125C73
:10E38000032AF5D1042318E0371C0024BA373C7067
:10E390002B79A34210D90722111C387861435043CE
:10E3A0002B6830185918BB3004F0B8FB3B780134A7
:10E3B00001333B70E4B2EBE70023181CF8BD38B51D
:10E3C000CD7F01201F2D10D8002D01D103200CE09E
:10E3D0000C1C081CD37F291CFFF772FE0028F5D106
:10E3E000208CFFF779FE0028F0D138BD70B5051CF0
:10E3F00088B0002001F0C4FF036800261B6998471D
:10E40000031C041CF3331D70251C0F4B069002A93E
:10E4100004A808220293039604F080FB0B4B0D35F1
:10E420000793069BFF35AB6004A90822281C0193C3
:10E4300004F074FB201C079BF430EB60311C03F0EC
:10E44000ADFF08B070BDC04655E2010067E20100B3
:10E45000F0B5051C041C87B0AC356B68AB60A868D0
:10E46000002807D0C368211C9847AB68002BF4D064
:10E470001B69F3E7261CB0363568002D05D02F69DF
:10E48000281C03F0F7FD3D1CF7E7221CFC23583243
:10E49000117835600B401370261C231C0A36563346
:10E4A0001D709D71301C291C1F2204F040FBF57764
:10E4B0002A36301C291C1F2204F039FBF577606EC8
:10E4C000002804D0056903F0D5FD281CF8E7251CB9
:10E4D000606698352868002804D0066903F0CAFDF4
:10E4E000301CF8E72860251CA4352E68002E05D0C6
:10E4F0003769301C03F0BEFD3E1CF7E72E6001AD0E
:10E50000311C281C0C2204F012FB231C2A1C6C3327
:10E5100083CA83C3094BE667A367311C0C22281CFE
:10E5200004F005FB231C803307CD07C3301C044ACD
:10E5300090341A60266007B0F0BDC04647E2010083
:10E5400039E2010010B5041CFFF782FF00280AD150
:10E55000231C0122FE335242DA83BA34463B187040
:10E560005870207000E0062010BDFE30C183704757
:10E57000FE30C08B70470000F0B593B001900020D2
:10E580000C1C01F0FDFE03685B6A984702F08EFBED
:10E5900006AB00280DD000221A7105AA06920822A7
:10E5A000181C1A730AAA9A6002F04CFC002802D0C8
:10E5B00052E01871187300231F1C23732371019BF1
:10E5C000BA331B78BB4246D907237B43019AD21842
:10E5D000B832D278022A31D1002506AE337BAB4265
:10E5E00036D907207843AB000293019B029A181892
:10E5F000B368BB30995802F03DFC00281BD0B368CB
:10E60000029AA1689A58237B9B005A50237B0133BE
:10E610002373337B5A1E954208D01049B2685B18A9
:10E620009B009B5803930399029BD15006AA137B2E
:10E63000013B13730CE00135EDB2CEE7019922796D
:10E64000CB182168BB3392005350237901332371D7
:10E650007B1CDFB2B3E7002013B0F0BDFFFFFF3F2C
:10E6600070B50C789AB00222012C3DD04B88032C57
:10E6700004D1A03B221C9BB21D4C03E00322203B93
:10E680001C4C9BB2A3422FD88C881B4B03229C426C
:10E690002AD80AAB009312AB02936A460023061CE9
:10E6A00013711373B83633780C1C002B04D06946F1
:10E6B000FFF762FF021E17D104AD18220021281CAB
:10E6C00004F035FA2378281C2B7033782B726B46B4
:10E6D000EB6063882B82A3886B82FFF7F3FC431EF9
:10E6E0009841032240420240101C1AB070BDC0463F
:10E6F000603F0000E03F0000FF3F000070B598B0B1
:10E7000008AB009310AB02936A460023051C1371FB
:10E710001373B9352B780C1C002B1ED1012304A8D0
:10E720002A780678A1799E43194013405A00331C79
:10E730000B4302218B43134303706B4643602388D2
:10E74000038163884381A3888381FFF7D1FC421E44
:10E75000904103234042034005E06946FFF70CFF68
:10E760000028DBD0031C181C18B070BDF0B59DB09C
:10E770001F1C6B46051C1A70581C0622229E02ACF8
:10E7800004F0CCF9002F07D03B8823807B8863807E
:10E79000BB88A380FB8806E032232380DB186380DC
:10E7A000F533A780FF33E3800CAB04A9049314ABCB
:10E7B0008B602F1C0023B9370B710B733B78002B38
:10E7C00017D101203B78022708A903405A000B7893
:10E7D000BB4304AF4F601343002E10D0B279834384
:10E7E000024013430B7033880B8173884B81B388CD
:10E7F00011E0281CFFF7C0FE0028E2D029E02A1C07
:10E80000323212788343024013430B70AB8D0B817D
:10E81000EB8D4B812B8E6846221C8B81FFF76CFCA5
:10E82000031C0020834214D00630082B11D005D8D9
:10E830000130042B0DD0834208D109E00520112BB3
:10E8400007D0054A934203D0102B01D00B2000E0E3
:10E8500004201DB0F0BDC046023200007047022007
:10E86000704700207047704790DF704795DF704712
:10E8700097DF704793300078431E9841C0B27047CD
:10E8800008B5081C111C1A1CFFF7F0FF031C002020
:10E89000834204D0113B5A425A410630801A08BDC7
:10E8A00030B5002485B001AD6B80089B2970EB80EA
:10E8B000099B101C291C6C70AC800393FFF7D8FFD8
:10E8C000A04207D00534112804D0044BC41860427C
:10E8D00044410634201C05B030BDC046FCCFFFFFCC
:10E8E00008B50368002B01D0081C984708BD08B57F
:10E8F0000368002B01D0081C984708BD08B50368C1
:10E90000002B01D0081C984708BD08B5ED30FF303A
:10E91000FFF702FB08BD08B5ED30FF30FFF737F910
:10E9200008BD08B5ED30FF30FFF774FA08BDF0B54B
:10E9300087B001AB1A1C0C1CE0CCE0C2021CB53243
:10E94000FF32C96870CB70C20023B530FF30C160A0
:10E95000036107B0F0BD0000F0B5061C9446041C2E
:10E96000101C8FB03436029301960F1C04A92CC8DA
:10E970002CC16346DA680299039209AA29C929C2FF
:10E98000029B0198DB68029301F0BDF9051C06208B
:10E99000002D3AD1231C04AA503343CA43C3039B1E
:10E9A0002566E365231C09AA783343CA43C3201CA8
:10E9B000029A14991A6004331D6014223A3004F04C
:10E9C000ADF8201C15991422643004F0A7F8231C1C
:10E9D000012191332787013B5D7093341D70381CF2
:10E9E00021702A1CFFF740FF041C281C002C0CD0AF
:10E9F000019801F0BDFC0520112C06D0044B9C426F
:10EA000002D00130072C00D104200FB0F0BDC04669
:10EA1000023000000023021C10B503701132431CA9
:10EA200000241C7001339342FAD1418210BD0000D2
:10EA3000F0B597B00593036807AC1B680491039386
:10EA4000111C231C061CA1C9A1C30025D368291CC5
:10EA50000C220CA80A9311AF0B9504F068F8094B2F
:10EA6000291C381C0F931095FFF7D4FF059B221C1F
:10EA700000930197301C04990CAB039CA04717B07E
:10EA8000F0BDC046EFE80100F0B50026051C89B0D6
:10EA900003AC8680311C201CFFF7BCFF211CA81D85
:10EAA000142204F03BF8311C201C0C2204F03FF827
:10EAB0002B1C221C1C3383CA83C30F4B311CAB623B
:10EAC000EE62201C0192FFF7A5FF2B1C221C3033A5
:10EAD00083CA83C3019A03CA03C3311C0C22201CBE
:10EAE00004F025F82B1C443307CC07C3301C034B20
:10EAF0006E652B6509B0F0BDE1E80100EFE80100AB
:10EB000070B586B0041CFFF7BFFF051E2AD1231C79
:10EB10005C33187058709870D870A8235B00E05070
:10EB2000E218523BFF3B53609360D3601361B42201
:10EB30005200A050221C6932FF3201AE5360936034
:10EB4000D3601361301C291C0C2203F0F0FF231C3E
:10EB50008133FF3307CE07C38134044BFF34E360B6
:10EB6000256100E00625281C06B070BDFDE8010007
:10EB700070B5041CE36A2363206B002807D0C368C8
:10EB8000211C9847236B002BF4D01B69F3E7E06A44
:10EB9000002804D0056903F06DFA281CF8E7E0624C
:10EBA000A068002804D0056903F064FA281CF8E77F
:10EBB000A0606069002804D0056903F05BFA281C96
:10EBC000F8E7256A6061002D05D02E69281C03F046
:10EBD00051FA351CF7E7201C25623430FFF790FF0F
:10EBE000281C70BD70B5041C8AB001AD2422002120
:10EBF000281C03F09CFF002102A8FFF70BFF201C3C
:10EC000000269530291C2222FF302E766E83AE839B
:10EC1000EE832E8403F082FF2368201C5B689847F4
:10EC2000231C5F331E70B0420DD0C0235B00E3583D
:10EC3000B34208D0054BB34205D0201C8130FF30D1
:10EC4000A188C36898470AB070BDC0465DE801005E
:10EC500008B53430FFF7C6FF08BDA0DF7047A4DF5A
:10EC60007047A5DF7047A6DF7047A8DF7047A9DFB0
:10EC7000704700207047000073B50E1C151C026819
:10EC8000009394682B1C321C0149A04776BDC046F6
:10EC9000FFFF000037B500206D46069C00902088DD
:10ECA00001932880081C111C6A46FFF7DAFF032332
:10ECB000002802D12B882380031C181C3EBD0000B5
:10ECC00073B50E1C151C06AA1178026800930191F9
:10ECD00014692B1C321C0149A04776BDFFFF0000C0
:10ECE000F8B5041C00200E1C151C01F049FB03683C
:10ECF0001B69984723689F69FFF73AFC321C011C87
:10ED00002B1C201CB847F8BDF0B5051CD78B002282
:10ED1000467985B0C435B24219D208352C1C083C5E
:10ED20002488BC4211D10E251C1C02231832D200AB
:10ED300082186D4412892B80036803AE00959F688A
:10ED4000331CB847021E04D00DE00132E3E7042073
:10ED500009E02B880620022B05D13388101C9B0765
:10ED600001D00123237005B0F0BD0000F0B50C1CEC
:10ED7000002187B06E460091151C0CA90DAA0988C8
:10ED8000127831800193002A03D1011C4679C431E5
:10ED900011E06A46201C291CFFF761FF421E9041CA
:10EDA0000323404203406DE008310F1C083F3F88B9
:10EDB000AF4203D00132B242F6D33FE030211C32E1
:10EDC0009200801842680132D27F0A4236D0022176
:10EDD000002002AED206F3600CABD20FB3602B4B17
:10EDE0008A1A3580B270B0809C4207D101F0C8FA0F
:10EDF00003681B699847FFF7BBFB041C201C311CF0
:10EE0000FFF731FF83B2002B3CD0181E112813D01E
:10EE1000112B02DC082B06D007E01D4B98420BD0CB
:10EE20001C4B984201D106232CE0201C291C6A4669
:10EE3000FFF715FF002808D1052323E0201C291C1B
:10EE40006A46FFF70CFF0C2801D103231AE00C28B7
:10EE500008D80528F9D0072813D00023984211D0EC
:10EE60000B230FE010280CD003D808230F2809D05B
:10EE7000F6E7094B9842E8D0D0239B019842E4D0B2
:10EE8000EEE70423181C07B0F0BDC046FFFF0000EA
:10EE900003300000013400000230000008B50378A0
:10EEA000002B08D10B78002B11D1428A4B8A9A4251
:10EEB0000DD101200CE0012B09D10B78012B06D1DB
:10EEC00001300131102203F01AFE0028F1D0002099
:10EED00008BD0000F0B5051C97B0081C2E240B914E
:10EEE00001F0F8FF04ABE418109010A90120221CD7
:10EEF000FFF7B3FE002801D00320D3E023880B9A4C
:10EF00000A9093830B9B0A9A1B7D934253D96B798A
:10EF1000132B01D90720C5E00B9B9B690C930A9B1F
:10EF20000C9A9B009C586369002B49D1638B002B82
:10EF300046D1631CDB7F022B42D137E06169631C41
:10EF4000DA7FA31CDB7F0091618B00200191218B74
:10EF50000291217F03910C9904910D990591211C37
:10EF6000293109780691211C2A310978079169799C
:10EF70001831C90069180431089110A902F004F889
:10EF80000028B9D16B79071C1A1C1C329200183367
:10EF9000AA18DB005460EB189B88E3836B7901337C
:10EFA0006B71231C28331B78BB4230D80A98013080
:10EFB000C3B20A93A6E72B79002001332B7171E0CD
:10EFC000201C01F087FF002610900D960C96231C44
:10EFD00028331B78B342B1D9626AB3009F5800232B
:10EFE00011AA1370002011A9CA1801335070102BF8
:10EFF000F8D12D4B381C4B82FFF750FF002803D06F
:10F000007B690C937B8B0D930136F6B2DFE7C2234D
:10F010005B00EB5C072B00D97CE7626ABB009E5863
:10F02000002311AA1370002011A9CA1801335070CF
:10F03000102BF8D11C4B301C4B82FFF72FFF0C908C
:10F0400000282CD1301C01F045FF328B738B0092CD
:10F05000327F10900192C2225200AA5C0C98C032FA
:10F060005200AA180632029210A9726902F049F8F9
:10F07000002800D040E7C2235B00EB5C1A1C58322A
:10F080009200C033AA185B005660EB18DB88C222DE
:10F09000F383C2235B00EB5C52000133AB54781C5A
:10F0A000C7B27EE717B0F0BD01290000F0B5041C1F
:10F0B00087B0236B6363606B002807D0C368211C93
:10F0C0009847636B002BF4D01B69F3E7206B002893
:10F0D00004D0056902F0CEFF281CF8E720632071F8
:10F0E0006071E068002804D0056902F0C3FF281CA5
:10F0F000F8E7E060A069002804D0056902F0BAFFD3
:10F10000281CF8E7666AA061002E05D03569301C1E
:10F1100002F0B0FF2E1CF7E701AD311C6662281C1F
:10F120000C2203F004FD231C2A1C383383CA83C33A
:10F130000F4B311C6364A664281C0C2203F0F7FCFF
:10F14000231C2A1C4C3383CA83C3094B311CA3657F
:10F150000C22E665281C03F0EAFC231C603307CD73
:10F1600007C3301C024B2667E36607B0F0BDC046FC
:10F17000FDE8010038B5051CFFF798FF041E1DD1FE
:10F18000281C211C5022743003F0D1FC281C65304F
:10F19000211C2022FF3003F0CAFC281C211C08225D
:10F1A000C43003F0C4FC281C8730FF30211C10221F
:10F1B00003F0BDFCC2235B00EC5400E00624201CDD
:10F1C00038BD00000B68002B01D1036002E0024B48
:10F1D00003600023436070475DE8010038B5041CFC
:10F1E0000D1C6368A360A068002807D0C368291CB1
:10F1F0009847A368002BF4D01B69F3E738BD08B526
:10F20000C368984708BD30B5151C87B004290ED0D7
:10F21000052917D0032925D13830041C04A8211C46
:10F22000FFF7D0FF049B002B18D1059B14E04C3056
:10F23000041C6846211CFFF7C5FF009B002B0DD165
:10F24000019B09E06030041C02A8211CFFF7BAFFF3
:10F25000029B002B02D1039BDB0703D5201C291C3A
:10F26000FFF7CDFF07B030BDF0B50B888FB0051CA0
:10F270000C1C512B3FD00AD8012B26D0502B00D08C
:10F2800004E1021CCE88C832417900230EE0522BE3
:10F290002AD0532B00D0F9E0CE88052136E0083281
:10F2A000101C08380088B04203D001338B42F6D3DB
:10F2B00009E030211C339B00EB185A68531CDB7F9C
:10F2C0000B4200D0CAE0022120E00C7AEB682B61EF
:10F2D0002869002800D1D9E0C368211C98472B6910
:10F2E000002BF3D01B69F2E7888800210A1C0B1C55
:10F2F000FFF7BDFCCAE08B79012B05D0022B00D0B3
:10F30000C4E00E89072101E00E8906212B1C002094
:10F310006A79C43300900098904200D3B6E0083375
:10F32000181C08380088B04213D1062958D0072984
:10F3300012D0022900D08CE0A3880AA90B804E804D
:10F34000237A0B71A38BCB80E38B20340B81CC60B1
:10F3500041E000980130DDE70021102202A803F00F
:10F36000E6FBA38802AA13805680E38B06AF938046
:10F37000238C0021D380231C10222233381C0193BC
:10F38000049303F0D4FB02233B70009B1C339B00CF
:10F39000EB185B681A1C2A3211780022914206D0C1
:10F3A000181C02A9DB6C4030984702AB9A89A088F0
:10F3B000391CBA80FFF759FCBB88002B66D1A388A3
:10F3C0000AA90B804E80A37A0B71E38BCB80238C30
:10F3D0000B81019BCB60281C1430FFF7FFFE55E02A
:10F3E00006AF00211022381C03F0A1FBA3887E8009
:10F3F0003B80A38B0AAE00211022301CBB8003F09F
:10F4000096FB0123009833701C3080002D186B6828
:10F410001A1C293211780022914205D0181C391C7F
:10F420002C309B6B9847BA89B280BB89002B0BD1DB
:10F43000BA68002A08D00121B3790B43B371BB88A5
:10F440003381FB88F2607381A088311CFFF70DFCCB
:10F450001CE0281C321CFFF7D6FE17E0A11CC97F58
:10F460000134E07F09020843990602D5032184078D
:10F4700009D40421DB0606D50123011C19400B1C0D
:10F48000594259410331D28B281CE4E70FB0F0BD3B
:10F4900090DF704792DF704794DF704738B50A6895
:10F4A0000368934201D000201AE00C1C051C0431B3
:10F4B0000430FFF7F3FC0028F5D02B7E227E53406A
:10F4C0005B06F0D16A8B638B9A42ECD1EB69E269FF
:10F4D0009342E8D12B8C208C181A42424241D0B280
:10F4E0000123584038BD38B50025041C291C20C014
:10F4F000FFF790FA25766583A583E5832584201C94
:10F5000038BD0268031C002A0AD0511E92004068D0
:10F510009A1819600433934204D059681960F9E7C6
:10F520000120404270470268031C002A0AD0511E85
:10F53000920040689A1819600433934204D05968C5
:10F540001960F9E7012040427047000073B5051CBF
:10F550002B686C69002B1CD0231C03225F331A70AC
:10F560000F49013268466E6803F0D8FA18237343D6
:10F57000E3187033998801AA1180DB8869465380AB
:10F58000A088FFF789FF002809D0281CFFF7B9FFE2
:10F59000DEE75F342378032B01D1023B237073BD78
:10F5A000AC470200031C0022F0B55C331A700A78E5
:10F5B00089B0041C0133042A00D904221A70A8233C
:10F5C00000205B00E050231C0122271C061C513345
:10F5D0005242FF335A609A60DA601A618D1C6037BC
:10F5E000231C5D331B789E4226D2AB78002B0CD1B6
:10F5F000A8225200A358591C9B00E318A1509B1845
:10F60000AA885E60EB88BA8211E0298803A8FFF718
:10F6100001FAAB88381C0093EB8803A914220193EC
:10F6200003F07CFA6B461B88BB826B469B88FB828F
:10F63000013608351837D3E7231CFC335B6D002BEC
:10F6400004D0201C5130FF30FFF780FF09B0F0BD1F
:10F6500073B5051C2B686C69002B1CD0231C04227D
:10F6600010495F331A70891868466E6803F056FABD
:10F6700024237343C033E3185B8B01AA1380013347
:10F680005380A0886946FFF707FF002809D0281C8F
:10F69000FFF749FFDEE75F342378042B01D1023BFB
:10F6A000237073BDAC470200031CF0B50A7887B025
:10F6B000041C0F1C5E33042A00D904221A70B423E0
:10F6C00000255B00E550231C01226933FF335242C1
:10F6D0005A609A60DA601A61A83B0593BE1C231C2D
:10F6E0005E331B789D422FD2B378002B16D1B42203
:10F6F0005200A3580598591C9B00E3189B18A15071
:10F700005D600A23F1886B4300913189FB180191F8
:10F71000A288A16D9B79FEF749FC0FE00A2168469B
:10F720006943791889793388A2880170F18805982E
:10F73000019131890291A16DFEF76EFC059B0135A7
:10F74000243305930A36CAE7231CFC33DB6E002BF7
:10F7500004D0201C6930FF30FFF77AFF07B0F0BDFE
:10F760007FB5031C5F331B78061C032B2DD1051CB2
:10F770002E4B0A685135FF359A4222D189681022F2
:10F78000684603F0CBF9281CFFF7BBFE182358434B
:10F790003418231C0122201C60331A7069460F3272
:10F7A000613003F0BBF9231C221C6D335B786C3491
:10F7B00061781B0270320B435380281CFFF7C6FE92
:10F7C00033E0281CFFF79DFE2FE0042B2DD1051CF4
:10F7D000174B0A686935FF359A4223D18968102290
:10F7E0000331684603F09AF9281CFFF79CFE242396
:10F7F00058433418231C0122201CC0331A71694657
:10F800000F32C53003F08AF9231C221CCD335B79FB
:10F81000CC3461791B02D0320B43D380281CFFF714
:10F8200017FF02E0281CFFF77EFE7FBD01001000DD
:10F83000010013000B68002B01D1036002E0024BB2
:10F8400003600023436070475DE8010008B5C368AA
:10F85000984708BD031CF0B5061C5F3391B00193B7
:10F860001B785C36022B5DD1031C9533FF332422B9
:10F870000D1C041C002107A8009303F058F907A8E9
:10F88000FFF731FE009807A9FFF708FE002846D0D1
:10F89000002D35D118233278271C5343E3187033D9
:10F8A000DA88D9235B00291CE252303702A8FFF71F
:10F8B000B1F8381C02A9FFF7F1FA051E14D1211C7A
:10F8C0009931381CFF31FFF7E9FA002818D0291CBC
:10F8D00007A8FFF79FF8A01D07A9FFF7DFFA01238C
:10F8E0005840C0B200280BD0251C443502A8291C62
:10F8F000FFF7A0FF029B002B19D1039BDB0716D457
:10F900000021242207A803F012F907A8FFF7EBFD56
:10F91000201C9530FF3007A9222203F0FFF80123B5
:10F92000019A137033780133337011B0F0BD281C85
:10F930000099FFF78BFFE3E773B50226002481806F
:10F94000051C5E30467001AE0470081C311C32800C
:10F950007380FFF79FFD10280ED005D8A04210D06D
:10F960000634082809D005E00524112805D0064BE7
:10F97000984201D00B2400E00424281C211CFFF72E
:10F9800069FF201C76BDC04602300000F0B5041CA3
:10F9900089B0261C5F363378012B6DD1251C201CC5
:10F9A0005C355D302B78027893424CD20021A71D44
:10F9B00003A8FFF72FF8381C03A9FFF76FFA0028F8
:10F9C00009D118232978381C594360316118FFF791
:10F9D00065FA002827D0E369002B16D0274B002BAF
:10F9E00013D0002103A8FFF715F8201C03A930301D
:10F9F000FFF754FA002808D01823201C29781C305F
:10FA0000594360316118A36A98473678012E0AD1AC
:10FA1000211C01A84431FFF70DFF019B002B06D1EB
:10FA2000029B334203D12B7801332B70B1E71823AB
:10FA30002A78A1885343E31870339A88201CDB8806
:10FA4000FFF77AFFA5E7002A16D0002B14D0182262
:10FA5000013B53430022E3187033D988084B0270EE
:10FA60002A70994203D1201CFFF7BCF804E0A0885B
:10FA7000FFF70EFD0028F6D109B0F0BD5DE80100EA
:10FA8000FFFF0000031CF0B55F3397B001931B78B4
:10FA9000022B00D0D6E0071C00212422041C95373D
:10FAA0000DA803F044F8FF370DA8FFF71CFD381C24
:10FAB0000DA9FFF7F3FC00283AD0231C5E331B7816
:10FAC000002B35D0231CD922261CDA331B88520088
:10FAD000013BA3520021303608A8FEF79BFF301CE3
:10FAE00008A9FFF7DBF9051E14D1211C9931301C40
:10FAF000FF31FFF7D3F900281AD0291C0DA8FEF713
:10FB000089FFA01D0DA9FFF7C9F901235840C0B214
:10FB100000280DD0251C443504A8291CFFF78AFEB7
:10FB2000049B002B00D083E0059BDB0700D57FE022
:10FB30000025231C5E3302931E78B5424CD2019BF4
:10FB40001B78022B00D07DE0731E24219D4207D13B
:10FB50006943C0316118381C222202F0DFFF3BE00C
:10FB60000E1C6B1C59436E43C03161184B8BC03661
:10FB7000013BA619F383231C0021303308A802930C
:10FB8000FEF748FF029808A9FFF788F903900028BC
:10FB900012D1311D0298FFF781F9002819D003997D
:10FBA0000DA8FEF737FFA01D0DA9FFF777F9012378
:10FBB0005840C0B200280CD0231C4433191C06A89E
:10FBC0000293FFF737FE069B002B36D1079BDB071E
:10FBD00033D40135EDB2ACE7019B1B78022B31D158
:10FBE000002E08D0013E22335E43C036A619B28BE8
:10FBF000013292B200E0144A231C5C3319781823B6
:10FC00004B430021E3187033DB88029801709A425D
:10FC10000AD20DA90A804B80A088FFF73BFC002880
:10FC200010D0201C0B2100E0201CFFF713FE09E080
:10FC3000281C391CFFF70AFE7AE70298311CFFF7EF
:10FC400005FEC6E717B0F0BDFFFF000002207047B9
:10FC5000022070470020704700207047004870471E
:10FC6000FFFF00000220704702207047022070470B
:10FC70000220704702207047022070470220704720
:10FC80000220704702207047022070470220704710
:10FC90000220704702207047002313607047002045
:10FCA00070470220704702207047022070470220F0
:10FCB00070470220704700207047002070470020E6
:10FCC0007047022070470220704741607047816092
:10FCD0007047C16070470161704741617047022001
:10FCE00070470220704702207047022070470220B0
:10FCF0007047022070470220704790DF704766DF30
:10FD0000704748DF70475F300078431E9841C0B2AB
:10FD10007047007970470C3070470C30704708B559
:10FD2000FFF7EFFF08BD08B50B68984708BD08232B
:10FD300070B596B002AA137106AA029202AA1373B2
:10FD4000101C0EAB04930C1C01F07CF80023061C65
:10FD50001D1C98420FD0237130E00722101C68430D
:10FD600023681818029B01930199AB00595802F0BF
:10FD7000D5FE0135EDB202AB1B79AB4204D96379F4
:10FD8000AB42EAD8257119E02571002502AB217933
:10FD90001B7B6918AB4210D9637999420DDA049B39
:10FDA000AA00019307235943236801355918019B81
:10FDB000EDB2D05801F062F8E8E72171301C16B0BE
:10FDC00070BD08B500F0E4FF08BD08B5081C111CA3
:10FDD00001F014F808BD08B5081C111C00F0EAFF7A
:10FDE00008BD08B5081C111C1A1C029B00F064FF1A
:10FDF00008BD00007FB503791648002B28D0164DAA
:10FE0000164C2B78201C002B22D102AE301CFFF7A1
:10FE100076FF002816D17388592B13D13378B28816
:10FE2000D91F012904D80092201C20210C4A03E08C
:10FE3000201C202100920B4A02F058FF01232B7056
:10FE4000201C05E0201C0849202202F08AFFF7E769
:10FE500004B070BD7C490200B4290020F02A0020C3
:10FE600096490200B3490200D849020038B5037927
:10FE7000041C0920002B28D0FDF712FE031C0520CE
:10FE8000002B22D1251CFC35286B002803D1A86B40
:10FE9000002806D10AE003681B6A98470028F6D0BC
:10FEA00013E003689B6A984700280ED1686B00280E
:10FEB00004D00368DB6A9847002806D1201C0C3068
:10FEC000FEF740FB002800D1207138BD38B5041C76
:10FED000E3692362206A002807D0C368211C984781
:10FEE000236A002BF4D01B69F3E7E069002804D0F3
:10FEF000056902F0BFF8281CF8E7E0616060A060C7
:10FF0000E0602061606138BD08B5FFF7DFFF0028C1
:10FF100000D0062008BD38B5041C0068002804D0B5
:10FF2000056902F0A7F8281CF8E7206038BD00003A
:10FF300010B5041C024B08C0FFF7EDFF201C10BDDC
:10FF4000B048020010B5041CFFF7F2FF201C02F0BD
:10FF500091F8201C10BD38B5041C0068002804D09E
:10FF6000056902F087F8281CF8E7206038BD00001A
:10FF700010B5041C024B08C0FFF7EDFF201C10BD9C
:10FF8000C048020010B5041CFFF7F2FF201C02F06D
:10FF900071F8201C10BD000038B5064B041C03602E
:10FFA0004068002804D0056902F064F8281CF8E7CE
:10FFB000201C38BD1049020010B5041CFFF7ECFFEF
:10FFC000201C02F057F8201C10BD000038B5064B6D
:10FFD000041C03604068002804D0056902F04AF858
:10FFE000281CF8E7201C38BD2049020010B5041C6D
:10FFF000FFF7ECFF201C02F03DF8201C10BD0000B4
:020000022000DC
:1000000038B5064B041C03604068002804D005691D
:1000100002F030F8281CF8E7201C38BDC047020069
:1000200010B5041CFFF7ECFF201C02F023F8201C85
:1000300010BD000038B5064B041C03604068002862
:1000400004D0056902F016F8281CF8E7201C38BD1A
:10005000D047020010B5041CFFF7ECFF201C02F093
:1000600009F8201C10BD000038B5064B041C0360C5
:100070004068002804D0056901F0FCFF281CF8E75F
:10008000201C38BDE047020010B5041CFFF7ECFF50
:10009000201C01F0EFFF201C10BD000038B5064BFE
:1000A000041C03604068002804D0056901F0E2FFE9
:1000B000281CF8E7201C38BDF047020010B5041CCE
:1000C000FFF7ECFF201C01F0D5FF201C10BD000045
:1000D00038B5064B041C03604068002804D005694D
:1000E00001F0C8FF281CF8E7201C38BD904802002A
:1000F00010B5041CFFF7ECFF201C01F0BBFF201C17
:1001000010BD000038B5064B041C03604068002891
:1001100004D0056901F0AEFF281CF8E7201C38BDAB
:10012000A048020010B5041CFFF7ECFF201C01F0F2
:10013000A1FF201C10BD000038B5064B041C036055
:100140004068002804D0056901F094FF281CF8E7F6
:10015000201C38BDD048020010B5041CFFF7ECFF8E
:10016000201C01F087FF201C10BDF7B50379071C88
:100170000E1C151C002B06D000230A2401930093AB
:100180006B461C7109E000F0E9FB041C0C20002CFC
:100190000CD1012300943B710194301C01F03CF818
:1001A000EB6800906946281C9847201CFEBD0000A3
:1001B000F7B50193036800915B68041C171C98470E
:1001C000051C0620002D3BD1231C3A1C1C3343CABE
:1001D00043C3FB68019AA362231CE562443343CA0C
:1001E00043C3019B0899DB68142223656565A01D44
:1001F00002F094FC201C09991422303002F08EFC8D
:100200006B461B880121A380231C5D331D70013BBD
:100210001D70D97000982A1CFFF76FFD061C281C62
:10022000002E0DD02368201C9B6898470520112EB6
:1002300006D0044B9E4202D00130072E00D104208C
:10024000FEBDC04602300000FC3038B5846B051C92
:10025000002C0DD1242001F001FF064B4460836186
:10026000054B8460C46004614461C4610360A86399
:10027000A86B38BD9048020050490200FC3038B5E8
:10028000846B051C002C0DD1242001F0E7FE064BE9
:1002900044608361054B8460C46004614461C4614F
:1002A0000360A863A86B38BD904802005049020063
:1002B00010B5041C044B036002F054F8201C02F03B
:1002C000C9F8201C10BDC046C84C0200104B10B528
:1002D000083303600F4B041CC36080230E4A5B008D
:1002E000C250C018FFF7E4FF201C0C4BB830E3608D
:1002F000FFF7D4FE201CAC30FFF7B6FE201CA03068
:10030000FFF798FE201C6C30FFF77AFE201C10BD12
:10031000E0490200B8460200E04C0200004802003A
:1003200010B5041CFFF7D2FF201C01F0A3FE201C17
:1003300010BD10B5041CFFF7BBFF201C01F09AFE96
:10034000201C10BD011C031C1F3100221A70013338
:100350008B42FAD180239B00C2770384704710B58B
:1003600000211F22041C02F0E2FB0023E37710BDF2
:1003700008B5FEF737FC08BD00487047B8290020D3
:1003800000487047B8290020424BF0B5083303609D
:10039000414B071C0025C360A023041C163787B0FF
:1003A00005718560057443828582381CFFF7CAFF9A
:1003B0008021201CC9010A1C2B1C0095383000F03C
:1003C000A5FF231C4033181C0393FFF7BBFF231C1E
:1003D000221C62331D70FC2364321178201C0B40F8
:1003E0001370231C68331D702C4B291CE366256792
:1003F0000C22783002F09BFB231C261C88331D60E6
:10040000274B0836F3678436291C301C0C2202F077
:100410008EFB244B244AF360231CA03335611A6001
:10042000224A5D60DA60224A1D619A61DD61381CF2
:10043000FFF795FF0398FFF792FF1E4B8026E360BE
:10044000231C601CC4331D705D709D70FF3001F073
:10045000DDFF0337184B7600FF37A35105A9381C81
:100460000422059502F05AFB059B144A591E8B4144
:100470005B421A40124BFA60A3510122231C201C3C
:10048000FE3352425A85023B1D635D639D6307B094
:10049000F0BDC046E049020000480200C04702002B
:1004A00047E2010039E20100D0470200E0470200C4
:1004B000F0470200B8460200C84C020027FD0100C8
:1004C000E04C020038B50C220D1C0021041C02F087
:1004D0002EFB00232361024B2560201CE36038BD06
:1004E000FDE8010070B50025041C0E1C8571058314
:1004F000291C0C221C3002F01AFB2B4B201CA3627F
:10050000231C3033E5621D70231DDD87291C443018
:100510000C2202F00CFB254B65652365244BA66578
:100520002360231C5C331D705D709D70DD70261C84
:10053000251CC0366035281C0021FEF76BFA00230D
:10054000AB82EB821835B542F5D1261C5136FF3609
:10055000281C0021242202F0EAFA281C2435FEF788
:10056000C2FFB542F4D1A82300215B00E150B422C0
:10057000231C201CFC3352009965D9651966596605
:1005800081306C61A150196759679967D967A318C1
:100590005C61FF30FFF796FF201C9530FF30FEF7BF
:1005A000A2FF201C70BDC046E1E80100EFE8010099
:1005B00030490200FC3070B5466B051C002E1CD182
:1005C000B420800001F04AFD041C0D4B866043609E
:1005D0000C4B466103610C4B0662C3610B4BC66258
:1005E00083620B4B211C03603430FFF77BFF201C20
:1005F000ED30FF30FDF722FB6C63686B70BDC046C9
:10060000C0480200B0480200104902002049020020
:100610004847020070B50025041C254B0571036096
:10062000244B45718360244BC5604361234B856136
:100630000362234B4562C3620563291C3830FFF710
:1006400041FF201C291C4C30FFF73CFF201C291CBB
:100650006030FFF737FF1B4B251C2360231C7435CC
:10066000C433002204C59D42FBD1261C6536FF36EB
:10067000281C00210822083502F059FAB542F7D1AA
:10068000221C8532FF32002308C59542FBD1C222CD
:100690005200A354231C221C87339732FF33FF32AE
:1006A0000021198002339342FAD1201C70BDC0464C
:1006B000E0480200A0480200B0480200C048020022
:1006C000D048020088470200FC3038B5036B041C98
:1006D000002B07D1CC20400001F0C0FC051CFFF727
:1006E00099FF2563206B38BDFC3038B5036B041CC3
:1006F000002B07D1CC20400001F0B0FC051CFFF717
:1007000089FF2563206B38BD031C0A1C70B570CAB5
:1007100070C3CB68C3600023036170BD08B581302E
:10072000FF30FFF7F1FF08BD10B5054C201CFFF7A7
:100730002BFE201C0349044A02F060F910BDC0469C
:10074000B8290020CD0202000028002070DF704789
:1007500071DF704760DF704708B5FCF70DFF08BD1B
:1007600008B5FDF721F9002008BD0000F0B5051C13
:100770008BB0FCF7FBF8281C00F054F90020FFF7C1
:10078000FFFD0368061C1B6998473368041C9B69BE
:10079000301C9847336800905B6A301C9847031CF4
:1007A000288810380B2800D9CEE002F011FE064F41
:1007B000CDCDCD88CDCDCD8FCDACAE88201C311C1C
:1007C0002F7DFDF7D2FE221C01216B7B5832019355
:1007D0001378A8798B4349180B431370023A1378A6
:1007E00069460133137004ABD8701E809F700023DC
:1007F00004AA137153719371D37113725372D3722C
:10080000137353739373D37313742B1C09791633B7
:10081000917205A8E91D0622099302F07FF90B20C9
:10082000291C04ABC0180E31062202F077F994346B
:100830006368A360A068002800D185E0C36804A9AC
:100840009847A368002BF3D01B69F2E74149201CAD
:10085000AF88FDF78AFEAB79301C019333681B6AC1
:100860009847061CED30FF30391C0622FDF7F8FAD8
:10087000338FBB4204D1301C736B34309B68984774
:10088000221C56321378013BDBB21370002B03D1CC
:10089000022193788B4393706A46127904AB1F80D0
:1008A0009A70A0346368A360A06800284CD0C36825
:1008B00004A99847A368002BF4D01B69F3E75B6990
:1008C000A888A91D002B3FD098473DE0AE79002EA7
:1008D00005D1221C0121583213788B431370636EAB
:1008E000002B31D01C4A002A2ED0A366A06E00280F
:1008F0002AD0C368311C9847A36E002B01D1636EC8
:10090000F3E71B69F1E70126AB7BE91D5A07920F5C
:100910001E400192DB08062204A86F7B029302F0BE
:10092000FDF86A46127904AB1A726A46127A9F7110
:10093000DE715A722B1C0F330793231C201C8C333F
:1009400080301B6804A998470098291CFEF78CFC8E
:100950000BB0F0BDFFFF00005DE801001FB5A32351
:100960008022DB00D205D3580820DB0700D40530F5
:100970001C4948221C4BFDF76FF800280BD080B2B1
:10098000002808D1BFF34F8F184A194BDA60BFF324
:100990004F8FC046FDE7002302A802934360013356
:1009A0000370FFF7D7FE002801D0072017E0684644
:1009B000FFF7CEFE0028F8D16946FFF7C7FE0028F2
:1009C000F3D10C48FDF778F880B2002807D10A4827
:1009D000FDF77CF880B2002801D100F0DFF805B007
:1009E00000BDC046102B0020610702000400FA057C
:1009F00000ED00E06D07020059070200704700009B
:100A000080B2002808D1BFF34F8F044A044BDA604C
:100A1000BFF34F8FC046FDE77047C0460400FA059C
:100A200000ED00E07FB5041C0020FFF7A9FC051CC9
:100A300003681B6998472B68281C1B6A9847061C8B
:100A4000051C208834363038082800D994E002F09C
:100A5000BFFC0593137E212D93455F00E388002B97
:100A600005D1211C301C0C31FEF79CFD84E06B6B22
:100A7000301C9B6898477FE0E388002B05D1211C40
:100A8000301C0C31FEF710FE76E0301C0021FEF722
:100A9000E1FE71E06B6B301C5B68984700286BD0FF
:100AA000211C301C0C31FEF75BFE65E06A46A38812
:100AB0001380A3895380E3899380238A1234D380DF
:100AC0000294AB68EB60E868002855D0C3686946BB
:100AD0009847EB68002BF4D01B69F3E76A46A388BC
:100AE0001380A3895380A37B1371238AD380638AE5
:100AF0001434138103946B69AB61A86900283BD05F
:100B0000C36869469847AB69002BF4D01B69F3E7CB
:100B10006A46A3881380A3895380A37B1371238A19
:100B200012340294D3802B6A002B25D0164A002A57
:100B300022D06B62686A00281ED0C3686946984755
:100B40006B6A002B01D12B6AF3E71B69F1E7281CC4
:100B5000E388ED30FF30A188002B05D085225200BC
:100B6000934206D1002205E0221C0C32FDF784F9E5
:100B700002E00B22FDF774F9301CFEF783FF301CF6
:100B8000FEF704FF7FBDC0465DE8010077DF7047D8
:100B900078DF70477ADF70477CDF70477FB50023CE
:100BA00002AC0393283323806933FF33114D6380F4
:100BB000E380803BFF3B01AE281C337002F0CAF893
:100BC000291C82B2301CFFF7E7FF80B200280FD14A
:100BD00080208000FFF7DCFF80B2002808D1201CB5
:100BE000FFF7D8FF80B2002802D1FFF7CFFF80B215
:100BF00004B070BD204A02007EDF704768DF704796
:100C000038B500200D1CFFF7BBFB03685B6A9847F3
:100C10002B78041C142B17D002D8132B05D041E0DD
:100C2000152B16D0222B37D03CE06B680122188898
:100C30009B786468191C5D08DB0611405B0F2A4035
:100C4000002C2FD0A0472DE06B6818889978A368F6
:100C50001EE06A6891780B090907090F012902D083
:100C6000022908D011E0013BDBB20021022B0DD894
:100C70000D49C95C0AE00421012B07D0023B584210
:100C8000434101315B42194000E000211088E368D4
:100C9000002B07D0984705E06B6818882369002B64
:100CA00000D09847002038BD264A0200014B187832
:100CB0007047C046592B0020F0B5314E87B03478CC
:100CC00000960026B44257D11C1C01920D1C071C33
:100CD000FCF784FCB04201D00B264DE0002C0FD075
:100CE000222003A90394FFF789FF002808D00626D5
:100CF000082841D01138061C7042464104363BE0BA
:100D0000002302AA101C1370FBF7A4FC011EE3D100
:100D100001241C4E274030782540A04338436B0007
:100D20000227051C0720019ABD4302401D431C23D6
:100D3000BA409D431543357003AD0C22281C01F0C9
:100D4000F6FE0920104B311C039302ABC01805229C
:100D50002F7101F0E3FE0D48291CFBF7EFFC002882
:100D600007D00726042807D0013E082804D00536FE
:100D700002E0061C009B1C70301C07B0F0BDC04692
:100D8000592B002004280020010C0200582B0020C1
:100D900008B50748FBF79AFD0023984206D00733B1
:100DA000042803D0013B082800D00533181C08BDD7
:100DB000582B0020002373B501930F4B01AD1B7816
:100DC0000E1C291C2B70FBF795FF041E04D0042376
:100DD00005280FD007330DE0281C311CFBF7E8FC79
:100DE000231C002806D00723042803D0013B082831
:100DF00000D00533181C76BD582B002073B5104C5D
:100E00000E1C051C211C6846052201F087FE012EE0
:100E100006D0022E11D1012223781343B34303E0FD
:100E200002222378B3439343281C69462370FFF7BB
:100E3000E3FE031E02D00B2300E00223181C76BD44
:100E40000428002008B5094B1A780923002A0AD083
:100E5000011C0748FBF7E4FC0023984203D003334E
:100E60000E2800D00333181C08BDC046592B0020A3
:100E7000582B002008B5FBF78CFF08BD08B50223EE
:100E80000A1C0B708C330B713F3B4B712D338B71F4
:100E900001320431FBF754FF08BDA2DF7047A3DF26
:100EA000704763DF704710B586B06B46DC1D0023CA
:100EB0002370C15C02AA99540133102BF9D1101C84
:100EC000211CFFF7EEFF0023984200D12378181C65
:100ED00006B010BD0122F0B5438A87B003930378B2
:100EE0000192002B41D0264B87181A681D1C0292D4
:100EF0000022029B9A4217D0112100235143214E18
:100F000071189C1E012C04D9CC5CA446FC5CA44541
:100F100008D10133102BF4D111235A43B618337C76
:100F2000019322E00132E4E7041C381CFFF7BBFF09
:100F30002378061C0190002B01D11234271C029B40
:100F4000042B12D01124181C60430E4B391C1818A6
:100F5000102201F0E3FD2B680A4A5C4317190022B6
:100F60000133BA70FA703E742B606A46127905AB91
:100F70009A705888039B00040343181C07B0F0BD07
:100F80005C2B0020602B0020F0B599B01F1C1EAB1D
:100F9000029102CB09AD1B880190039320AB1B8803
:100FA000281C049321AB1B78059323AB1E8824AB2C
:100FB0001C7825AB1B78069306ABD91D0A7001225D
:100FC00001F0ACFD30232A781A4211D00AAD00217D
:100FD0000322281C01F0ABFD0622AB789343043AB0
:100FE00013430E32AB70111C012319432970697031
:100FF00011AD00211C22281C01F099FD09AB1A78C3
:1010000030231340581E83410AA95B4219402A70BD
:101010006961002E05D0229B002B02D06B602E81CF
:101020006E81012000230BAD2B800440069BE40061
:101030000340E4B21901231C02240B431C43322356
:10104000059901400C43AC701A421ED0781E04284A
:101050001BD82978233B994302F0BAF90305070C02
:101060001100012007E001200AE0012001430B40AC
:10107000302108E0022001430B40102103E0022050
:1010800001430B4020210B432B700C231A421ED02E
:10109000781E04281BD86A7803339A4302F098F923
:1010A0000305070C1100012107E001210AE00121DD
:1010B0000A431340302208E002210A431340102261
:1010C00003E002210A431340202213436B700CAC4F
:1010D000201C0021142201F02AFD029B01980C9390
:1010E0006B469B8911A923816B461B8A221CA38115
:1010F0001E9B65602361269BFFF7CFFE80B219B06F
:10110000F0BDF0B589B000930EAB1B88161C01939F
:101110000FAB1A7801230F1C02211A400A4302A9BF
:101120008A70191C1022051C02A81143021C03AC72
:1011300001705170201C0021142201F0F8FC02AB58
:1011400063606B461B88281C23816B469B88211C8F
:10115000109A0397A3812661FFF7A1FE80B209B020
:10116000F0BD000013B50422019101A9041C01F097
:10117000D5FC019B034A591E8B415B421A40E26039
:1011800013BDC04627FD010010B5084C201C01F01E
:101190003DF9201C064B183000212360FFF7E2FFC9
:1011A000201C0449044A01F029FC10BDA42B002096
:1011B000C84C0200B102020000280020021C0B1CD7
:1011C000F0B5126889B0019203AA151C1E1C406874
:1011D000016809688C4692CE92C5DB680199D3609C
:1011E00000231361E04709B0F0BD000038B50023CB
:1011F000041C0160436099420AD1064D2B68002B04
:1012000002D1FFF7B9F8286023689B00EB586360B0
:10121000201C38BDD82B0020F8B500280DD1104C6B
:101220002668002E07D1083000F018FF051C311C7D
:10123000FFF7DCFF2560206810E00127094E0A4C0B
:1012400035683D4009D1301C01F0DFFB002804D097
:10125000301C2760656001F0E5FB201CF8BDC0462E
:10126000CC2B0020DC2B0020D02B0020436810B5B5
:10127000041C002B02D1044801F00AF960680368DD
:101280005B68984710BDC046294A0200436810B504
:10129000041C002B02D1044801F0FAF860680368CE
:1012A0001B69984710BDC046294A0200436810B523
:1012B000041C002B02D1044801F0EAF860680368BE
:1012C0001B69984710BDC046294A0200436810B503
:1012D000041C002B02D1044801F0DAF860680368AE
:1012E0009B69984710BDC046294A0200436810B563
:1012F000041C002B02D1044801F0CAF8606803689E
:10130000DB6A984710BDC046294A0200F7B5FA26A5
:10131000B6007143009308AB1B78041C081C1549E8
:10132000171C019302F05EF885B2301C25807843CB
:10133000104902F057F86B461B8880B2A3806B46B9
:101340001B796080A371032D01D80423238080239F
:101350002288DB019A4200D92380032801D8042285
:10136000628062889A4202D98023DB016380201C5C
:10137000FEBDC04671020000704708B50368002B2F
:1013800001D0081C984708BD08B50368002B01D0A0
:10139000081C984708BD08B50368002B01D0081C3D
:1013A000984708BD08B50368002B01D0081C984772
:1013B00008BD37B50568002D0FD008220C1C011D93
:1013C000684601F0ABFB019A009B5010D20701D593
:1013D0002A58D3582818211C984737BD38B5002300
:1013E000104CE356013304D10F4810492C2201F070
:1013F0003DF863691D6863681D400023E3560133AF
:1014000004D109480949242201F030F8002D01D106
:10141000E36800E0236962681A600122044B1A70D5
:1014200038BDC046E42B0020644A02007C4A02001A
:10143000042C0020F7B5041CC07F0126C5181D2D03
:101440001DDC0F1C01929919321C20181D1C01F083
:101450006EFBE07F321C8019C0B2E077391C201887
:1014600001F065FBE07F2A1C80190026C0B2E077FE
:101470000199201801F052FBE37FED18E577301C4D
:10148000FEBD0000F7B58E1EF6B2041C0191089D4A
:10149000132E22D80120071CB7403E1C254F3E4288
:1014A0001BD0E17FCE1861181F2E41DC681C8142E1
:1014B00003D90878C8540139F8E70021C8B2984226
:1014C00004D2565C681886700131F7E72A789A18BA
:1014D0002A70E27F9B18E3770DE02E78771EFFB22B
:1014E000BB420AD10021C8B2984204D2545C6818A9
:1014F00084700131F7E700201AE0E07FC01BC018BC
:101500008446614601201F2912DCB81C2818E57F9B
:101510006119884205D20178C51B023D297001304E
:10152000F5E7F643AD190199201CE577FFF782FF37
:10153000FEBDC0463F000800F7B50024C67FB44298
:101540000ED205196F788F4205D1002D08D0009575
:10155000FFF798FF06E0055D01356419E4B2EEE798
:10156000FFF768FFFEBD011C08C910B5DB6F041C46
:101570009847002804D1012258342378134323705C
:1015800010BD08B50020FFF747FEFFF78FFEFFF7FD
:10159000EAFF08BD70B5061C8AB00A360C1C222270
:1015A000311C051C01A801F0B9FA6B460121DA1CB7
:1015B00001A80B1C1470FFF7BFFF041E0DD12A1CDD
:1015C0002B6834329B6F281C01A99847041E04D154
:1015D000301C01A9222201F0A1FA201C0AB070BD22
:1015E000F0B5071C8BB001AC0A370D1C2222391C48
:1015F000061C201C01F092FA6B46201C9A1C192133
:10160000022315802584FFF797FF051E0DD1321C9C
:10161000336834329B6F301C211C9847051E04D15F
:10162000381C211C222201F079FA281C0BB0F0BDD5
:10163000F0B5051C161C0F1C8DB00A35291C222282
:10164000041C03A8019301F069FA321C03A8391C99
:10165000019BFFF771FF061E0DD1221C2368343257
:101660009B6F201C03A99847061E04D1281C03A9C0
:10167000222201F053FA301C0DB0F0BD10B5041C4D
:101680000B78102203704B8A01314382013001F044
:1016900045FA201C10BD0000F7B5041C009308ABF0
:1016A0001E8809AB1B78171C01930CAB1D78FFF744
:1016B000E5FF6B466A46257700251B881279638310
:1016C000631C67612683E583DA770122A31CDA773E
:1016D0000A9B0C266362231C201C0B9A28335D7026
:1016E0009D70291C1A702C30321C01F020FA201C2D
:1016F000064BE563A363291C321C403001F017FA46
:10170000034B2565201CE364FEBDC046891302001F
:101710007B13020008B5FFF7B9FD806D08BD10B559
:101720000C1CFFF7D3FD0368211C1B68984710BDF4
:10173000031CF0B50C3391B00093543308AC051C76
:1017400001931A49543303A80293FDF763F9201C4F
:1017500003A9FFF793FF0323002623756B46211C83
:101760006868A361A683FFF7DAFF6868FFF7AEFD3C
:10177000071C142000F072FC041C311C0C2201F028
:10178000D6F90123201CE660266103A90493039681
:10179000082220C001F0C2F9054BE360BB69B342E7
:1017A00000D02361BC6111B0F0BDC0460D1800002F
:1017B000B3130200F0B51F278FB06F443B70254B69
:1017C00000250360031C041C01264160057285721C
:1017D00042720C3309A820490693FDF71BF9032137
:1017E000221C237A009133400F31023308329BB21E
:1017F0000191029509A9039504960698FFF74CFFFD
:1018000009A81649FDF706F9201C02233A1C01938A
:1018100009A9331C00960295039504956030FFF7E3
:101820003BFF09A80E49FDF7F5F8201C221C0823F0
:101830000B32019309A9331C009602950395049677
:10184000B430FFF729FF201CFFF772FF201C0FB0F8
:10185000F0BDC046584A0200372A0000382A00006E
:10186000392A000013B5041C081C074902F044FA89
:1018700001F0BEFFFE231B061843019001A9601C66
:10188000042201F04BF913BD0000C842F0B5061C5C
:101890001F20371C9BB002AC02C70019311C03701B
:1018A0003B1C093100251D7001338B42FAD112AC6B
:1018B000111C381C3571FFF7D5FF201C1F49FDF79F
:1018C000A9F8331C0C3307931222052301920093CD
:1018D0003A1C211C0295039504950798FFF7DCFE3E
:1018E000201C1749FDF796F8331C02226033089339
:1018F0000123019202AF1D32D2190093211C0295DF
:10190000039504950898FFF7C7FE079B0DA80B9356
:10191000089B0C490C93FDF77DF80DA9201CFFF7DF
:10192000ADFE02230BAF3068211C2375A761A58390
:10193000FFF7F5FE301C1BB0F0BDC0461C2A0000AE
:101940001D2A000009180000F0B50368A3B0069333
:101950000679002E00D087E1181CFFF7A7FC1AAC0F
:10196000311C0C22051C201C01F0E1F8142000F0B1
:1019700075FBBE4BA4351A93031C86CC86C3BC4BA7
:101980000661C3602B68002B00D0036128608420AF
:10199000400000F063FB041CB64B06991A78032341
:1019A000FFF708FFB44BB4201C6000F057FB041C89
:1019B000B24B06991A680223FFF768FFB04B5C2010
:1019C0001C6000F04BFB061CAE4B069A1B781AAC51
:1019D00002600371AC49201CFDF71CF8371C012381
:1019E0000025083700931133321D01930295113BF6
:1019F00003950495381C211CFFF74EFEA34914A83B
:101A00000F97FDF707F814A9201CFFF737FE0123F5
:101A100023750FABA361211C3068A583FFF77FFE00
:101A2000FE209B4B40001E6000F018FB031C069A32
:101A3000984904C30790201C0893FCF7EBFF964FCE
:101A4000381C01F087F9061C381C01F083F90222CA
:101A500080B20192013AB3B20090029503950492CC
:101A6000211C3A1C0898FFF717FE079B8B49583337
:101A7000201C0993FCF7CEFF894F381C01F06AF94E
:101A8000061C381C01F066F9022280B20192013A6C
:101A9000B3B20090029503950492211C3A1C099858
:101AA000FFF7FAFD079B7F49AC33201C0A93FCF734
:101AB000B1FF7D4F381C01F04DF9061C381C01F0B8
:101AC00049F9022280B20192013AB3B20090029524
